:020000040000FA
:10000000C07F002081010000890100008B010000F9
:1000100000000000000000000000000000000000E0
:100020000000000000000000000000008D01000042
:100030000000000000000000190100005F1B00002C
:100040009301000093010000930100009301000060
:100050009301000093010000930100009301000050
:100060009301000093010000930100009301000040
:100070009301000093010000930100009301000030
:100080009301000093010000930100009301000020
:100090009301000093010000930100009301000010
:1000A0009301000093010000930100009301000000
:1000B00093010000930100000D10000000000000FB
:1000C0000348854600F0C6FC0048004701EE0000EA
:1000D000C07F0020EFF3108072B6704780F3108865
:1000E000704721482149016070471F481F4901603E
:1000F00070471F4802681F490A430260002080F3CE
:100100000988EFF30880C008C00080F3088816480B
:100110001649016062B6FEE772B6EFF30980002867
:100120000ED02038F0C044464D4656465F46F0C0DB
:10013000203811490968086074460DF0CBFEA646C8
:100140000D480E490A6802601068F0C80CC8904655
:1001500099460CC892469B4680F309887046042154
:100160000843864662B6704704ED00E000000010C8
:1001700020ED00E00000C0C034000020300000206E
:100180000448804704480047FEE7FEE7FEE7FEE735
:10019000FEE7FEE7751B0000C100000030B50B460E
:1001A000014600202022012409E00D46D5409D4251
:1001B00005D31D469540491B2546954040191546D7
:1001C000521E002DF1DC30BD70B5002425460028FC
:1001D00001DA01244042002901DA01254942FFF7F2
:1001E000DDFFAC4200D04042002C00D0494270BD3F
:1001F000F0B51FB40646002082B0054640240191A8
:1002000000901BE0019922460F46304600F02AFB81
:10021000049A059B801A994110D31046194622462C
:1002200000F010FB361A8F41019722460120002171
:10023000009F00F007FB38184D4100902046641ED7
:100240000028DFDC019B00982946324607B0F0BD4C
:10025000F0B51FB486B0002000900190029006987F
:10026000069980B204900798090C02040014114307
:1002700007900027089D099806913E463C4603904A
:100280000398A9B20204000C039004982D0C1543A6
:1002900048430021224600F0D5FAC71971411034B5
:1002A0000E46402CECDB3846029A00F0CBFA009A5E
:1002B000019B8018009059410298019110300290E2
:1002C0004028CCDB00980BB0F0BD10B5441A0346B3
:1002D000944209D28318891803E0491E0C785B1EEA
:1002E0001C70521EF9D210BD0C460443A40703D063
:1002F00009E010C9121F10C3042AFAD203E00C78D7
:100300001C70491C5B1C521EF9D210BDD2B201E018
:100310000270401C491EFBD270470022F6E710B560
:1003200013460A4604461946FFF7F0FF204610BD63
:1003300030B505462A460B4610781C78521C5B1CCB
:10034000002801D0A042F7D0002C03D0002802D012
:100350006D1CEFE7284630BD10B5044605E00B786C
:100360000370401C002B00D0491C521EF7D22046BF
:1003700010BDCAB2401E4178401C8A4202D00029FA
:10038000F9D100207047421C0178401C0029FBD1A4
:10039000801A704710B5002200E0521C835C8C5C10
:1003A000A34201D1002BF8D1D8B2E1B2401A10BD5E
:1003B00030B504460020034600E05B1C934203D2A4
:1003C000E05CCD5C401BF8D030BD03460A7802707B
:1003D000401C491C002AF9D11846704730B5054623
:1003E0000020034600E05B1C934205D2EC5CC85C35
:1003F000201A01D1002CF6D130BD0246C9B200E06E
:10040000401C0378002BFBD102E003788B4203D021
:10041000401E9042F9D20020704770B502464A4013
:10042000D50F40004A00ED0740085208002814D0BC
:10043000002A12D0C40DD30D41020120C005520282
:10044000490A520AE41A091812187D34914201D35C
:10045000641C00E04900002C01DA002070BD00237C
:10046000914201D3891A0343400849000028F7D17B
:1004700000290AD0914202D10121C90705E0914229
:1004800001D2012101E00121C943E005C018401952
:1004900000F00CFA70BD0000F0B507460846584061
:1004A00087B0C00F049048000E4659004008490824
:1004B000BC1A884105D2384631461E4617460B46BF
:1004C00002465800400810434CD0300D03904005C0
:1004D0005900400D490D0590401A0290402872DAEB
:1004E00018030121000B09050843019004980092AC
:1004F000002805D0019952420020884100920190C5
:10050000029840210A1A0199009800F09BF90546CB
:100510000C466B4607CB00F0B6F9C0197141039A3F
:100520000E0D0023D71756401A467A40164344D082
:10053000049A002A2DD0029A012A039A15DC12058A
:10054000C01A914101263605001C7141D20F059E4B
:10055000D2070093019202962A46234600F0F4F94E
:1005600007B0F0BD38463146FAE71605224A0F4675
:10057000B218C01AB74101210905001C4F410018EB
:100580007F41114618187941E20F10436D196441FB
:1005900013E0E2076D0815436408C2071443039A89
:1005A00001261205C01A91413605001C7141CE0783
:1005B000400830434908C01851412A46234600F0FC
:1005C000B6F9CDE7FFE7049801224000C117121ADF
:1005D00000238B4104983146C417381AA141EEE735
:1005E00030B40124E407634030BC55E730B4012443
:1005F000E407614030BC4FE70000E0FFF0B51FB4F6
:1006000088B00B990998002448400999C00F490007
:1006100049080991C0070B990090490049080B91BE
:1006200009990898A64608431CD00B990A980843D4
:1006300018D0099801244000420D4800410D099846
:1006400024050003000B204309900B980003000BC6
:1006500020430B9050181C4940180022019014466A
:10066000104605E0002001460DB0F0BD032801DA78
:10067000034600E003239C46C11A0AAE0AE05F006D
:1006800008ADED5B4F00F75B7D430027AA187C4166
:10069000491C5B1E6145F2DD410004AB5A52210446
:1006A000120C0A43240C401C0828DFDB019802903E
:1006B0000099704601910090059B049A079906984D
:1006C00000F042F9D0E700000DFCFFFFF0B50C464A
:1006D0005C4085B0E40FE40703944C0000266408F6
:1006E00059009446490802460296224321D06246A8
:1006F0000A431ED06200570D4A000E032303550D16
:10070000012402462C492405781B1B0B360B40188C
:1007100023432643614600901C46501AB44103D33C
:100720000098401C009002E0921800985B4100285D
:1007300003DA0020014605B0F0BD002001210905C3
:100740000746864611E064461D46141BB54106D394
:100750006546521BB341744607430C43A646CD077A
:1007600040084908284392185B4105460D43EAD1E9
:100770001046184313D06046194650407140084354
:1007800006D06046101AB34106D20122002306E0CB
:1007900000220123DB0702E00122D243531000981C
:1007A00074460105381C6141029C039D0019694192
:1007B00000F0BDF8BFE70000FD03000010B5002207
:1007C0009623114600F07AF810BD00004A00090394
:1007D0000123090B1B051943094B10B5520D9A4211
:1007E00001DA002010BD064B34339A4203DC9A1A1A
:1007F00000F038F810BD03495118884010BD0000C2
:10080000FF030000CDFBFFFFC20FD20740004008EE
:100810000BD0C10D0723DB01C91840020905400AAE
:100820001143C2084007114370470020014670473A
:100830000122D207002800DB101A002900DB511A20
:100840008842704710B5202A04DB0146203A9140C7
:10085000002010BD914020239C1A0346E340194319
:10086000904010BD10B5202A04DB0846203AD04045
:10087000002110BD0B46D340D0402024A21A914045
:100880000843194610BD10B5202A06DBCB170846D1
:10089000203A1041C1170B4306E00B461341D040EC
:1008A0002024A21A91400843194610BD002904DAF9
:1008B000401C490001D140084000704770B400243A
:1008C000050C05D11024000402D1002921D01124E7
:1008D000050E01D100020834050F01D10001241DCD
:1008E000850F01D18000A41C002801DB4000641C9E
:1008F000002908D020252E1B0D46F540A14000D030
:1009000001212943084301061B1B000ADB1D02D5F8
:10091000002070BC7047DB05181880180029F8DA31
:10092000401C4900F5D170BC40084000704710B52C
:10093000002B08DA0024401C614192185B411A43E5
:1009400001D14008400010BDF0B51FB482B005468B
:100950000C0003D0084601F0F5FA02E001F0F2FACB
:1009600020300246009021462846FFF76BFF049B8B
:10097000059A04460F4618431143084314D01846FD
:1009800010431BD0009840210A1A18460599FFF71A
:1009900069FF05460E46009A05990498FFF752FF35
:1009A000084305D0012004E02046394607B0F0BDD9
:1009B0000020C11705430E432C43374300990E987E
:1009C0006305401A7905E40A00220C43FD0A0A3047
:1009D00002D500200146E9E70105101969410C9C88
:1009E0000D9D00196941FFF7A2FFDFE74A000903E7
:1009F0000123090B1B0519430A4B10B5520D9A42EE
:100A000002DA0020014610BD064B34339A4203DC63
:100A10009A1AFFF727FF10BD034BD218FFF712FFFA
:100A200010BD0000FF030000CDFBFFFF10B5002943
:100A300004DB0124E40740428C412146002B04DB07
:100A40001C460123DB075242A341994200D1904248
:100A500010BD0000064C0125064E05E0E36807CCFA
:100A60002B430C3C98471034B442F7D3FFF72CFBD0
:100A7000B81D0100D81D010070B58C180578401C08
:100A80006B075B0F01D10378401C2A1106D1027855
:100A9000401C03E006780E70401C491C5B1EF9D117
:100AA0002B0705D40023521E0DD40B70491CFAE706
:100AB0000378401CCB1A921C03E01D780D70491C72
:100AC0005B1C521EF9D5A142D8D3002070BD000096
:100AD000012806D10649496801221143044A5160A0
:100AE00005E00349496849084900014A51607047D7
:100AF00000280140012806D1064909680122114356
:100B0000044A116005E00349096849084900014A9F
:100B100011607047002801407FB506460D46144617
:100B20006A462946304600F027FA0098A84227D1A5
:100B30006846C079002823D1E007C00F002803D100
:100B40006846407900281BD1E007C00F002803D079
:100B500068464079012813D102202040002803D1A3
:100B60006846807900280BD102202040002803D05D
:100B700068468079012803D16846007902281DD093
:100B8000029500206946C873E007C00F002801D114
:100B9000487302E001206946487302202040002883
:100BA00002D16946887302E00120694688730220F9
:100BB0006946087302A9304600F05EFA7FBD000066
:100BC000002003490860486048618861C861704737
:100BD000001000400146054A506940084000CA071D
:100BE000D20F1043014A50617047000000100040CE
:100BF0000146064A506903231B0202469A431046E7
:100C00001A460A401043014A5061704700100040E4
:100C10000146064A5069022302469A4310460222C0
:100C20000A401043014A5061704700000010004024
:100C300010B504460020FFF7DBFF0120FFF7CAFFD5
:100C4000094800F03BF8094800F038F808482060EF
:100C500000E000BF00F00EF80128FAD100F016F80D
:100C6000002000F02BF810BD96969696EAEAEAEA84
:100C7000CDAB34120448006AC007C00F002801D071
:100C8000012070470020FCE70010004001200149CE
:100C900008627047001000400448006A02210840C2
:100CA000002801D0012070470020FCE70010004020
:100CB0000220014908627047001000400149886124
:100CC00070470000001000400146054A1068800887
:100CD00080008A07920F1043014A1060704700009D
:100CE00000100040F0B504460E4617460220FFF7FC
:100CF0008FFF0F48FFF7E2FF0E48FFF7DFFF0025E9
:100D00000FE00220FFF784FF705D2070641C00E09C
:100D100000BFFFF7C1FF0028FAD0FFF7C9FF681C2A
:100D200085B2BD42EDDB0020FFF7C8FFF0BD00003B
:100D3000A5A5A5A5F1F1F1F1F0B503460C460021FA
:100D40000020002207E0012595402540002D01D01C
:100D5000114602E0521C102AF5D300BF0020454E78
:100D60009D1BB34229D008DC434D5D19002D0BD0EB
:100D7000202D0AD0402D79D113E0202D2BD0402DED
:100D800038D0602D72D154E000BF3A4D6035ED6A25
:100D90004F077F0F0126BE403540002D00D00120B7
:100DA00065E0344D60352D6B4F077F0F0126BE4047
:100DB0003540002D00D0012059E00A290AD82D4DD8
:100DC00060352D6B4F077F0F0126BE403540002D4B
:100DD00000D001204BE002290BD3092909D8254D69
:100DE00060356D6B8E1E0127B7403D40002D00D051
:100DF00001203CE000290DD007290BD81D4D60359E
:100E00006D6B4F077F0F0126BE403540002D0FD080
:100E100001200DE008290BD30B2909D8154D6035A9
:100E20006D6B0E1F0127B7403D40002D00D0012003
:100E30001DE002290AD10F4D60352D6B4E1C012794
:100E4000B7403D40002D0FD001200DE005290BD308
:100E5000082909D8074D60352D6B4E1E0127B74074
:100E60003D40002D00D0012001E0FFE700BF00BFA2
:100E7000F0BD0000600C004000F4FFBF30B502463A
:100E80000B460020002107E001248C401C40002C70
:100E900001D0084602E0491C1029F5D300BF344DAB
:100EA000541BAA4221D008DC324C1419002C0BD060
:100EB000202C0AD0402C58D10FE0202C1FD0402CE1
:100EC00028D0602C51D13CE000BF45076D0F0124B4
:100ED000AC40274D6035EC6248E045076D0F0124BA
:100EE000AC40234D60352C6340E00A2806D8450706
:100EF0006D0F0124AC401E4D60352C6336E0022896
:100F000007D3092805D8841E0125A540184C603454
:100F100065632BE0002809D0072807D845076D0F27
:100F20000124AC40124D60356C6309E0082807D3FA
:100F30000B2805D8041F0125A5400D4C60346563BE
:100F400014E0022806D1441C0125A540084C603459
:100F5000256309E0052807D3082805D8441E012584
:100F6000A540034C6034256300E000BF00BF30BDE6
:100F7000600C004000F4FFBFF0B5044600250023DC
:100F800007E001269E400E403546002D00D002E0CD
:100F90005B1C102BF5D300BF102B36D21D46116001
:100FA00026680E403046E840012802D10126D6715D
:100FB00001E00026D67166680E40EE4030460128FA
:100FC00001D1967101E000269671A6680E40EE40B0
:100FD0003046012801D1567101E000265671E668BD
:100FE0006F00FE40B007800F002802D10026167166
:100FF0000BE0012802D10126167106E0022802D179
:101000000226167101E003261671F0BD08B5002016
:1010100000906946144800780EF032F9052800D196
:1010200008BD114800780007800E104A115800983A
:10103000FFF782FE012815D10B4800780007800ECB
:101040000A4A11580098FFF719FF0948006800285C
:1010500008D008480068002804D006480068044901
:101060000968884700BFDBE70C0000201C1801005E
:101070000400002008000020F0B502460B460021C5
:101080000024002500BF2DE001268E4034461E6856
:1010900026403546A54224D110680646A643304670
:1010A000DE798E403043106050680646A6433046D5
:1010B0009E798E403043506090680646A643304685
:1010C0005E798E40304390604F000326BE40344628
:1010D000D0680646A64330461E794F00BE403043D6
:1010E000D060491C1029CFD3F0BD0000014802494F
:1010F000086070475A5A3412001401400146054AEC
:101100005068800880008A07920F1043014A50609F
:101110007047000000140140012806D106494968C3
:1011200004221143044A516005E00349496804223E
:101130009143014A516070470014014010B50121EC
:10114000054800F0D7FAFFF7D1FF0220FFF7D6FFDE
:101150000020FFF7E1FF10BD0500000110B50022DF
:1011600001218902104800F0B9F900220121490249
:101170000D4800F0B3F900220121C9030A482030CC
:1011800000F0ACF90022012189030748203000F06B
:10119000A5F9012204210448FFF7BEFC0122082121
:1011A0000148FFF7B9FC10BD200C00401FB5FF201F
:1011B000F430009000200290019069460873684660
:1011C00000F032FB002000F0EFFA1FBD10B5012146
:1011D000604800F08FFA01215E48153800F08AFA65
:1011E00001215C48163800F085FA0121594817386A
:1011F00000F080FA01215748183800F07BFA0121ED
:101200005448193800F076FA012152481A3800F093
:1012100071FA01214F481B3800F06CFA01214D484A
:101220001C3800F067FA01214A481D3800F062FAC4
:10123000012148481E3800F05DFA0121080600F03F
:1012400059FA0121444800F055FA01214248401E54
:1012500000F050FA00214048801E00F04BFA0021B7
:101260003D48C01E00F046FA01213B48001F00F037
:1012700041FA01213848401F00F03CFA012136486C
:10128000801F00F037FA01213348C01F00F032FA06
:101290000121480600F02EFA0121304800F02AFA18
:1012A00001212E48C01F00F025FA01212B480838E3
:1012B00000F020FA012129480A3800F01BFA012128
:1012C00026480B3800F016FA012124480C3800F0AB
:1012D00011FA012121480D3800F00CFA01211F48B4
:1012E0000E3800F007FA01211C480F3800F002FA0E
:1012F00001211A48103800F0FDF90121174816386D
:1013000000F0F8F901211548173800F0F3F9012130
:101310000320000600F0EEF90121114800F0EAF97F
:1013200001210F48401E00F0E5F901210C48801E04
:1013300000F0E0F901210A48C01E00F0DBF90121AC
:101340000748001F00F0D6F90121880600F0D2F905
:1013500010BD00001F00000108000002180000037B
:101360000500000400B587B0002005900121684603
:10137000017605A800F0A6FA0020009001900290E6
:1013800003900121684601740021417400F020FBA4
:1013900007B000BD10B50020FFF796FCFFF706FF71
:1013A000FFF7E0FFFFF712FF002000F095F90120A2
:1013B000FFF7A0FB0020FFF78BFB012000F01DFBD7
:1013C00010BD000070B5054629460D48FEF7E6FE43
:1013D0000446601E0B49884200D90CE0601E0A4991
:1013E00048610321081F00F03DF80020064988618C
:1013F0000720086100BF07200349086170BD000095
:1014000000127A00FFFFFF0000E000E010B572B6A6
:10141000FFF794FEFFF76AFE04F0FCFAFFF7BAFF4D
:10142000012000F02DF90220084908704B20C0016E
:1014300048600321054801720021C1724172817226
:10144000022101730AF038FD62B610BD0C080020BD
:10145000C206D20E01219140014A1160704700007E
:1014600080E100E010B5002819DA1A4A03071B0FC3
:10147000083B9B089B00D2588307DC0EFF23A34048
:101480009A438B071B0E8407E40EA3401A43114BAB
:101490000407240F083CA408A4001A5118E00E4ABF
:1014A00003231B02D21883089B00D2588307DC0E4B
:1014B000FF23A3409A438B071B0E8407E40EA3402F
:1014C0001A43054B032424021B198408A4001A5153
:1014D00010BD00001CED00E000E100E07FB5064615
:1014E0000D4614466A4629463046FFF745FD0098EA
:1014F000A84217D16846C079002813D1002C03D127
:101500006846407900280DD1012C03D16846407906
:10151000012807D168468079002803D16846007900
:10152000012813D0029500206946C873002C01D110
:10153000487302E0012069464873002168468173C0
:101540000121017302A93046FFF796FD7FBD00001F
:1015500010B50246002300240020D0601061106006
:101560005060906000F088F9012807D100F06CF914
:1015700003461B0C581C41494843D06000F008F951
:10158000012819D100F022F903465B08012B02D093
:10159000022B06D102E07D24240205E0D068040A73
:1015A00002E00124E40300BF00BF00F0D7F80346C7
:1015B0001B0C581C6043106100F0F4F9034600BF97
:1015C000002B06D0012B07D0022B09D0032B0ED104
:1015D0000AE0D06810600DE07D200002106009E094
:1015E0000120C003106005E01069106002E0D068BF
:1015F000106000BF00BF00F06FF903461B0A042B08
:1016000006D0052B08D0062B0AD0072B10D10BE0F3
:101610001068400850600EE01068800850600AE0D2
:101620001068C008506006E010680009506002E0D1
:101630001068506000BF00BF00F066F903461B0C45
:10164000042B06D0052B08D0062B0AD0072B10D16F
:101650000BE05068400890600EE050688008906091
:101660000AE05068C008906006E050680009906089
:1016700002E05068906000BF00BF10BD00127A0009
:1016800010B50446012C02D11248036813E0022C65
:1016900003D110484038C36B0DE0032C03D10D4833
:1016A0004038836B07E0042C03D10A484038436B71
:1016B00001E008480368180CD94389B2884204D174
:1016C0005806400E00F0F6F802E0402000F0F2F874
:1016D00010BD000040FDFF1F0146054A506840084C
:1016E0004000CA07D20F1043014A50607047000003
:1016F0004002004030B502460B4600200F2424066D
:101700001440FF252D066419002C09D06419002C03
:1017100008D06419002C08D06419002C0BD107E004
:101720000D4809E00C48001D06E00B48083003E0B6
:1017300009480C3000E000BF00BF00280BD0D2B237
:1017400001219140002B03D004680C43046002E0A7
:1017500004688C43046030BD280200400248806960
:101760000249084070470000000200400000FF03EB
:101770000146054A9069054A1040D2430A40104389
:10178000014A90617047000000020040FFFF00FC2A
:1017900004488069C007C00F002801D001207047AD
:1017A0000020FCE700020040012806D106498969B3
:1017B00001221143044A916105E0034989694908FE
:1017C0004900014A91617047000200400248806967
:1017D0000621084070470000000200400146064A0A
:1017E0009069062302469A43104606220A40104397
:1017F000014A906170470000000200400146064A1D
:101800009069082302469A43104608220A40104372
:10181000014A9061704700000002004000B5034695
:101820001804FFF7A5FF00BD10B504462068FFF7B8
:10183000F5FF6068FFF7E2FFA068FFF7CFFF207BAE
:10184000FFF7B2FF10BD0000024800690321090440
:1018500008407047000200400146064A1069032311
:101860001B0402469A4310461A460A401043014A96
:10187000106170470002004004480069C007C00FB3
:10188000002801D0012070470020FCE70002004042
:10189000012806D10649096901221143044A116150
:1018A00005E00349096949084900014A1161704787
:1018B000000200404106490E014A51617047000094
:1018C0000002004010B504462068FFF7C5FF2079EC
:1018D000FFF7DEFF10BD00000248C06807210902C3
:1018E00008407047000200400146064AD0680723BE
:1018F0001B0202469A4310461A460A401043014A08
:10190000D0607047000200400248C0680721090407
:1019100008407047000200400146064AD06807238D
:101920001B0402469A4310461A460A401043014AD5
:10193000D0607047000200400146064AD068D303D9
:1019400002469A4310461A460A401043014AD060A4
:101950007047000000020040012806D10649C9680E
:10196000C2071143044AD16005E00349C968490030
:101970004908014AD160704700020040012806D1A1
:101980000749C96842061143054AD16006E0044987
:10199000C968012252069143014AD1607047000094
:1019A000000200400248C0688007800F70470000B6
:1019B000000200400146054AD068800880008A077E
:1019C000920F1043014AD0607047000000020040AF
:1019D00010B504462068FFF7EDFF6068FFF784FF4D
:1019E000A068FFF799FFE068FFF7A6FF207CFFF7EC
:1019F000C5FF607CFFF7B0FF10BD10B50446012C99
:101A000005D100F09BF8012000F086F805E00020E9
:101A100000F094F8002000F07FF8002000F06AF851
:101A2000002000F055F8002000F040F8002000F001
:101A30002BF8002000F016F8002000F001F810BD8F
:101A4000012806D1810749680202114382075160CB
:101A500007E0012189074968FF220132914392057D
:101A600051607047012806D181074968420211433D
:101A70008207516007E0012189074968012252026B
:101A80009143520551607047012806D1810749688A
:101A9000820211438207516007E0012189074968EA
:101AA000012292029143120551607047012806D12C
:101AB00081074968C20211438207516007E0012192
:101AC000890749680122D2029143D20451607047CC
:101AD000012806D18107496802031143820751603A
:101AE00007E001218907496801221203914392040A
:101AF00051607047012806D18107496842031143AC
:101B00008207516007E001218907496801225203D9
:101B10009143520451607047012806D181074968FA
:101B2000012211438207516007E0012189074968BA
:101B3000490849000122920751607047012806D1E7
:101B400081074968022211438207516006E00121A2
:101B5000890749680222914352075160704710B5C6
:101B60000BF094FD0CF04EFC0BF0A2FDFFF7BEFA5B
:101B700010BD0000014802490860704700127A0059
:101B800000000020F3B585B00F460598FEF716FE5D
:101B900005463846FEF712FE06462946FEF73DFC8E
:101BA00004907F21C9050498FEF742FE13D20498E1
:101BB000FEF72AFE05460022094BFEF711FD002222
:101BC000084B01910090FEF767FC03910290FEF72D
:101BD000FDFD044600E00024204607B0F0BD0000F3
:101BE0000000F03F0000E03F30B505460C462846B7
:101BF000616800F0F7F82846A16800F0DBF82020C3
:101C0000015D284600F098F82846216900F012F995
:101C1000217B284600F0C2F82846616900F022F9CD
:101C20002846E16900F0EBF822780021284600F010
:101C300063F862780121284600F05EF82120015DFA
:101C4000284600F085F82220015D284600F08CF837
:101C5000617B284600F0BAF8217E284600F0F6F8AD
:101C6000617E284600F0DAF830BD70B58AB00646CD
:101C70000C46154629462068FFF784FF0290002095
:101C800008A90871207901280ED16079012802D1B4
:101C90004020039013E06079022802D18020039055
:101CA0000DE0002003900AE02079022802D1C02034
:101CB000039004E000200390012008A90871A07996
:101CC000002801D1059001E04020059000216846E0
:101CD000017141710174202006900020089008A82D
:101CE00041718171684641740177417701A930469D
:101CF000FFF77AFF0AB070BD30B503460D4C1C1BD0
:101D00002009002900D1401C012A09D1094C0C3CB2
:101D10002468012585402C43064D0C3D2C6008E0CD
:101D2000044C0C3C246801258540AC43014D0C3D1E
:101D30002C6030BD0C200140012904D1C26904236C
:101D40001A43C26103E0C26904239A43C261704727
:101D5000012904D1C26902231A43C26103E0C269A6
:101D600002239A43C2617047012904D1C269012349
:101D70001A43C26103E0C26952085200C26170474F
:101D800001468869C007C00F002801D001207047B4
:101D90000020FCE701468868C0B27047012904D1E1
:101DA000026820231A43026003E0026820239A435A
:101DB0000260704710B50A460168C0240B46A34371
:101DC0001946C02313401943016010BD012904D1F5
:101DD000026810231A43026003E0026810239A434A
:101DE000026070478AB20261704701464869C007C5
:101DF000C00F002801D0012070470020FCE710B57B
:101E00000A4641690C240B46A34319460C23134090
:101E10001943416110BDCAB2C2607047012904D1A3
:101E2000426808231A43426003E0426808239A4349
:101E30004260704710B50A46416840240B46A343F0
:101E40001946402313401943416010BD012904D1B4
:101E5000426810231A43426003E0426810239A4309
:101E60004260704710B50A46416820240B46A343E0
:101E70001946202313401943416010BD0FB410B51B
:101E8000024604A9034B039800F064FB10BC08BC95
:101E900004B018472DB900000FB410B503A9044BC6
:101EA000044A029800F056FB10BC08BC04B0184766
:101EB0002DB90000000600200FB41CB50A46521EC2
:101EC0000192009007A9064B6A46069800F042FB73
:101ED000009A002111701CBC08BC04B01847000017
:101EE000512D00000FB410B504A9074B02AA0398A6
:101EF00000F030FB044602A9002000F034FF204629
:101F000010BC08BC04B01847672D000010B5024B88
:101F1000024A00F01FFB10BD2DB900000006002092
:101F20007CB51C461546491E01910090044B6A463B
:101F30002146284600F00EFB009A002111707CBD5E
:101F4000512D00002021020C01D010211046020A60
:101F500001D010460839020901D01046091F820835
:101F600001D01046891E420801D0881E7047081A09
:101F7000704730B47446641E2578641CAB4204D3A9
:101F8000635D5B00E31830BC18471D46F8E700BFEF
:101F9000FEE700000048704708060020426001602C
:101FA00048601060704770B504460D462846FEF73D
:101FB000EAF9E178884202D00A20C04370BDE17896
:101FC000A288881801F0ADFBA060A068002802D1AB
:101FD0000B20C043F2E7A289E38918460830A168C4
:101FE0000DF085FA002802D00420C043E6E7284619
:101FF000FEF7C9F9064632462946A068FEF7D8F929
:10200000002800D1DAE70A20C043D7E7F8B5064632
:10201000B0890B308008800085B2284601F081FB32
:102020000746002F02D10B20C043F8BDF0892A4695
:1020300039460DF05CFA002802D00424E44322E083
:10204000134988882A4639460DF05BFA002802D0E9
:102050000424E44317E00E48808840190C49888026
:1020600008468088001300900098810008481030CE
:10207000405A401B81B200988200054810308152BE
:102080000A24E44300BF384601F041F82046CCE77B
:1020900020670020F8B504460F4600260025E178A9
:1020A000481C01F03EFB0646002E02D10B20C04327
:1020B000F8BDE078411C3046FEF72FF9E278E1895F
:1020C0000846083031460DF012FAA188481C01F08C
:1020D00028FB0546002D05D1304601F018F80B20ED
:1020E000C043E5E7A088411C2846FEF716F9E189C0
:1020F0000831E378C818A28829460DF0F8F92A4675
:10210000314606A000F0FCFE304601F000F82846FB
:1021100000F0FDFF0A20C043CAE700002573203D00
:102120002025730D0A00000070B504460E46A089F4
:1021300001F0F7FA0546002D02D10B20C04370BD17
:10214000A289E1890846083029460DF0D0F9002817
:1021500005D0284600F0DBFF0420C043EFE7A1894B
:1021600028460FF0B7F8A17888420BD1E088002804
:102170000CD0E089E188884208D0012120460CF08B
:1021800059FB03E0002120460CF054FB284600F0E8
:10219000BEFF0A20C043D2E702E008C8121F08C1F0
:1021A000002AFAD170477047002001E001C1121FD8
:1021B000002AFBD17047FFB581B0164601984468EC
:1021C0000021C943204601F0DDFA0096656AE06906
:1021D000002809DDA868B04206D1284608F0A0FF13
:1021E000E069401EE06104E030460C3001F099FAED
:1021F0000546002D02D1681E00902AE02069401C8F
:102200002061AE60324628460C300299FEF75DF838
:102210000498002805D021461431284608F072FFA2
:1022200008E0274614373A4628463968FFF7B6FED5
:1022300000BF00BF606800280AD00620A168085EC1
:1022400001210843A168C8806268E168A0689047DE
:1022500000BF204601F036FC009805B0F0BDF8B58F
:102260000E4614461D4627462A4631463846FEF796
:102270002CF80020F8BD0000F7B584B00D461646D6
:1022800000200390019002951421049848431A49B4
:102290004718F968B8684018A84202D9B868A84237
:1022A00003D90020C04307B0F0BD01211348FFF758
:1022B00021FA002404E061024819FEF7B9FC641C0D
:1022C000F01DFF30F930400AA042F4D800210B483D
:1022D000FFF710FA002409E0A10002984058401CC2
:1022E000002802D00020C043DDE7641CB008A042F3
:1022F000F2D80020D7E70000AC0000200500000263
:10230000FFB583B00C460025069802900598019011
:1023100000BF600A400200900098271A0120400286
:10232000C11B0698814203D201204002C01B00E07D
:1023300006980646012149021A48FDF7EEFF0123DF
:102340005B02184A00990398FFF789FF1549C819DD
:1023500032460199FDF7B9FF012252020099039814
:10236000FFF78AFF0546002D00D017E001235B022E
:102370000C4A0099039800F017F80546002D00D08C
:102380000CE0A4190198801901900298801B02901A
:10239000002D02D102980028BBDC00BF284607B000
:1023A000F0BD00000C060020FEB50D4616461F4687
:1023B00001210D48FFF79EF9BAB231462846FEF7D3
:1023C00091FC01950096002409E00198015D0098B8
:1023D000005D814202D00020C043FEBD641CBC42AF
:1023E000F3D30020F9E7000005000002F0B51FB4A8
:1023F00084B007980699020D014314D04A484B490E
:102400001018484305140F9801280E981CD0281A5C
:10241000401C0024464E4749009401910290002838
:1024200014DA474227E00F98012443A3012808D07B
:10243000002104980F9A84600360C260416009B073
:10244000F0BD0E98C143F4E74042E2E7074612E0D0
:10245000F80707D02246334601990098FEF7CEF8D8
:10246000019100902246334610461946FEF7C6F801
:1024700004460E467F10002FEAD10298019B0028E7
:10248000009A0799069802DAFEF7B8F801E0FEF71D
:102490001DF904460E460022284BFEF7C7FA03D862
:1024A0000020C043014607E00022254B204631466C
:1024B000FDF7F2FFFEF79AFA102409E0002C0ADB80
:1024C0000A220023FDF794FE059B30321A55641E44
:1024D00002460A43F2D11122641C059B121B1C19EF
:1024E0000F9B012B03D0012308430ED10AE00843C0
:1024F00004D011200E9000200F9084E70E98151A3A
:102500006D1E0BE00E98824202DD00236D1C03E07D
:10251000824201DA00236D1E002BEED004980F9941
:102520008260C16030C08AE701FCFFFF104D0000EF
:10253000000024400000F03F300000000000F043A5
:102540000000E03F10B50248006802F001FA10BD3B
:102550008C000020FFB597B00646002518E225281C
:1025600077D100242746FD49049400E00443761CFB
:1025700032780120203A90400842F7D130782A285A
:102580000ED00222307801463039092916D8049934
:102590000A235943303940181443761C0490F1E75C
:1025A000189802C804911890002904DA0120400309
:1025B00004434842049002200443761C30782E28BD
:1025C00014D1042004437078761C2A2809D1189865
:1025D000761C80C8189009E00A214F43303FC71984
:1025E000761C3078014630390929F5D930786C28C5
:1025F00010D006DC4C281AD068280ED06A2817D1D3
:1026000004E0742813D07A2812D110E0012040058C
:1026100004430CE00121090501E0032109050C43F5
:102620007178814203D1012000052418761C761CA4
:102630003078119066280BD013DC58287DD009DC47
:1026400000287BD04528F6D04628F4D047281AD158
:10265000A5E118E0632835D0642870D0652812D130
:102660009DE170286CD008DC6728F1D069287BD008
:102670006E280DD06F2806D1BAE073282ED07528A9
:1026800071D0782859D01A9A199990476D1C7EE11B
:102690006002400F022809D003280DD004281898A2
:1026A00001680DD00D60001D189070E11898EA17B0
:1026B00001680D604A60F6E7189801680D80F2E73E
:1026C0000D70F0E718986A4601781172001D189095
:1026D0000020507202A80090012005E0189802C85E
:1026E000189000200091C04361070DD5002101E042
:1026F0000199491C0191B94212DA8142F8DB009A32
:10270000515C0029F4D10BE0002101E00199491C42
:1027100001918142FADB019A0099895C0029F5D187
:10272000019904981A9B471A21463846199A00F0D5
:1027300097FA0199401945180BE04FE02CE113E09E
:102740004EE0009800990078491C00911A9A199956
:1027500090470198401E0190401CF2D12146384616
:102760001A9B199A10E137E00A200021009001918C
:102770006002410F022907D0189A01CA1892C217A5
:102780009446032908D00AE01898C01DC108C90062
:1027900005C91891944607E000B2C217944604296F
:1027A00002D140B2C1178C4600226146944506DA38
:1027B0000A460021404291418C462D2102E021052C
:1027C00004D52B216A461173012103E0E10701D0F2
:1027D0002021F7E7029155E00A200AE0102008E0E6
:1027E000102000900021042004430191082703E0F9
:1027F00008200021019100906002410F022907D0BA
:10280000189A01CA189200229446032908D008E0B9
:102810001898C01DC108C90005C91891944603E065
:1028200080B2042900D1C0B200210291210729D52C
:102830001199702906D0009A1021019B4A401A4331
:1028400005D00EE040216A461173012108E061467F
:10285000014306D030216A46117311995173022148
:102860000291009A0821019B4A401A430AD161460D
:10287000014301D1610705D530216A461173012159
:102880007F1E02911199582904D035A10E910DA9EE
:102890000D910DE037A1F9E76146019B009AFDF724
:1028A000A7FC0E9B8C469B5C0D9A521E0D921370DA
:1028B00061460143F0D10D9805A9081A2030019016
:1028C000600703D501200004844300E0012701983C
:1028D000874201DD381A00E000200199009041187C
:1028E000029809180498401A0490E00306D421467F
:1028F0001A9B199A049800F0B3F94519002706E0CD
:1029000003A81A9AC05D199990476D1C7F1C029804
:102910008742F5DBE0030CD521461A9B199A0498EF
:1029200000F09EF9451904E01A9A30201999904751
:102930006D1C0099481E00900029F5DC08E00D98F8
:102940000D990078491C0D911A9A199990476D1CA0
:102950000199481E01900029F1DC63E1092801007A
:102960003031323334353637383961626364656605
:1029700000000000303132333435363738394142C7
:10298000434445460000000000F05AF94519761C02
:102990003078002800D0E2E528461BB0F0BD600783
:1029A00000D406271898C01DC108C90048680A68E5
:1029B0000831C30FDB071891190001D09CA108E072
:1029C000210501D59BA104E0E10701D09AA100E017
:1029D0009AA1430011985B08109165280CD006DC81
:1029E000452809D046281DD0472841D141E0662816
:1029F00018D067283CD13CE00021112F01DB1120C9
:102A000000E0781C0191009008A911A8FFF7EEFCE6
:102A1000139905910021119A15927F1C1298019724
:102A2000009150E00120C00703900120019008A907
:102A3000009711A8FFF7DAFC139A14990592002267
:102A4000119B009212981593059A0192002901D0CA
:102A5000104602E0791C40180190381A01D50198FF
:102A600004E04042401E0090781C0190C01B029080
:102A700043E0012F00DA01270021112F01DD112091
:102A800000E038460191009008A911A8FFF7AEFCBC
:102A900013990591119A00211298159200910197AE
:102AA00021070CD40599B94201DB019900E001919D
:102AB000012904DD159A491E515C302906D0B8421F
:102AC00001DA011D05DA0121029115E00199491E83
:102AD000EDE7002805DC0099411800910199091AD9
:102AE00003E0019A411C914200DD01910099401AD6
:102AF000401C02900120C0070390200706D40299D1
:102B00000198814202DB0020C04302900020694608
:102B1000C87707AF012103980337C907884224D03B
:102B2000022011902B201290039800280CDA4042CA
:102B300003902D20129007E00A210398FDF72EFB49
:102B400030317F1E039039701199481E1190002971
:102B5000F2DC03980028EFD1791E129808703078C3
:102B6000202108404530BF1E387006A8C01BC01D7C
:102B7000039010980078002800D001200199411896
:102B80000298C0170918039809180498401A401EA3
:102B90000490E00306D421461A9B199A049800F089
:102BA0005FF8451910980078002803D01A9A1999EF
:102BB00090476D1CE00324D521461A9B199A04986E
:102BC00000F04EF845191CE00098002807DB00993A
:102BD0000598884203DD1598405C199901E0199920
:102BE00030201A9A904700986D1C401C0090029863
:102BF000401E0290002804D11A9A2E20199990475D
:102C00006D1C0199481E01900029DDDC05E0387833
:102C10001A9A7F1C199990476D1C0399481E0390BE
:102C20000029F4DC21461A9B199A0498ACE60000AE
:102C30002D0000002B00000020000000000000001C
:102C4000F8B5044600251E461746880404D405E05E
:102C500039462020B0476D1C641EF9D52846F8BDC2
:102C6000FFB50446002581B01E46C80301D53027B4
:102C700000E02027880404D505E038460399B047D2
:102C80006D1C641EF9D5284605B0F0BDF3B587B0BC
:102C900005462C46089E1848806A1749C96A40189C
:102CA000059000F0CFFF02902069002801D0206934
:102CB000804712A116487268FFF7E0F8B0688047B5
:102CC0006069002801D0606980470B48806A0A4922
:102CD000C96A4018049000F0B5FF0299471A00979E
:102CE00005990498431A0BA109487268FFF7C6F8C2
:102CF000002009B0F0BD0000A86D002072756E20A4
:102D00007465737420636173652025730A00000085
:102D10000406002074657374206361736520257355
:102D20002066696E69736865642025642066616940
:102D30006C6564202564206D730A000010B504469C
:102D400021460248006801F0CBFF10BD8C00002036
:102D50004A68002A06D00A68531C0B601070486845
:102D6000401E486070470A68531C0B601070704723
:102D700010B50DF0E7FE10BDF7B505460E4608F09C
:102D8000F3FD07467868044618E0681C002803D065
:102D9000A069A84200D00FE06069B04200D00BE00B
:102DA00021690298814200D006E0204608F0B3F97C
:102DB000204600F0ACF9FEBD60680446BC42E4D198
:102DC00000BFF8E7F8B5064608F0CEFD0446E06817
:102DD000002802D0607D002800D1F8BD002507E062
:102DE0000C206843E1680858B04200D103E06D1C34
:102DF000607DA842F4DC00BF607DA84200D1ECE712
:102E0000607D401EA84210D0681C0C277843E36800
:102E100019183846684318180090607D401B401E02
:102E2000784302460098FDF750FA607D401E6075B9
:102E300000BFD2E73EB5224800F073FC214908608C
:102E400008460068002802D10B20C0433EBD1C4943
:102E50001C480068FDF761FA08211B4800F0CCF817
:102E6000041E00D01EE021200121C9020023174AC0
:102E70000091019016A102A801F06EFE0446002CFC
:102E800004D0214613A000F03BF80BE001200D49CF
:102E90000968086000200B49096848600BF0FCFED7
:102EA0000020D3E707480068002806D005480068DE
:102EB00000F02DF90020034908602046C6E7000015
:102EC000180F00009C01002090180100A557000079
:102ED000636C69004572726F723A204661696C6575
:102EE0006420746F2063726561746520636C69206F
:102EF0007468726561643A2025640D0A0000000060
:102F00000FB470B5C2B0FF21013101A8FDF705FA79
:102F1000002613480078002807D0124901A8FDF7C1
:102F200054FA1048FDF72FFA064601A8851947A85C
:102F30004190FF200130811B2846419B469AFEF7B5
:102F4000EFFF044600204190002C04DC42B070BC2E
:102F500008BC04B0184701A802F0ACFC0020F5E75B
:102F6000A4010020E86B002010B50146214800684C
:102F7000002801D1012010BD0868002802D088680F
:102F8000002802D11520C043F5E71A480068FF3039
:102F900001308068402829D2002209E093001548BA
:102FA00000680830C058884201D10020E3E7521C75
:102FB00010480068FF30013080689042EED80D481C
:102FC0000068FF30013084680A480068FF30013033
:102FD0008068401C074B1B68FF3301339860A300D7
:102FE000044800680830C1500020C4E70B20C043EB
:102FF000C1E700009C010020F0B505460E460A48D6
:103000000068002801D10120F0BD002408E0284616
:103010000C35FFF7A9FF071E01D03846F4E7641C02
:10302000B442F4DB0020EFE79C010020F8B506462F
:103030000027304608F0B6FC0546002D01D1801E61
:10304000F8BD2C68207C032809D12068406800283E
:103050000ED02068416828468847074608E0206867
:103060004068002804D02068416828468847074601
:103070000021C943074800F085FB071E01D03846F0
:10308000DEE7284607F0C0FF024800F01BFD384687
:10309000D6E700009400002010B504460022044941
:1030A0002046FFF78FFE2046FFF7C0FF10BD00004F
:1030B00033B8000010B5002109A000F0C7FD044698
:1030C0000A484068002801DA08484460002208499C
:1030D000204600F069FE204600F01CFB002010BDD9
:1030E0002F6465762F6576656E7400007800002089
:1030F00033B800000346002B02DA0420C0437047B7
:10310000402B02DA0120C043F9E70020F7E710B5B1
:103110000446002C00D110BD20460AF0F5FB00BF8C
:10312000F9E76420704710B50AF0F6F910BDF7B55D
:1031300082B006460F462520C0430190002E02DAD9
:10314000C01005B0F0BD304608F02CFC0546002D3F
:1031500001D1801EF5E72C68207C03280BD1206864
:10316000406B002812D02068436B39462846049AE9
:10317000984701900AE020680069002806D020687E
:10318000036939462846049A984701900198D8E780
:1031900010B504460EF0FEF80EF0DCF8204602F002
:1031A00099FB00F0EDF800F0B3F96168206802F0D7
:1031B000E9F9002010BD000070B505460021C943A3
:1031C0000F4800F0DFFA061E01D0304670BD2846D9
:1031D0000BF0D0FB0446002C04D1094800F072FC2F
:1031E000A01EF3E7002120460BF024FB06462046F4
:1031F0000BF0B2FB024800F065FC3046E6E7000049
:103200002C670020F8B50027791E3A4800F0BAFA7A
:10321000002800D05AE037480C388688C07800284B
:1032200000D153E000250EE0A9003248001D081827
:103230008078EE2805D12803001D2E490C3988809E
:1032400003E0681CC5B2022DEEDB00BF022D00D1E9
:103250003CE03013441C31E0022C00D10024A100DA
:103260002448001D08188078442821D100222146D6
:1032700021480BF025FC012720460BF0B5F900286A
:1032800000D023E01B490C398988080B0003CC21AE
:103290000BF0F9FCCC21AA001648001D1018817013
:1032A00014480C38C078401E12490C39C87006E02A
:1032B0003013A04200D102E0601CC4B2CCE700BFD2
:1032C000002F02D10B480C38868000BF002009492E
:1032D0000C394870074800F0F5FB06480C38807838
:1032E000002803DD0348001F01F02EFA002001F042
:1032F00029FBF8BD2C6700200D200000F8B507461B
:103300000E4615460024002F06D0002E04D0002DB6
:1033100002D02868002802DC1520C043F8BD002137
:10332000C943164800F02EFA0090002801D00098FA
:10333000F4E738460BF01EFB0446104800F0C2FBD1
:10334000002C01D1A01EE9E7A1882868884207DA8D
:10335000A088286020460BF0FFFA1B20C043DDE761
:10336000E378A068C118A2883046FCF7AEFFA088B9
:10337000286020460BF0F0FA0020CFE72C670020F1
:1033800070B51D480078002801D0002070BD1821BC
:103390001948FCF7C2FF18480C3000F0C7FA051EA8
:1033A00001D02846F2E71548FFF7DEFD0BF052F991
:1033B000051E01D02846E9E700210F48083001F03A
:1033C000EBF8051E01D02846E0E701200A49087005
:1033D000084680880413A10007481030405A512144
:1033E000C900884205DA0448C078022801DA0DF0E5
:1033F00035FF0020CAE70000206700206C00002095
:10340000F8B505460E461446002D0CD0002E0AD005
:10341000002C08DD2846FCF7B6FF802803D80120E1
:103420004002844202DD1520C043F8BD1B484078AD
:1034300000280AD019488078401C1849887000215B
:10344000C9431648083001F089F90021C9431348DF
:103450000C3000F097F90090002801D00098E4E7C4
:1034600028460BF087FA0746002F0AD0234632463B
:10347000294638460BF0E2FB009038460BF06CFA18
:1034800006E000232246314628460BF091FA0090D0
:1034900002480C3000F016FB0098C6E720670020B9
:1034A00070B5FFF74FF80446002C00D170BD2069BD
:1034B000FFF7F2FD08E060680546284607F02BFE9E
:1034C0002846FFF724FE00BF204607F02EFE002806
:1034D000F1D0E068FFF71BFEA068FFF718FE0020A0
:1034E000FFF72CFC05480068844202D10020034904
:1034F00008602046FFF70BFE00BFD7E788000020DA
:1035000010B508F031FA04460120E07510BD000046
:1035100070B5FFF717F8044619480068002803D172
:10352000184801F023FA13E0002C11D000BF00BFAF
:103530001548006802210840002806D000F082FBF0
:103540000546294611A002F00DFB00BF204670BDC4
:10355000182002F005F8044609480068002801D147
:103560000748046000BF2460646000BF0020C043BF
:1035700020612046FFF7E2FBFFF79CFD2046E6E7CF
:10358000880000208C000020880100205B25303658
:10359000645D3C453E20796C6F6F7020616C726594
:1035A00061647920696E697465640D0A0000000029
:1035B000F0B585B008F0D8F904468CE00020C0438F
:1035C0000490607D0390204607F0AFFD002814D1E1
:1035D0006068019000F036FB05460E460199886848
:1035E000C9683246281A8A4104DA01988068401B6B
:1035F000049001E00020049000BF00270CE00C20A4
:103600007843E1680858FA00A16888500120FA0060
:10361000A168891888807F1C03988742EFDBA06827
:10362000049A039900F072FB02900298002816DABF
:10363000FEF7B0FC0068042811D000BF00BF2E4880
:10364000006802210840002806D000F0FBFA054679
:1036500029462AA002F086FA00BF05B0F0BD204638
:1036600007F063FD002816D16068054600F0EAFA0D
:1036700001910090EB68AA6801990098801A99411D
:1036800008DB284607F047FD69692869884728460E
:10369000FFF73DFD00BF0298002800DC1BE000277B
:1036A00015E0F900A06840188079C007C00F002815
:1036B0000CD00C237B43E568EB1859680C237B4343
:1036C000E8580C237B43EB189A6890477F1C0398BB
:1036D0008742E6DB00BFE07D002808D1204607F0E6
:1036E00024FD002800D169E7607D0028FBDC002074
:1036F000E07500BFB1E70000880100205B2530368F
:10370000645D3C453E20616F735F706F6C6C0D0AA9
:103710000000000070B5044608F026F905462C614B
:1037200070BD70B504460025002C00D170BD204648
:103730000AF0C8F805462846F8E770B50446204662
:10374000E1170AF0F9F805460AF0FCFD70BD10B566
:103750000446002C00D110BD20680AF031F9206821
:10376000FFF7D5FC0020206000BFF4E701460029E8
:1037700000D170470A68002A01D10020F9E7012032
:10378000F7E700007CB505460E46002D02D1152056
:10379000C0437CBD701C002807D10022D2431346D1
:1037A00028680AF067F904460BE0304600210AF069
:1037B000C3F80191009028680B46009A0AF05AF964
:1037C00004465848844200D10024002C01D1002036
:1037D000DFE72046FF223232A11A944273D02FDC59
:1037E00069287CD014DC09287AD008DC801E03000C
:1037F000FEF7BFFB075D9595625E636495000B283D
:1038000071D064285BD065285AD066286AD150E010
:10381000FF222D32811A904254D008DCC82869D08A
:10382000C92868D0CA2867D0CB2878D149E00129B7
:1038300063D0022962D0032961D004296FD15FE0EF
:10384000FF22F032881A914243D018DC364A881A97
:1038500091423AD00ADC012953D0C32954D0FF3910
:10386000283900294FD0642959D12DE001284CD0A6
:1038700002282BD003282AD0042850D128E0FF2288
:103880002D32811A904225D008DC01283ED06428D0
:103890003DD0C82836D0C92841D13CE001291AD0F2
:1038A000022919D0032937D0042938D130E000BFCC
:1038B00000BF0D20C0436CE700BF00BF00BF00BFCA
:1038C00000BF00BF00BF00BF00BF00BF00BF00BF00
:1038D00000BF00BF00BF00BF1520C04359E705E08F
:1038E00007E000E01BE00A20C04352E70B20C04382
:1038F0004FE700BF00BF00BF00BF00BF00BF00BF59
:1039000000BF00BF00BF00BF00BF00BF00BF00BFBF
:103910000020C0433DE700BF0A20C04339E7002034
:10392000C04336E7850300008C01000070B50646F1
:10393000002E02D11520C04370BD2820FFF7F1FEF4
:103940000546002D02D10B20C043F5E75BA12846B8
:103950000AF02CF80446002C6FD02846FFF7D7FB5E
:10396000FF213231601A8C4275D02FDC692C7DD05A
:1039700014DC092C7BD008DCA01E0300FEF7F9FA4A
:10398000075F98986460656698000B2C74D0642C6F
:103990005DD0652C5CD0662C6BD152E0FF212D31BF
:1039A000601A8C4256D008DCC82C6CD0C92C6BD065
:1039B000CA2C6AD0CB2C7BD14BE0012866D00228E0
:1039C00065D0032864D0042872D162E0FF22F0326F
:1039D000811A904245D018DC394A811A90423CD075
:1039E0000ADC012856D0C32857D0FF3828380028D1
:1039F00052D064285CD12FE001294FD002292DD06C
:103A000003292CD0042953D12AE0FF222D32881A11
:103A1000914227D008DC012941D0642940D0C8292F
:103A200039D0C92944D13FE001281CD002281BD03D
:103A300003283AD004283BD133E03CE00BE000BF40
:103A400000BF0D20C04377E700BF00BF00BF00BF2D
:103A500000BF00BF00BF00BF00BF00BF00BF00BF6E
:103A600000BF00BF00BF00BF152003E007E009E072
:103A700002E01DE0C0435FE70A20C0435CE70B2083
:103A8000C04359E700BF00BF00BF00BF00BF00BF79
:103A900000BF00BF00BF00BF00BF00BF00BF00BF2E
:103AA00000BF0020C04347E700BF0A20C04343E7F0
:103AB0000020C04340E7356000203DE7414F530000
:103AC0008C01000070B50546002D02D11520C043C1
:103AD00070BD28680AF092F804465848844200D124
:103AE0000024002C01D10020F2E7FF213231601ABE
:103AF0008C4273D02FDC692C7CD014DC092C7AD05A
:103B000008DCA01E0300FEF734FA075D9595625E9F
:103B1000636495000B2C71D0642C5BD0652C5AD05B
:103B2000662C6AD150E0FF212D31601A8C4254D0AE
:103B300008DCC82C69D0C92C68D0CA2C67D0CB2C23
:103B400078D149E0012863D0022862D0032861D0EF
:103B500004286FD15FE0FF22F032811A904243D0F7
:103B600018DC374A811A90423AD00ADC012853D037
:103B7000C32854D0FF38283800284FD0642859D1A2
:103B80002DE001294CD002292BD003292AD0042969
:103B900050D128E0FF222D32881A914225D008DC2E
:103BA00001293ED064293DD0C82936D0C92941D148
:103BB0003CE001281AD0022819D0032837D0042865
:103BC00038D130E000BF00BF0D20C04380E700BF08
:103BD00000BF00BF00BF00BF00BF00BF00BF00BFED
:103BE00000BF00BF00BF00BF00BF00BF00BF152067
:103BF000C0436DE705E007E000E01BE00A20C0439A
:103C000066E70B20C04363E700BF00BF00BF00BFF3
:103C100000BF00BF00BF00BF00BF00BF00BF00BFAC
:103C200000BF00BF00BF0020C04351E700BF0A2013
:103C3000C0434DE70020C0434AE700008503000071
:103C40008C01000010B50AF091F910BDFEB50646D2
:103C50000F46002001900090002E01D1401FFEBDB4
:103C60003046FCF790FB01900121890201988842BF
:103C700002D92320C043F2E70021C9432248FFF7BD
:103C800081FD0090002801D00098E8E7304608F058
:103C9000DFFD0446002C04D11B48FFF713FFA01ED4
:103CA000DDE7E76020460BF03FF905461648FFF7D1
:103CB00009FF002D02D11620C043D0E7207C032845
:103CC0000BD120680068002811D020683A463146A0
:103CD000036828469847009009E02068006800289B
:103CE00005D0206829460268204690470090009839
:103CF000002804D0284607F087F90098AFE7284647
:103D000007F044FEABE7000094000020F7B582B056
:103D1000054600240026684608F074FD002802DAF3
:103D2000601E05B0F0BD002001906B4601AA284638
:103D300003990BF00DFB0446002C00DA25E06A46DF
:103D400001A92046049B0DF047FB0446002C1BDB19
:103D5000002114E0CA00501902685209920001AB18
:103D60009A580378DF06FF0E0123BB401A40002A51
:103D700004D00622825E01231A43C280491C0398A4
:103D80008142E7DB361900BF00BF284603990BF0DC
:103D9000AFFA8619684607F031F9002C01DA0020E5
:103DA000BFE73046BDE70000F7B584B0074607F02F
:103DB000DBFD0446002F03DA1520C04307B0F0BD39
:103DC000607D461C0C2171430846FFF7AAFC05469E
:103DD000F000FFF7A6FC0390002D02D00398002806
:103DE00018D100BF00BF2748006802210840002802
:103DF00006D0FFF727FF0146019023A001F0B2FE95
:103E000000BF2846FFF783F90398FFF780F90B20DE
:103E1000C043D3E7002203213846FFF76BF9029035
:103E20000121C90202980843024604213846FFF7DF
:103E300061F9607D401C6075701E0C23584302467A
:103E40002846E168FCF741FAE068FFF760F9E560B1
:103E5000701EC200A1680398FCF737FAA068FFF74C
:103E600056F90398A060701E0C2148432D182F604E
:103E7000069868600598A860207DB84200DA27752A
:103E800000209BE7880100205B253036645D3C45BF
:103E90003E206F7574206F66206D656D6F72790DB1
:103EA0000A000000F7B582B006460F46002F03D186
:103EB0001520C04305B0F0BD07F056FD019020204D
:103EC000FFF72FFC0446002C02D10B20C043F1E782
:103ED000FFF7B8FEF21780195141E160A060049825
:103EE00020616761A66101984068054609E0E168C4
:103EF000A068EB68AA68801A994100DA04E0686853
:103F0000054601988542F2D100BF00BF2868656070
:103F1000206044602C6000BF00BF0020CAE70000A2
:103F20007FB504460D461646002000900190029091
:103F3000039068468480C5800296034948686946B4
:103F400008F027FD04B070BD7800002010B50446CD
:103F5000002C00D110BD206809F020F92068FFF77F
:103F6000D6F80020206000BFF4E70146002900D108
:103F700070470A68002A01D10020F9E70120F7E71D
:103F8000FFB581B006460F46002E01D0002F03D1A9
:103F90001520C04305B0F0BD4C20FFF7C2FB05461D
:103FA000002D02D10B20C043F4E7049800903A465C
:103FB0005BA12846039B09F0DFF80446002C6FD074
:103FC0002846FFF7A4F8FF213231601A8C4275D0E1
:103FD0002FDC692C7ED014DC092C7CD008DCA01EE0
:103FE0000300FDF7C6FF075F97976460656697005B
:103FF0000B2C73D0642C5DD0652C5CD0662C6CD1FE
:1040000052E0FF212D31601A8C4256D008DCC82CBA
:104010006BD0C92C6AD0CA2C69D0CB2C7AD14BE09A
:10402000012865D0022864D0032863D0042871D108
:1040300061E0FF22F032811A904245D018DC394A03
:10404000811A90423CD00ADC012855D0C32856D0B2
:10405000FF382838002851D064285BD12FE001298F
:104060004ED002292DD003292CD0042952D12AE088
:10407000FF222D32881A914227D008DC012940D036
:1040800064293FD0C82938D0C92943D13EE001284E
:104090001CD002281BD0032839D004283AD132E0A2
:1040A0003BE00BE000BF00BF0D20C04372E700BF44
:1040B00000BF00BF00BF00BF00BF00BF00BF00BF08
:1040C00000BF00BF00BF00BF00BF00BF00BF152082
:1040D000C0435FE705E007E000E01BE00A20C043C3
:1040E00058E70B20C04355E700BF00BF00BF00BF2B
:1040F00000BF00BF00BF00BF00BF00BF00BF00BFC8
:1041000000BF00BF00BF0020C04343E700BF0A203C
:10411000C0433FE70020C0433CE73560002039E75B
:10412000414F53008C010000FFB585B005460E4697
:104130001746002D03D11520C04309B0F0BD30460D
:10414000002109F0F9FB0391029008980097019073
:1041500028680B46029A09F075F80446002C00D135
:10416000EBE72046FF223232A11A944273D02FDCB3
:1041700069287CD014DC09287AD008DC801E030072
:10418000FDF7F7FE075D9595625E636495000B2869
:1041900071D064285BD065285AD066286AD150E077
:1041A000FF222D32811A904254D008DCC82869D0F1
:1041B000C92868D0CA2867D0CB2878D149E001291E
:1041C00063D0022962D0032961D004296FD15FE056
:1041D000FF22F032881A914243D018DC354A881AFF
:1041E00091423AD00ADC012953D0C32954D0FF3977
:1041F000283900294FD0642959D12DE001284CD00D
:1042000002282BD003282AD0042850D128E0FF22EE
:104210002D32811A904225D008DC01283ED0642836
:104220003DD0C82836D0C92841D13CE001291AD058
:10423000022919D0032937D0042938D130E000BF32
:1042400000BF0D20C04378E700BF00BF00BF00BF24
:1042500000BF00BF00BF00BF00BF00BF00BF00BF66
:1042600000BF00BF00BF00BF1520C04365E705E0E9
:1042700007E000E01BE00A20C0435EE70B20C043DC
:104280005BE700BF00BF00BF00BF00BF00BF00BFB3
:1042900000BF00BF00BF00BF00BF00BF00BF00BF26
:1042A0000020C04349E700BF0A20C04345E7002083
:1042B000C04342E78C010000F8B505460E4617469C
:1042C000002D01D0002E02D11520C043F8BD3A4682
:1042D0003146286809F062F80446002C00D1F5E761
:1042E000FF213231601A8C4273D02FDC692C7CD0D4
:1042F00014DC092C7AD008DCA01E0300FDF739FE7F
:10430000075D9595625E636495000B2C71D0642CFB
:104310005BD0652C5AD0662C6AD150E0FF212D313C
:10432000601A8C4254D008DCC82C69D0C92C68D0E3
:10433000CA2C67D0CB2C78D149E0012863D0022861
:1043400062D0032861D004286FD15FE0FF22F032F1
:10435000811A904243D018DC354A811A90423AD0F3
:104360000ADC012853D0C32854D0FF38283800284D
:104370004FD0642859D12DE001294CD002292BD0EF
:1043800003292AD0042950D128E0FF222D32881A8F
:10439000914225D008DC01293ED064293DD0C829AE
:1043A00036D0C92941D13CE001281AD0022819D0C1
:1043B000032837D0042838D130E000BF00BF0D20DB
:1043C000C04383E700BF00BF00BF00BF00BF00BF06
:1043D00000BF00BF00BF00BF00BF00BF00BF00BFE5
:1043E00000BF00BF1520C04370E705E007E000E014
:1043F0001BE00A20C04369E70B20C04366E700BF0B
:1044000000BF00BF00BF00BF00BF00BF00BF00BFB4
:1044100000BF00BF00BF00BF00BF00BF0020C043FF
:1044200054E700BF0A20C04350E70020C0434DE7D7
:104430008C010000F7B582B006460F460020C0434D
:104440000190304607F0AEFA0546002D02D1801EDD
:1044500005B0F0BD2C68207C03280BD12068806853
:10446000002812D02068836839462846049A984765
:1044700001900AE020688068002806D020688368E0
:1044800039462846049A984701900198E0E770B5AC
:1044900004460D4600262946204609F03FFA064606
:1044A000304670BDF7B582B00E4617460020019029
:1044B000411E1A48FFF766F90446002C02D0204638
:1044C00005B0F0BD01A9029808F00EFA0546002DCE
:1044D0000DD100BF01200199087400BF019806604A
:1044E0000198476001981430FFF720FA05460B4801
:1044F000FFF7E8FA0446002C0DD0019880680028E8
:1045000003D001998868FEF702FE18210198FBF795
:1045100004FF2046D4E72846D2E70000940000209C
:10452000F8B506460D461746002D02D11520C043AA
:10453000F8BD1420FFF7F5F80446002C02D10B203B
:10454000C043F5E7A5602682E76005480168606022
:1045500021604C60046000BF00BF0020E8E700005D
:104560008000002010B50446002C00D110BD20684A
:1045700009F0CEFB2068FEF7CAFD0020206000BFD6
:10458000F4E70146002900D170470A68002A01D1EA
:104590000020F9E70120F7E7F8B506460F46002EA0
:1045A00002D11520C043F8BD2420FFF7BAF8054614
:1045B000002D02D10B20C043F5E73A465BA1284607
:1045C00009F09AFB0446002C6FD02846FEF79FFDA9
:1045D000FF213231601A8C4275D02FDC692C7DD0DE
:1045E00014DC092C7BD008DCA01E0300FDF7C1FC05
:1045F000075F98986460656698000B2C74D0642CF3
:104600005DD0652C5CD0662C6BD152E0FF212D3142
:10461000601A8C4256D008DCC82C6CD0C92C6BD0E8
:10462000CA2C6AD0CB2C7BD14BE0012866D0022863
:1046300065D0032864D0042872D162E0FF22F032F2
:10464000811A904245D018DC394A811A90423CD0F8
:104650000ADC012856D0C32857D0FF382838002854
:1046600052D064285CD12FE001294FD002292DD0EF
:1046700003292CD0042953D12AE0FF222D32881A95
:10468000914227D008DC012941D0642940D0C829B3
:1046900039D0C92944D13FE001281CD002281BD0C1
:1046A00003283AD004283BD133E03CE00BE000BFC4
:1046B00000BF0D20C04376E700BF00BF00BF00BFB2
:1046C00000BF00BF00BF00BF00BF00BF00BF00BFF2
:1046D00000BF00BF00BF00BF152003E007E009E0F6
:1046E00002E01DE0C0435EE70A20C0435BE70B2009
:1046F000C04358E700BF00BF00BF00BF00BF00BFFE
:1047000000BF00BF00BF00BF00BF00BF00BF00BFB1
:1047100000BF0020C04346E700BF0A20C04342E775
:104720000020C0433FE7356000203CE7414F530085
:104730008C01000010B50446002C00D110BD20688B
:1047400009F036FB00BFF9E710B50446002C00D194
:1047500010BD206809F039FB00BFF9E77CB50546BC
:104760000E46002D02D11520C0437CBD701C0028D0
:1047700007D10022D2431346286809F033FB0446D0
:104780000BE03046002109F0D7F80191009028682D
:104790000B46009A09F026FB0446002C01D10020AC
:1047A000E3E72046FF223232A11A944273D02FDC75
:1047B00069287CD014DC09287AD008DC801E03002C
:1047C000FDF7D7FB075D9595625E636495000B2846
:1047D00071D064285BD065285AD066286AD150E031
:1047E000FF222D32811A904254D008DCC82869D0AB
:1047F000C92868D0CA2867D0CB2878D149E00129D8
:1048000063D0022962D0032961D004296FD15FE00F
:10481000FF22F032881A914243D018DC354A881AB8
:1048200091423AD00ADC012953D0C32954D0FF3930
:10483000283900294FD0642959D12DE001284CD0C6
:1048400002282BD003282AD0042850D128E0FF22A8
:104850002D32811A904225D008DC01283ED06428F0
:104860003DD0C82836D0C92841D13CE001291AD012
:10487000022919D0032937D0042938D130E000BFEC
:1048800000BF0D20C04370E700BF00BF00BF00BFE6
:1048900000BF00BF00BF00BF00BF00BF00BF00BF20
:1048A00000BF00BF00BF00BF1520C0435DE705E0AB
:1048B00007E000E01BE00A20C04356E70B20C0439E
:1048C00053E700BF00BF00BF00BF00BF00BF00BF75
:1048D00000BF00BF00BF00BF00BF00BF00BF00BFE0
:1048E0000020C04341E700BF0A20C0433DE700204D
:1048F000C0433AE78C01000000B5014600200B00E0
:10490000FDF737FB0604120F0C09061500BF0FE078
:104910001022104300BF0822104300BF042210439E
:1049200000BF0222104300BF0122104300E000BF7D
:1049300000BF014A106000BD8801002010B509F0D9
:10494000E9FA10BD10B50446002009F0F7FB10BDD0
:1049500038B504460020009008F08CFD05466A46F4
:10496000214609F0BBFC009838BD00000246012139
:1049700011E0012088400A4B1B681840002809D12B
:1049800001208840064B1B681843054B18601160D6
:1049900000207047491E0029EBDA1520C043F8E7D4
:1049A0009C000020022800D3704701218140034A67
:1049B00012688A4301490A6000BFF5E79C000020A5
:1049C00010B508F057FD406810BD0000FFB587B076
:1049D00007460C461D46002006900121A8080394B6
:1049E000049102900020009020230190394606A8EF
:1049F000099A09F08DFB0646002E01D10BB0F0BDDF
:104A00003046FF223232B11A964273D02FDC692829
:104A10007CD014DC09287AD008DC801E0300FDF766
:104A2000A8FA075D9595625E636495000B2871D0C6
:104A300064285BD065285AD066286AD150E0FF22EE
:104A40002D32811A904254D008DCC82869D0C92878
:104A500068D0CA2867D0CB2878D149E0012963D033
:104A6000022962D0032961D004296FD15FE0FF22BF
:104A7000F032881A914243D018DC364A881A9142A3
:104A80003AD00ADC012953D0C32954D0FF39283940
:104A900000294FD0642959D12DE001284CD002289B
:104AA0002BD003282AD0042850D128E0FF222D3211
:104AB000811A904225D008DC01283ED064283DD0E0
:104AC000C82836D0C92841D13CE001291AD0022992
:104AD00019D0032937D0042938D130E000BF00BFF6
:104AE0000D20C0438AE700BF00BF00BF00BF00BF6A
:104AF00000BF00BF00BF00BF00BF00BF00BF00BFBE
:104B000000BF00BF00BF1520C04377E705E007E006
:104B100000E01BE00A20C04370E70B20C0436DE7B4
:104B200000BF00BF00BF00BF00BF00BF00BF00BF8D
:104B300000BF00BF00BF00BF00BF00BF00BF00201C
:104B4000C0435BE700BF0A20C04357E70020C043D3
:104B500054E700008C010000FFB585B014461D46E7
:104B60000E9F0121B8080394049102900021009146
:104B700001910F98C3B22A460699059809F0C8FA20
:104B80000646002E01D109B0F0BD3046FF22323278
:104B9000B11A964273D02FDC69287CD014DC092826
:104BA0007AD008DC801E0300FDF7E3F9075D9595D8
:104BB000625E636495000B2871D064285BD0652821
:104BC0005AD066286AD150E0FF222D32811A9042D5
:104BD00054D008DCC82869D0C92868D0CA2867D052
:104BE000CB2878D149E0012963D0022962D003297A
:104BF00061D004296FD15FE0FF22F032881A914220
:104C000043D018DC354A881A91423AD00ADC01298F
:104C100053D0C32954D0FF39283900294FD06429F3
:104C200059D12DE001284CD002282BD003282AD0BE
:104C3000042850D128E0FF222D32811A904225D03D
:104C400008DC01283ED064283DD0C82836D0C928C9
:104C500041D13CE001291AD0022919D0032937D0CB
:104C6000042938D130E000BF00BF0D20C0438AE7DF
:104C700000BF00BF00BF00BF00BF00BF00BF00BF3C
:104C800000BF00BF00BF00BF00BF00BF00BF00BF2C
:104C90001520C04377E705E007E000E01BE00A20AD
:104CA000C04370E70B20C0436DE700BF00BF00BFEB
:104CB00000BF00BF00BF00BF00BF00BF00BF00BFFC
:104CC00000BF00BF00BF00BF0020C0435BE700BFC4
:104CD0000A20C04357E70020C04354E78C0100007E
:104CE000F8B504460D4608F0C5FB07462A4621469E
:104CF00009F00DFB0646002E00D1F8BDFF21323130
:104D0000701A8E4273D02FDC692E7CD014DC092EF1
:104D10007AD008DCB01E0300FDF72BF9075D9595EE
:104D2000625E636495000B2E71D0642E5BD0652E9D
:104D30005AD0662E6AD150E0FF212D31701A8E4272
:104D400054D008DCC82E69D0C92E68D0CA2E67D0CE
:104D5000CB2E78D149E0012863D0022862D0032805
:104D600061D004286FD15FE0FF22F032811A9042B7
:104D700043D018DC354A811A90423AD00ADC012827
:104D800053D0C32854D0FF38283800284FD0642887
:104D900059D12DE001294CD002292BD003292AD04A
:104DA000042950D128E0FF222D32881A914225D0C3
:104DB00008DC01293ED064293DD0C82936D0C92954
:104DC00041D13CE001281AD0022819D0032837D05D
:104DD000042838D130E000BF00BF0D20C0438CE76D
:104DE00000BF00BF00BF00BF00BF00BF00BF00BFCB
:104DF00000BF00BF00BF00BF00BF00BF00BF00BFBB
:104E00001520C04379E705E007E000E01BE00A2039
:104E1000C04372E70B20C0436FE700BF00BF00BF75
:104E200000BF00BF00BF00BF00BF00BF00BF00BF8A
:104E300000BF00BF00BF00BF0020C0435DE700BF50
:104E40000A20C04359E70020C04356E78C01000008
:104E500070B586B006460C46002E03D11520C0431F
:104E600006B070BD2046E11708F066FD059104907C
:104E70002046E11708F060FD03910290059904981F
:104E8000019100903068039B029A09F0C1FA05462F
:104E9000002D00D1E4E72846FF223232A91A9542BC
:104EA00073D02FDC69287CD014DC09287AD008DC88
:104EB000801E0300FDF75DF8075D9595625E6364F3
:104EC00095000B2871D064285BD065285AD06628DD
:104ED0006AD150E0FF222D32811A904254D008DC72
:104EE000C82869D0C92868D0CA2867D0CB2878D10B
:104EF00049E0012963D0022962D0032961D0042945
:104F00006FD15FE0FF22F032881A914243D018DC63
:104F1000354A881A91423AD00ADC012953D0C32974
:104F200054D0FF39283900294FD0642959D12DE0B8
:104F300001284CD002282BD003282AD0042850D195
:104F400028E0FF222D32811A904225D008DC01286A
:104F50003ED064283DD0C82836D0C92841D13CE095
:104F600001291AD0022919D0032937D0042938D1B0
:104F700030E000BF00BF0D20C04371E700BF00BF9D
:104F800000BF00BF00BF00BF00BF00BF00BF00BF29
:104F900000BF00BF00BF00BF00BF00BF1520C0435F
:104FA0005EE705E007E000E01BE00A20C04357E7AA
:104FB0000B20C04354E700BF00BF00BF00BF00BFCD
:104FC00000BF00BF00BF00BF00BF00BF00BF00BFE9
:104FD00000BF00BF0020C04342E700BF0A20C0431B
:104FE0003EE70020C0433BE78C01000010B50446BB
:104FF000002C00D110BD206809F074FA0020206058
:1050000000BFF7E7FFB58BB0074616461C46002FDA
:1050100003D11520C0430FB0F0BD1498002816D15D
:105020002046E11708F088FC099108900120002132
:1050300002910496039105900999089801910090B6
:1050400069A138460C9A09F01DFA05461CE0204675
:10505000E11708F071FC099108902046E11708F06B
:105060006BFC079106900120049605900999089819
:105070000391029007990698019100905AA1384631
:105080000C9A09F0FFF90546002D72D02846FF2240
:105090003232A91A954277D02FDC69286BD014DC04
:1050A000092869D008DC801E0300FCF762FF075D59
:1050B0009797665E676897000B2873D064285FD067
:1050C00065285ED066286CD150E0FF222D32811A0F
:1050D000904258D008DCC8286BD0C9286AD0CA28AA
:1050E00069D0CB287AD14DE0012965D0022964D05E
:1050F000032963D0042971D161E0FF22F032881ABC
:10510000914247D018DC394A881A91423ED00ADCD5
:10511000012955D0C32956D0FF392839002951D04B
:1051200064295BD131E001284ED002282FD003281A
:105130002ED0042852D12CE0FF222D32811A904229
:1051400029D008DC012840D064283FD0C82838D0B6
:10515000C92843D13EE001291ED002291DD00329D0
:1051600039D004293AD132E000BF00BF0D20C0433E
:1051700051E736E008E018E01AE000BF00BF00BFCA
:1051800000BF00BF00BF00BF00BF00BF00BF00BF27
:1051900000BF00BF00BF00BF00BF1520C0433AE7FB
:1051A00000E01BE00A20C04335E70B20C04332E794
:1051B00000BF00BF00BF00BF00BF00BF00BF00BFF7
:1051C00000BF00BF00BF00BF00BF00BF00BF002086
:1051D000C04320E700BF0A20C0431CE70020C043B3
:1051E00019E7002017E70000414F53008C01000031
:1051F00070B50546002D02D11520C04370BD28684A
:1052000009F088F90446002C00D1F7E7FF2132317C
:10521000601A8C4273D02FDC692C7CD014DC092CF2
:105220007AD008DCA01E0300FCF7A3FE075D95956D
:10523000625E636495000B2C71D0642C5BD0652C8E
:105240005AD0662C6AD150E0FF212D31601A8C4271
:1052500054D008DCC82C69D0C92C68D0CA2C67D0BF
:10526000CB2C78D149E0012863D0022862D00328F2
:1052700061D004286FD15FE0FF22F032811A9042A2
:1052800043D018DC354A811A90423AD00ADC012812
:1052900053D0C32854D0FF38283800284FD0642872
:1052A00059D12DE001294CD002292BD003292AD035
:1052B000042950D128E0FF222D32881A914225D0AE
:1052C00008DC01293ED064293DD0C82936D0C9293F
:1052D00041D13CE001281AD0022819D0032837D048
:1052E000042838D130E000BF00BF0D20C04385E75F
:1052F00000BF00BF00BF00BF00BF00BF00BF00BFB6
:1053000000BF00BF00BF00BF00BF00BF00BF00BFA5
:105310001520C04372E705E007E000E01BE00A202B
:10532000C0436BE70B20C04368E700BF00BF00BF6E
:1053300000BF00BF00BF00BF00BF00BF00BF00BF75
:1053400000BF00BF00BF00BF0020C04356E700BF42
:105350000A20C04352E70020C0434FE78C01000001
:1053600070B50546002D02D11520C04370BD2868D8
:1053700009F0E8F80446002C00D1F7E7FF213231AC
:10538000601A8C4273D02FDC692C7CD014DC092C81
:105390007AD008DCA01E0300FCF7EBFD075D9595B5
:1053A000625E636495000B2C71D0642C5BD0652C1D
:1053B0005AD0662C6AD150E0FF212D31601A8C4200
:1053C00054D008DCC82C69D0C92C68D0CA2C67D04E
:1053D000CB2C78D149E0012863D0022862D0032881
:1053E00061D004286FD15FE0FF22F032811A904231
:1053F00043D018DC354A811A90423AD00ADC0128A1
:1054000053D0C32854D0FF38283800284FD0642800
:1054100059D12DE001294CD002292BD003292AD0C3
:10542000042950D128E0FF222D32881A914225D03C
:1054300008DC01293ED064293DD0C82936D0C929CD
:1054400041D13CE001281AD0022819D0032837D0D6
:10545000042838D130E000BF00BF0D20C04385E7ED
:1054600000BF00BF00BF00BF00BF00BF00BF00BF44
:1054700000BF00BF00BF00BF00BF00BF00BF00BF34
:105480001520C04372E705E007E000E01BE00A20BA
:10549000C0436BE70B20C04368E700BF00BF00BFFD
:1054A00000BF00BF00BF00BF00BF00BF00BF00BF04
:1054B00000BF00BF00BF00BF0020C04356E700BFD1
:1054C0000A20C04352E70020C0434FE78C01000090
:1054D000F8B504460D4616461F4633462A46214671
:1054E0000248009706F0D0FDF8BD00000C0800202F
:1054F00070B504460D46164633462A4621460248F4
:1055000006F024FE70BD00000C080020F8B505462A
:105510000E461746002411484068044618E0208AC9
:10552000A84200D012E0A068B04200D00EE0E068CF
:10553000B84200D00AE000BF20686168416008609E
:1055400000BF2046FDF7E3FD0020F8BD606804467B
:1055500002488442E3D11520C043F6E780000020D2
:1055600070B504460025002C00D170BD204608F01F
:10557000A9F90546002D03D021462846FAF7CDFEAD
:105580002846F2E770B504460D460A48FDF7ECFCE4
:1055900000BFFEF757FB0646314607A000F0E2FACF
:1055A00000BF294620460BF029FFFEF701F8002036
:1055B00070BD0000A00000205B253036645D3C56C5
:1055C0003E20506C6561736520656E746572206362
:1055D0006F6D6D616E642076696120434C493A209D
:1055E0000D0A0D0A0000000010B50AF023FB10BDE3
:1055F000FEB504460E4615461F4600BF002C01D1DD
:105600000620FEBD00BF00BF002D01D10620F8E737
:1056100000BF00BF002E01D10620F2E700BF0898AE
:10562000002801D10520ECE7002F01D11A48E8E756
:1056300000BF2460646000BF256100206063A06338
:1056400008982063A6600020207348210998085517
:1056500000BFFAF73FFD019000BF104920464030DF
:105660004A68426001604A681060486000BF00BF3D
:105670000198FAF733FD00BF04206073089800908A
:105680003A462946204614300A9B0AF090F8606A90
:10569000E0630020B5E70000BD020000505B002081
:1056A000F7B584B00446154600BFFAF713FD039022
:1056B00000BF607B042807D000BF0398FAF70EFDF7
:1056C00000BF082007B0F0BD00BF00200190206B94
:1056D000A84206D200BF0398FAF700FD00BF284891
:1056E000F0E7002D06D100BF0398FAF7F7FC00BFE2
:1056F0000520E7E70294029807F063F9002829D013
:105700002A462046143005990AF025F90746002F4D
:105710000AD000BF0398FAF7E1FC00BF6A2F01D15D
:10572000174F7F1E3846CDE7606B401C6063616B8E
:10573000A06B884201D2606BA063E16B606A81421A
:1057400001D9606AE06300BF0398FAF7C7FC00BFA5
:105750000020B7E7029800680646183E2A46F06C1B
:105760000599FAF7B2FD3565304609F031FD00BF05
:105770000398FAF7B3FC00F05DF900BF0020A1E741
:10578000BF02000010B504460023DB4300220121C4
:105790002046FFF79DFE002801D1012010BD00200A
:1057A000FCE7000070B5064657E000253348016865
:1057B000FF310D310068FF30113006F00BF9002881
:1057C0004AD02E4800680546FF3511352B48006841
:1057D000FF301130FAF7D7FD002823D02749096898
:1057E00005225202891849690902244A1268244B89
:1057F000D2188818FF22013220490968FF3111317F
:10580000FAF7AAFD1D49096805225202891849695B
:10581000481C0521FAF7D8FC1848006805225202F6
:1058200080184161284606F011FD0446012C03D181
:10583000284609F0EDFD04E0022C02D111A0FDF78D
:105840005FFB13A0FDF75CFB0020124908701249B2
:10585000087012A0FDF754FB00BF11480068002833
:10586000A3D010A0FDF74CFB04480068FDF74FFCE7
:10587000002002490860FFF765F870BD9C01002018
:10588000180A000073796E746178206572726F7205
:105890000D0A0000E86B0020A40100202320000076
:1058A000A0010020434C49206578697465640D0AA5
:1058B0000000000070B504462078002808D020467B
:1058C000FAF761FD0546002229462046FFF710FE43
:1058D000002070BD10B50446207A002801D0FDF7E5
:1058E000A9FA10BD70B505460E462C683300FCF7CA
:1058F00040FB088605243550865D70863C20005D9F
:10590000052800D07FE03D20005D012800D17AE02D
:105910003E4BA16AE06A0CCB89185841A161E06155
:10592000E16AA06A616220623948A06021460BF0FA
:10593000F1FB01213D20015565E03C20005D05287B
:1059400000D060E03D20005D002800D15BE02046F3
:105950000BF00CFC00213D20015554E00023A96808
:105960005940E8685840014300D14CE03C20005DBC
:10597000052800D047E03D20005D002800D042E02F
:10598000E968A868E162A0626969286961632063C7
:1059900039E03C20005D052800D034E03D20005D6A
:1059A000002800D02FE0286960612CE03C20005DD9
:1059B000052800D027E03D20005D002800D022E02F
:1059C0003E20005D012800D01DE000213C20015553
:1059D00019E03C20005D052800D014E03D20005D6A
:1059E000002800D00FE03E20005D022800D00AE031
:1059F00000213C200155204607F086FF03E00120EE
:105A000007F004F800BF00BF70BD00005800002080
:105A10005000002008B50648009004E00098401EA1
:105A20000090FBF763FB00980028F7D108BD000049
:105A300000350C0070B5FAF74DFB054600BF00209D
:105A400004461348005D002803D02846FAF746FBB9
:105A500070BD1048005D002803D02846FAF73EFBD1
:105A6000F6E721460C4809F0C5FCA0000B49085890
:105A7000A1000B4A5158884203D12846FAF72EFB61
:105A8000E6E7FAF72EFB2846FAF728FB00BFDFE728
:105A90002C0000202B000020305800203000002077
:105AA00034000020F0B504468E003519ED08ED00F5
:105AB000284601263606071F38463E60061F304638
:105AC00033601C4E071F38463E601B4E071F38468A
:105AD0003E601A4E071F38463E60194E071F384673
