:020000040000FA
:10000000607C002081010000890100008B0100005C
:1000100000000000000000000000000000000000E0
:100020000000000000000000000000008D01000042
:10003000000000000000000019010000351B000056
:100040009301000093010000930100009301000060
:100050009301000093010000930100009301000050
:1000600093010000591B0000691B0000791B000070
:10007000891B0000991B0000A91B000093010000D0
:100080009301000093010000930100009301000020
:100090009301000093010000930100009301000010
:1000A0009301000093010000930100009301000000
:1000B0009301000093010000ED0E0000000000001D
:1000C0000348854600F0BCFC004800470DBF000017
:1000D000607C0020EFF3108072B6704780F31088C8
:1000E000704721482149016070471F481F4901603E
:1000F00070471F4802681F490A430260002080F3CE
:100100000988EFF30880C008C00080F3088816480B
:100110001649016062B6FEE772B6EFF30980002867
:100120000ED02038F0C044464D4656465F46F0C0DB
:10013000203811490968086074460BF0B9F8A646E2
:100140000D480E490A6802601068F0C80CC8904655
:1001500099460CC892469B4680F309887046042154
:100160000843864662B6704704ED00E000000010C8
:1001700020ED00E00000C0C0480000204400002046
:100180000448804704480047FEE7FEE7FEE7FEE735
:10019000FEE7FEE7491B0000C100000030B50B463A
:1001A000014600202022012409E00D46D5409D4251
:1001B00005D31D469540491B2546954040191546D7
:1001C000521E002DF1DC30BD70B5002425460028FC
:1001D00001DA01244042002901DA01254942FFF7F2
:1001E000DDFFAC4200D04042002C00D0494270BD3F
:1001F000F0B51FB40646002082B0054640240191A8
:1002000000901BE0019922460F46304600F020FB8B
:10021000049A059B801A994110D31046194622462C
:1002200000F006FB361A8F4101972246012000217B
:10023000009F00F0FDFA38184D4100902046641EE2
:100240000028DFDC019B00982946324607B0F0BD4C
:10025000F0B51FB486B0002000900190029006987F
:10026000069980B204900798090C02040014114307
:1002700007900027089D099806913E463C4603904A
:100280000398A9B20204000C039004982D0C1543A6
:1002900048430021224600F0CBFAC71971411034BF
:1002A0000E46402CECDB3846029A00F0C1FA009A68
:1002B000019B8018009059410298019110300290E2
:1002C0004028CCDB00980BB0F0BD10B5441A0346B3
:1002D000944209D28318891803E0491E0C785B1EEA
:1002E0001C70521EF9D210BD0C460443A40703D063
:1002F00009E010C9121F10C3042AFAD203E00C78D7
:100300001C70491C5B1C521EF9D210BDD2B201E018
:100310000270401C491EFBD270470022F6E710B560
:1003200013460A4604461946FFF7F0FF204610BD63
:1003300030B505462A460B4610781C78521C5B1CCB
:10034000002801D0A042F7D0002C03D0002802D012
:100350006D1CEFE7284630BD10B5044605E00B786C
:100360000370401C002B00D0491C521EF7D22046BF
:1003700010BDCAB2401E4178401C8A4202D00029FA
:10038000F9D100207047421C0178401C0029FBD1A4
:10039000801A704710B5002200E0521C835C8C5C10
:1003A000A34201D1002BF8D1D8B2E1B2401A10BD5E
:1003B00030B504460020034600E05B1C934203D2A4
:1003C000E05CCD5C401BF8D030BD03460A7802707B
:1003D000401C491C002AF9D11846704730B5054623
:1003E0000020034600E05B1C934205D2EC5CC85C35
:1003F000201A01D1002CF6D130BD0246C9B200E06E
:10040000401C0378002BFBD102E003788B4203D021
:10041000401E9042F9D20020704770B502464A4013
:10042000D50F40004A00ED0740085208002814D0BC
:10043000002A12D0C40DD30D41020120C005520282
:10044000490A520AE41A091812187D34914201D35C
:10045000641C00E04900002C01DA002070BD00237C
:10046000914201D3891A0343400849000028F7D17B
:1004700000290AD0914202D10121C90705E0914229
:1004800001D2012101E00121C943E005C018401952
:1004900000F002FA70BD0000F0B50746084658406B
:1004A00087B0C00F049048000E4659004008490824
:1004B000BC1A884105D2384631461E4617460B46BF
:1004C00002465800400810434CD0300D03904005C0
:1004D0005900400D490D0590401A0290402872DAEB
:1004E00018030121000B09050843019004980092AC
:1004F000002805D0019952420020884100920190C5
:10050000029840210A1A0199009800F091F90546D5
:100510000C466B4607CB00F0ACF9C0197141039A49
:100520000E0D0023D71756401A467A40164344D082
:10053000049A002A2DD0029A012A039A15DC12058A
:10054000C01A914101263605001C7141D20F059E4B
:10055000D2070093019202962A46234600F0EAF958
:1005600007B0F0BD38463146FAE71605224A0F4675
:10057000B218C01AB74101210905001C4F410018EB
:100580007F41114618187941E20F10436D196441FB
:1005900013E0E2076D0815436408C2071443039A89
:1005A00001261205C01A91413605001C7141CE0783
:1005B000400830434908C01851412A46234600F0FC
:1005C000ACF9CDE7FFE7049801224000C117121AE9
:1005D00000238B4104983146C417381AA141EEE735
:1005E00030B40124E407634030BC55E730B4012443
:1005F000E407614030BC4FE70000E0FFF0B51FB4F6
:1006000088B00B990998002448400999C00F490007
:1006100049080991C0070B990090490049080B91BE
:1006200009990898A64608431CD00B990A980843D4
:1006300018D0099801244000420D4800410D099846
:1006400024050003000B204309900B980003000BC6
:1006500020430B9050181C4940180022019014466A
:10066000104605E0002001460DB0F0BD032801DA78
:10067000034600E003239C46C11A0AAE0AE05F006D
:1006800008ADED5B4F00F75B7D430027AA187C4166
:10069000491C5B1E6145F2DD410004AB5A52210446
:1006A000120C0A43240C401C0828DFDB019802903E
:1006B0000099704601910090059B049A079906984D
:1006C00000F038F9D0E700000DFCFFFFF0B50C4654
:1006D0005C4085B0E40FE40703944C0000266408F6
:1006E00059009446490802460296224321D06246A8
:1006F0000A431ED06200570D4A000E032303550D16
:10070000012402462C492405781B1B0B360B40188C
:1007100023432643614600901C46501AB44103D33C
:100720000098401C009002E0921800985B4100285D
:1007300003DA0020014605B0F0BD002001210905C3
:100740000746864611E064461D46141BB54106D394
:100750006546521BB341744607430C43A646CD077A
:1007600040084908284392185B4105460D43EAD1E9
:100770001046184313D06046194650407140084354
:1007800006D06046101AB34106D20122002306E0CB
:1007900000220123DB0702E00122D243531000981C
:1007A00074460105381C6141029C039D0019694192
:1007B00000F0B3F8BFE70000FD03000010B5002211
:1007C0009623114600F070F810BD00004A0009039E
:1007D0000123090B1B051943094B10B5520D9A4211
:1007E00001DA002010BD064B34339A4203DC9A1A1A
:1007F00000F02EF810BD03495118884010BD0000CC
:10080000FF030000CDFBFFFFC20FD20740004008EE
:100810000BD0C10D0723DB01C91840020905400AAE
:100820001143C2084007114370470020014670473A
:1008300010B5202A04DB0146203A9140002010BD6B
:10084000914020239C1A0346E3401943904010BD79
:1008500010B5202A04DB0846203AD040002110BD04
:100860000B46D340D0402024A21A91400843194699
:1008700010BD10B5202A06DBCB170846203A1041E0
:10088000C1170B4306E00B461341D0402024A21AA7
:1008900091400843194610BD002904DA401C490064
:1008A00001D140084000704770B40024050C05D108
:1008B0001024000402D1002921D01124050E01D1F9
:1008C00000020834050F01D10001241D850F01D15C
:1008D0008000A41C002801DB4000641C002908D013
:1008E00020252E1B0D46F540A14000D001212943B3
:1008F000084301061B1B000ADB1D02D5002070BC4B
:100900007047DB05181880180029F8DA401C4900E8
:10091000F5D170BC40084000704710B5002B08DAD4
:100920000024401C614192185B411A4301D14008E8
:10093000400010BDF0B51FB482B005460C0003D0D6
:10094000084601F0C9FA02E001F0C6FA203002467A
:10095000009021462846FFF76BFF049B059A04464A
:100960000F4618431143084314D0184610431BD0B8
:10097000009840210A1A18460599FFF769FF0546B5
:100980000E46009A05990498FFF752FF084305D0D8
:10099000012004E02046394607B0F0BD0020C11711
:1009A00005430E432C43374300990E986305401AC4
:1009B0007905E40A00220C43FD0A0A3002D5002022
:1009C0000146E9E70105101969410C9C0D9D0019CC
:1009D0006941FFF7A2FFDFE74A0009030123090B82
:1009E0001B0519430A4B10B5520D9A4202DA00203A
:1009F000014610BD064B34339A4203DC9A1AFFF7C6
:100A000027FF10BD034BD218FFF712FF10BD0000E7
:100A1000FF030000CDFBFFFF10B5002904DB01241C
:100A2000E40740428C412146002B04DB1C46012395
:100A3000DB075242A341994200D1904210BD000011
:100A4000064C0125064E05E0E36807CC2B430C3C21
:100A500098471034B442F7D3FFF736FBD8E70000CD
:100A6000F8E7000070B58C180578401C6B075B0F29
:100A700001D10378401C2A1106D10278401C03E002
:100A800006780E70401C491C5B1EF9D12B0705D45B
:100A90000023521E0DD40B70491CFAE70378401C4A
:100AA000CB1A921C03E01D780D70491C5B1C521E72
:100AB000F9D5A142D8D3002070BD00000649012815
:100AC00004D04868400840004860704748680122E8
:100AD0001043486070470000002801400649012883
:100AE00004D0086840084000086070470868012288
:100AF0001043086070470000002801407FB506469B
:100B00000D4614466A462946304600F0B3F900986F
:100B1000A8421FD16846C07900281BD1E00703D145
:100B200068464079002815D1E00703D0684640792F
:100B300001280FD1A00703D468468079002809D185
:100B4000A00703D568468079012803D1684600795B
:100B500002281AD0029500216846C173E2070120DD
:100B6000002A06D06A465073A20705D468468173EE
:100B700004E06A465173F7E76946887302206946C4
:100B8000087302A9304600F0D9F97FBD034800215F
:100B9000016041604161C161704700000010004088
:100BA000044A516949084900C007C00F0843506111
:100BB0007047000000100040044A516903231B02E3
:100BC00099431840084350617047000000100040EE
:100BD000034A516902239943184008435061704702
:100BE0000010004010B504460020FFF7E5FF01208B
:100BF000FFF7D6FF094800F037F8094800F034F84D
:100C00000849216000E000BF00F00EF80128FAD189
:100C100000F014F8002000F027F810BD9696969684
:100C2000EAEAEAEACDAB34120348006AC00701D011
:100C3000012070470020704700100040014901204A
:100C400008627047001000400348006A800701D521
:100C50000120704700207047001000400149022029
:100C60000862704700100040014988617047000029
:100C700000100040044A1168890889008007800F2D
:100C8000084310607047000000100040F0B50546B2
:100C90000E4617460220FFF79BFF0F48FFF7E4FFC1
:100CA0000E48FFF7E1FF00240FE00220FFF790FF5E
:100CB000305D28706D1C00E000BFFFF7C5FF002805
:100CC000FAD0FFF7CBFF641CA4B2BC42EDD30020E6
:100CD000FFF7CAFFF0BD0000A5A5A5A5F1F1F1F150
:100CE00070B505460022002001231C4684400C42BA
:100CF00001D0024602E0401C1028F6D300202F4EFF
:100D00002E49AC1B6031B54229D00EDC2C4C2C197D
:100D10001DD0202C1BD0402C06D1096B5207520F3E
:100D20009340194200D0012070BD202C21D0402CCE
:100D300028D0602CF8D1022A3AD0541F032CF3D8C3
:100D4000096B521E93401942EED0012070BDC96A52
:100D50005207520F93401942F8D0012070BD0A2A61
:100D6000FCD8096B5207520F93401942F6D001206C
:100D700070BD921E072AFBD8496B93401942F7D0E9
:100D8000012070BD541E062C07D8496B5207520F24
:100D900093401942F5D0012070BD1446083C032C45
:100DA000FAD8496B121F93401942F5D0012070BD4B
:100DB000096B08221142FAD0012070BD600C00407E
:100DC00000F4FFBF30B500220023012425469D40DA
:100DD0000D4201D01A4602E05B1C102BF6D3234DC6
:100DE0002249431B6031A84220D00BDC204BC018A5
:100DF00017D0202815D0402803D15007400F844039
:100E00000C6330BD202B18D0402B1CD0602BF8D1A8
:100E1000022A28D0501F0328F3D8521E94400C6396
:100E200030BD5007400F8440CC6230BD0A2AFCD848
:100E30005007400F84400C6330BD921E072AFBD838
:100E400094404C6330BD501E062804D85007400F14
:100E500084404C6330BD104608380328FAD8121F6E
:100E600094404C6330BD0820086330BD600C0040E6
:100E700000F4FFBF70B5002301252C469C400C40B8
:100E8000002C02D15B1C102BF7D3102B20D2116049
:100E900006680E40DE400024012E1AD0D471466848
:100EA0000E40DE40012E16D0947186680E40DE4062
:100EB000012E12D05471C0685900C8408007800FBD
:100EC00000280CD001280CD002280CD0032010716F
:100ED00070BDD571E3E79571E7E75571EBE71471E4
:100EE00070BD157170BD0220107170BD38B5002045
:100EF0000090104C694620780BF0F4F9052817D0C3
:100F000020780D4D0007800E29580098FFF7E8FE65
:100F100001280DD120780007800E29580098FFF78E
:100F200051FF6168002903D0A068002800D08847DD
:100F300038BD00000400002034E2000070B500223B
:100F40000126334693400C681C409C421AD1046829
:100F50009C43CD7995402543056044689C438D7939
:100F600095402543456084689C434B7993402343D7
:100F7000836054000323A340C5689D430B79A340BD
:100F80002B43C360521C102ADBD370BD02490148B9
:100F9000086070475A5A341200140140044A5168DC
:100FA000890889008007800F08435060704700005F
:100FB0000014014005490422012803D048689043E9
:100FC000486070474868104348607047001401400B
:100FD00010B50121054800F08FFAFFF7D7FF022076
:100FE000FFF7DCFF0020FFF7E5FF10BD0500000163
:100FF00070B5114C012100228902204600F090F9C1
:1010000000226115204600F08BF90B4D002220359F
:10101000E113284600F084F900222114284600F04C
:101020007FF9012211462046FFF768FD01220221C7
:101030002046FFF763FD70BD200C00401FB5FF2068
:10104000F4300090002002900190694608736846D1
:1010500000F0CFFA002000F09BFA1FBD10B501216F
:10106000604800F049FA5F480121153800F044FA61
:101070005C480121163800F03FFA5A480121173820
:1010800000F03AFA57480121183800F035FA55486F
:101090000121193800F030FA524801211A3800F0C5
:1010A0002BFA504801211B3800F026FA4D48012147
:1010B0001C3800F021FA4B4801211D3800F01CFAC1
:1010C000484801211E3800F017FA0121080600F0F7
:1010D00013FA0121444800F00FFA43480121401E51
:1010E00000F00AFA40480021801E00F005FA3E4850
:1010F0000021C01E00F000FA3B480121001F00F053
:10110000FBF939480121401F00F0F6F9364801216A
:10111000801F00F0F1F934480121C01F00F0ECF904
:101120000121480600F0E8F90121304800F0E4F917
:101130002E480121C01F00F0DFF92C48012108389A
:1011400000F0DAF9294801210A3800F0D5F92748DA
:1011500001210B3800F0D0F9244801210C3800F0AF
:10116000CBF9224801210D3800F0C6F91F480121B2
:101170000E3800F0C1F91D4801210F3800F0BCF90C
:101180001A480121103800F0B7F918480121163823
:1011900000F0B2F915480121173800F0ADF903202D
:1011A0000121000600F0A8F90121114800F0A4F97E
:1011B0000F480121401E00F09FF90D480121801EBB
:1011C00000F09AF90A480121C01E00F095F908487C
:1011D0000121001F00F090F90121880600F08CF930
:1011E00010BD00001F0000010800000218000003ED
:1011F0000500000430B587B0002405940125684639
:10120000057605A800F03AFA00940194029403943C
:1012100068460574447400F09FFA07B030BD10B5FD
:101220000020FFF727FDFFF709FFFFF7E3FFFFF7B8
:1012300015FF002000F054F90120FFF74FFC0020BB
:10124000FFF73CFC012000F09CFA10BD70B5014690
:101250000948FEF7A3FF0949401E094C07258842AB
:1012600007D860610321081F00F038F80020A06152
:101270002561256170BD000000127A00FFFFFF00AC
:1012800000E000E010B572B6FFF7A2FEFFF77EFEA9
:1012900003F09CFEFFF7C3FF012000F0FBF80948B4
:1012A000012101704B21C90141600321017200211C
:1012B000C172417281720221017308F0DBFB62B6D8
:1012C00010BD0000B4080020C106C90E01208840EE
:1012D000014908607047000080E100E08307FF22B9
:1012E000DB0E9A408907090E994000280BDA0007A7
:1012F000000F0838830808489B001818C3699343F7
:101300000B43C3617047830804489B0018180368A7
:1013100093430B430360704700ED00E000E400E0FE
:101320007FB506460D4614466A4629463046FFF705
:10133000A1FD0098A84217D16846C079002813D1B2
:10134000002C03D16846407900280DD1012C03D12F
:1013500068464079012807D168468079002803D182
:101360006846007901280FD0029500216846C173B4
:101370000120002C09D06A4650736A46917310739D
:1013800002A93046FFF7DAFD7FBD6A465173F4E7E4
:1013900030B502460020D06010611060506090604F
:1013A00000F04AF9012806D100F032F9000C384962
:1013B000401C4843D06000F0E1F87D240125240260
:1013C000ED0301280DD100F0F3F8400801282FD0DB
:1013D00002282FD02B4600F0B9F8000C401C5843CF
:1013E000106100F0A5F9002827D0012828D0022894
:1013F00028D0032828D0D068106000F049F9000AEE
:10140000042824D0052826D0062828D007282AD04A
:101410001068506000F050F9000C042827D005280F
:1014200029D006282BD007282DD05068906030BDD9
:101430002346D0E7D068030ACDE7D0681060DCE728
:101440001460DAE71560D8E710691060D5E7106816
:1014500040085060DEE7106880085060DAE71068E6
:10146000C0085060D6E7106800095060D2E75068A5
:101470004008906030BD50688008906030BD506872
:10148000C008906030BD50680009906030BD000019
:1014900000127A0000B5114A012812D00F494039D4
:1014A000022810D0032810D0042810D01068C2439E
:1014B000010C92B291420CD14006400E00F0D6F8D9
:1014C00000BD1068F3E7C86BF1E7886BEFE7486B86
:1014D000EDE7402000F0CAF800BD000040FDFF1F0E
:1014E000044A516849084900C007C00F08435060CA
:1014F000704700004002004010B500220F231B0679
:10150000FF24034024061B1910D01B1911D01B19EE
:1015100012D0E34200D10C4A002A06D001238340B6
:1015200000290CD010681843106010BD064A0C3A10
:10153000F2E7054A083AEFE7034A121FECE71068A2
:101540009843106010BD00003402004002488069DA
:101550000249084070470000000200400000FF03FD
:10156000044A9169044B1940DB43184008439061D9
:101570007047000000020040FFFF00FC0348806944
:10158000C00701D0012070470020704700020040D2
:101590000649012804D088694008400088617047E6
:1015A00088690122104388617047000000020040F2
:1015B0000248806906210840704700000002004090
:1015C000034A916906239943184008439061704784
:1015D00000020040034A91690823994318400843D8
:1015E000906170470002004000B50004FFF7B8FFAB
:1015F00000BD10B504462068FFF7F6FF6068FFF7EE
:10160000E9FFA068FFF7DCFF207BFFF7C1FF10BDFB
:1016100002480069032109040840704700020040A5
:10162000044A116903231B049943184008431061BD
:10163000704700000002004003480069C00701D065
:101640000120704700207047000200400649012831
:1016500004D0086940084000086170470869012209
:101660001043086170470000000200404006024934
:10167000400E4861704700000002004010B504466B
:101680002068FFF7CDFF2079FFF7E0FF10BD0000D5
:101690000248C06807210902084070470002004064
:1016A000044AD16807231B02994318400843D060BD
:1016B00070470000000200400248C068072109048A
:1016C0000840704700020040044AD16807231B0409
:1016D000994318400843D060704700000002004062
:1016E000034AD168D303994318400843D060704738
:1016F000000200400649012804D0C86840004008A4
:10170000C8607047C8680122D2071043C86070479C
:101710000002004005490A04012803D0C86890432C
:10172000C8607047C8681043C86070470002004036
:101730000248C0688007800F704700000002004028
:10174000044AD168890889008007800F0843D06067
:10175000704700000002004010B504462068FFF703
:10176000EFFF6068FFF79CFFA068FFF7ADFFE06840
:10177000FFF7B6FF207CFFF7CDFF607CFFF7BAFFD5
:1017800010BD10B5012818D0002000F079F8002015
:1017900000F068F8002000F058F8002000F048F849
:1017A000002000F038F8002000F028F8002000F0B9
:1017B00018F8002000F008F810BD012000F060F8D3
:1017C000012000F04FF8E5E7012189078A1501287B
:1017D00003D04868904348607047486810434860A9
:1017E0007047012189074A15012803D048689043B2
:1017F0004860704748681043486070470121890776
:101800000A15012803D0486890434860704748682B
:1018100010434860704701218907CA14012803D08A
:101820004868904348607047486810434860704774
:10183000012189078A14012803D048689043486031
:1018400070474868104348607047012189074A146F
:10185000012803D0486890434860704748681043A7
:101860004860704701218907012804D04868400872
:101870004000486070474868012210434860704744
:10188000012189070222012803D04868904348605B
:1018900070474868104348607047000070B50446C0
:1018A0000D461646052C15D8284601F0EBFD0146DD
:1018B00018204443084801512418A5800025E580DC
:1018C00025816581304601F0DDFDE060268265827C
:1018D000A582E58270BD000024080020182148433D
:1018E00001494018C08A70472408002070B50528B7
:1018F0001AD81821184A41438C186289A38880009D
:10190000164900259A4210D2085800F02FFA218972
:101910004A1C2281226850542089A188884200D321
:1019200025816089401C608170BD085800F01EFA56
:1019300021894A1C2281226850542089A18888422A
:1019400000D32581E088401C80B2E080A1888842D5
:10195000EAD3E58070BD00002408002010000020BC
:1019600010B505281BD81821104A41438C180C3497
:10197000618980000E4A002912D0E188A38899422B
:1019800001D30021E180E38821681058C95C00F090
:1019900017FA6089401E6081E088401CE08010BD1D
:1019A00010580022012100F093F910BD24080020F6
:1019B00010000020F7B51546002618214843254998
:1019C00044182189E08881421ED8A188091A8FB263
:1019D000AF4200D92F466189B94200D20F46216833
:1019E0003A4609180198FEF770FCE088C01980B2E9
:1019F000E080A188884201D30020E0806089C01B7C
:101A00006081BEB2E81B85B2002D21D02089E1881B
:101A100088421DD9401A80B2A84200D80546608984
:101A2000A84200D2054601988019226851182A461A
:101A3000FEF74BFCE088401980B2E080A188884224
:101A400001D30020E0806089401B6081701986B25C
:101A500030B2FEBD24080020F7B582B0154600263E
:101A60000191029818214843304944180C342189C7
:101A7000E088814220D3A288501A80B2A84200D9BF
:101A800028466389D21A824200DA104687B220685B
:101A90003A4640180199FEF718FC2089C01980B217
:101AA0002081A188884201D3002020816089C0194B
:101AB0006081BEB2E81B85B2002D22D0E088228969
:101AC000801A80B2A84200D80546A0886189401AD1
:101AD000A84200DA0546ADB2019881192068801845
:101AE0002A46FEF7F2FB2089401980B22081A188A6
:101AF000884201D3002020816089401960817019DB
:101B000086B202980A4D84002859012100F0CCF8D1
:101B1000002808D12859012100F067F9012228592D
:101B2000114600F0D5F830B205B0F0BD2408002011
:101B30001000002010B509F0B9F809F0C7FD09F050
:101B4000C3F8FFF723FA10BD024901480860704747
:101B500000127A000000002010B50249002000F0B9
:101B60004DF810BD0C20014010B50249012000F0D5
:101B700045F810BD2C20014010B50249022000F0AC
:101B80003DF810BD4C20014010B50249032000F083
:101B900035F810BD6C20014010B50249042000F05A
:101BA0002DF810BD8C20014010B50249052000F031
:101BB00025F810BDAC20014070B50C46FEF7FEFDC7
:101BC00005462046FEF7FAFD2946FEF726FC7F2152
:101BD000C90588420CDDFEF717FE0022054BFEF713
:101BE000FFFC0022044BFEF757FCFEF7EFFD70BD33
:101BF000002070BD0000F03F0000E03F70B50546DA
:101C00000C460121204600F07BF8002802D028462F
:101C1000FFF7A6FE0021204600F072F8002802D04F
:101C20002846FFF763FE70BD70B506460C46304689
:101C3000616800F0BBF83046A16800F0A5F82546C1
:101C400020352978304600F06FF83046216900F0E1
:101C5000C5F8217B304600F08CF83046616900F011
:101C6000CFF83046E16900F0A4F822780021304630
:101C700000F02EF862780121304600F029F86978EA
:101C8000304600F05CF8A978304600F063F8617BDC
:101C9000304600F080F8217E304600F0A6F8617EE4
:101CA000304600F090F870BD074A801800090029FE
:101CB00000D1401C0549096801228240114201D02F
:101CC0000120704700207047F4DFFEBF0020014074
:101CD000094BC0180009002900D1401C0121074B05
:101CE000012A04D01A6881408A431A6070471A6832
:101CF00081400A431A607047F4DFFEBF00200140B4
:101D0000074A80180009002900D1401C054949688C
:101D100001228240114201D001207047002070470B
:101D2000F4DFFEBF002001400422012903D0C16975
:101D30009143C1617047C1691143C161704702227B
:101D4000012903D0C1699143C1617047C169114341
:101D5000C1617047012904D0C16949084900C161C6
:101D60007047C16901221143C16170478068C0B2E8
:101D700070472022012903D0016891430160704718
:101D800001681143016070470268C0239A431940FB
:101D90001143016070471022012903D0016891436B
:101DA00001607047016811430160704789B20161A9
:101DB000704742690C239A431940114341617047AF
:101DC000C9B2C16070470822012903D0416891431C
:101DD0004160704741681143416070474268402349
:101DE0009A4319401143416070471022012903D0E2
:101DF00041689143416070474168114341607047B9
:101E0000426820239A431940114341607047000003
:101E10000FB410B5024604A9034B039800F016FB5B
:101E200010BC08BC04B01847BD9500000FB410B535
:101E300003A9044B044A029800F008FB10BC08BC3C
:101E400004B01847BD950000180600200FB41CB55B
:101E50000A46521E0192009007A9064B6A46069850
:101E600000F0F4FA009A002111701CBC08BC04B008
:101E7000184700001D2C00000FB410B504A9074B33
:101E800002AA039800F0E2FA044602A9002000F03A
:101E9000D0FE204610BC08BC04B01847332C00000C
:101EA00010B5024B024A00F0D1FA10BDBD950000FA
:101EB000180600207CB51C461546491E019100906D
:101EC000044B6A462146284600F0C0FA009A0021D9
:101ED00011707CBD1D2C00002021020C01D01021AE
:101EE0001046020A01D010460839020901D01046F6
:101EF000091F820801D01046891E420801D0881EA1
:101F00007047081A704730B47446641E2578641C04
:101F1000AB4200D21D46635D5B00E31830BC18473E
:101F2000FEE70000004870472006002070B5044618
:101F30000E463046FEF727FA0146E0780A25ED43C3
:101F4000814201D0284670BDA188401801F09AFA5C
:101F5000A06000280BD0E38901460833A289184607
:101F60000AF0C7FA002805D00420C04370BD0B203A
:101F7000C04370BD3046FEF706FA02463146A068FF
:101F8000FEF716FA002801D0284670BD002070BD6B
:101F9000F8B50646B48919480B340440204601F0D0
:101FA00071FA054628000AD0F089224629460AF02F
:101FB000A0FA0427FF43002804D03C4618E00B2079
:101FC000C043F8BD0E4E2246B08829460AF099FA61
:101FD000002801D03C460BE0B088001980B2B080E8
:101FE000000B80008019018A091B01820A24E44346
:101FF000284600F0A9FF2046F8BD0000FCFF0000C5
:10200000C06F0020F8B50446E078401C01F03AFAB1
:1020100006460B27FF43002E2AD0E1783046491CA4
:10202000FEF77BF9E089E278083031460AF061FA80
:10203000A088401C01F026FA054628001AD0A18885
:10204000491CFEF76AF9E089E178A2884018083057
:1020500029460AF04EFA2A46314609A000F096FEBB
:10206000304600F071FF284600F06EFF781CF8BD86
:102070003846F8BD304600F067FF3846F8BD00002E
:102080002573203D2025730D0A00000070B504461D
:10209000A08901F0F7F9054628000DD0E089A28952
:1020A000083029460AF025FA002808D0284600F012
:1020B0004BFF0420C04370BD0B20C04370BDA189FD
:1020C00028460BF06BFEA17888420AD1E0880028F0
:1020D0000BD0E189814208D00121204609F0B4FCEF
:1020E00003E00021204609F0AFFC284600F02CFF59
:1020F0000A20C04370BD02E008C8121F08C1002AB0
:10210000FAD170477047002001E001C1121F002A78
:10211000FBD17047FFB581B0164644680027FF43E6
:102120003946204601F0D6F9656AE06900280ADDE3
:10213000A968B14207D12868696841600860E06910
:10214000401EE06104E030460C3001F09BF905468A
:10215000002D14D02069401C2061AE602846324614
:102160000C300299FEF7B1F80498002809D02046F7
:10217000143041686960286045600D6008E03E46A3
:1021800012E0204614300168686029604D600560E7
:102190006068002808D0A0680122C1881143C1806E
:1021A0006268E168A0689047204601F0DDFA304699
:1021B00005B0F0BD10B510461A46FEF786F80020AF
:1021C00010BD0000F8B50D461646142148431849C5
:1021D00040188168C0680818A84201D9A94202D9EC
:1021E0000020C043F8BD01211248FFF785F9002403
:1021F000F01DFF30F930470A04E061024819FEF78C
:10220000F1FC641CA742F8D800210A48FFF774F9D2
:102210000020B10807E08200AA58521C02D000201A
:10222000C043F8BD401C8142F5D80020F8BD000035
:10223000C400002005000002FFB583B00D46069ED5
:102240000292680A4002019001982F1A0120400270
:102250000699C41B8C4200D3069C012149021548F3
:10226000FEF75BF801235B02124A01990398FFF71E
:10227000A1FF10482246C0190299FEF726F8012254
:10228000520201990398FFF79DFF00280FD1012307
:102290005B02084A0199039800F00EF8002806D165
:1022A0002D19029909190291361B002EC9DC07B0BD
:1022B000F0BD00002406002070B50C4615461E46F1
:1022C00001210B48FFF718F9B2B229462046FEF764
:1022D000DDFC002007E0215C2A5C914202D0002056
:1022E000C04370BD401CB042F5D3002070BD00005B
:1022F00005000002F0B51FB484B007980699020DDE
:10230000014314D04A484B491018484305140F980C
:1023100001280E981CD0281A401C0024464E47491C
:10232000009401910290002814DA474227E00F98A8
:10233000012443A3012808D0002104980F9A846047
:102340000360C260416009B0F0BD0E98C143F4E77C
:102350004042E2E7074612E0F80707D0224633463C
:1023600001990098FEF74AF9019100902246334600
:1023700010461946FEF742F904460E467F10002F1C
:10238000EAD10298019B0028009A0799069802DA80
:10239000FEF734F901E0FEF799F904460E460022F3
:1023A000284BFEF739FB03D80020C043014607E065
:1023B0000022254B20463146FEF76EF8FEF70CFB57
:1023C000102409E0002C0ADB0A220023FDF710FF8D
:1023D000059B30321A55641E02460A43F2D111227F
:1023E000641C059B121B1C190F9B012B03D001239E
:1023F00008430ED10AE0084304D011200E900020BB
:102400000F9084E70E98151A6D1E0BE00E9882420D
:1024100002DD00236D1C03E0824201DA00236D1E01
:10242000002BEED004980F998260C16030C08AE71B
:1024300001FCFFFF104D0000000024400000F03FB1
:10244000300000000000F0430000E03FFFB597B00F
:102450000646002518E2252877D100242746FD49A5
:10246000049400E00443761C32780120203A904026
:102470000842F7D130782A280ED00222307801465F
:102480003039092916D804990A235943303940189C
:102490001443761C0490F1E7189802C80491189030
:1024A000002904DA0120400304434842049002203A
:1024B0000443761C30782E2814D10420044370780D
:1024C000761C2A2809D11898761C80C8189009E033
:1024D0000A214F43303FC719761C30780146303906
:1024E0000929F5D930786C2810D006DC4C281AD090
:1024F00068280ED06A2817D104E0742813D07A28EF
:1025000012D110E00120400504430CE0012109052F
:1025100001E0032109050C437178814203D10120B8
:1025200000052418761C761C3078119066280BD094
:1025300013DC58287DD009DC00287BD04528F6D054
:102540004628F4D047281AD1A5E118E0632835D0F1
:10255000642870D0652812D19DE170286CD008DC09
:102560006728F1D069287BD06E280DD06F2806D15E
:10257000BAE073282ED0752871D0782859D01A9ACD
:10258000199990476D1C7EE16002400F022809D026
:1025900003280DD00428189801680DD00D60001D87
:1025A000189070E11898EA1701680D604A60F6E724
:1025B000189801680D80F2E70D70F0E718986A46E8
:1025C00001781172001D18900020507202A800902E
:1025D000012005E0189802C8189000200091C0431F
:1025E00061070DD5002101E00199491C0191B94213
:1025F00012DA8142F8DB009A515C0029F4D10BE039
:10260000002101E00199491C01918142FADB019A04
:102610000099895C0029F5D1019904981A9B471A01
:1026200021463846199A00F097FA01994019451841
:102630000BE04FE02CE113E04EE0009800990078A9
:10264000491C00911A9A199990470198401E0190CF
:10265000401CF2D1214638461A9B199A10E137E006
:102660000A200021009001916002410F022907D049
:10267000189A01CA1892C2179446032908D00AE092
:102680001898C01DC108C90005C91891944607E0F3
:1026900000B2C2179446042902D140B2C1178C4639
:1026A00000226146944506DA0A46002140429141E3
:1026B0008C462D2102E0210504D52B216A46117399
:1026C000012103E0E10701D02021F7E7029155E065
:1026D0000A200AE0102008E01020009000210420C9
:1026E00004430191082703E0082000210191009094
:1026F0006002410F022907D0189A01CA18920022DD
:102700009446032908D008E01898C01DC108C900E4
:1027100005C91891944603E080B2042900D1C0B2E3
:1027200000210291210729D51199702906D0009A1C
:102730001021019B4A401A4305D00EE040216A4611
:102740001173012108E06146014306D030216A4639
:1027500011731199517302210291009A0821019B72
:102760004A401A430AD16146014301D1610705D5A8
:1027700030216A46117301217F1E02911199582957
:1027800004D035A10E910DA90D910DE037A1F9E707
:102790006146019B009AFDF72BFD0E9B8C469B5CCE
:1027A0000D9A521E0D92137061460143F0D10D989F
:1027B00005A9081A20300190600703D50120000404
:1027C000844300E001270198874201DD381A00E0C8
:1027D0000020019900904118029809180498401AA5
:1027E0000490E00306D421461A9B199A049800F03D
:1027F000B3F94519002706E003A81A9AC05D199994
:1028000090476D1C7F1C02988742F5DBE0030CD5D6
:1028100021461A9B199A049800F09EF9451904E084
:102820001A9A3020199990476D1C0099481E009003
:102830000029F5DC08E00D980D990078491C0D91F0
:102840001A9A199990476D1C0199481E0190002908
:10285000F1DC63E109280100303132333435363799
:1028600038396162636465660000000030313233DC
:10287000343536373839414243444546000000007C
:1028800000F05AF94519761C3078002800D0E2E5AE
:1028900028461BB0F0BD600700D406271898C01D5D
:1028A000C108C90048680A680831C30FDB071891DE
:1028B000190001D09CA108E0210501D59BA104E0ED
:1028C000E10701D09AA100E09AA1430011985B08AA
:1028D000109165280CD006DC452809D046281DD06B
:1028E000472841D141E0662818D067283CD13CE018
:1028F0000021112F01DB112000E0781C01910090D4
:1029000008A911A8FFF7F6FC139905910021119A67
:1029100015927F1C12980197009150E00120C0078A
:1029200003900120019008A9009711A8FFF7E2FC8D
:10293000139A149905920022119B009212981593F4
:10294000059A0192002901D0104602E0791C401836
:102950000190381A01D5019804E04042401E0090D1
:10296000781C0190C01B029043E0012F00DA012780
:102970000021112F01DD112000E038460191009067
:1029800008A911A8FFF7B6FC13990591119A002127
:10299000129815920091019721070CD40599B9421C
:1029A00001DB019900E00191012904DD159A491E1E
:1029B000515C302906D0B84201DA011D05DA012147
:1029C000029115E00199491EEDE7002805DC009908
:1029D000411800910199091A03E0019A411C9142A2
:1029E00000DD01910099401A401C02900120C007AF
:1029F0000390200706D402990198814202DB00204F
:102A0000C043029000206946C87707AF01210398B0
:102A10000337C907884224D0022011902B2012903E
:102A2000039800280CDA404203902D20129007E012
:102A30000A210398FDF7B2FB30317F1E03903970F5
:102A40001199481E11900029F2DC03980028EFD15B
:102A5000791E129808703078202108404530BF1E3A
:102A6000387006A8C01BC01D03901098007800287D
:102A700000D00120019941180298C0170918039845
:102A800009180498401A401E0490E00306D4214619
:102A90001A9B199A049800F05FF84519109800786D
:102AA000002803D01A9A199990476D1CE00324D589
:102AB00021461A9B199A049800F04EF845191CE01B
:102AC0000098002807DB00990598884203DD1598D7
:102AD000405C199901E0199930201A9A90470098A2
:102AE0006D1C401C00900298401E0290002804D1EA
:102AF0001A9A2E20199990476D1C0199481E019031
:102B00000029DDDC05E038781A9A7F1C1999904776
:102B10006D1C0399481E03900029F4DC21461A9B82
:102B2000199A0498ACE600002D0000002B0000006C
:102B30002000000000000000F8B5044600251E46F5
:102B40001746880404D405E039462020B0476D1CA0
:102B5000641EF9D52846F8BDFFB50446002581B0AE
:102B60001E46C80301D5302700E02027880404D57D
:102B700005E038460399B0476D1C641EF9D5284618
:102B800005B0F0BDF8B506460C461348816AC06A28
:102B90000F1800F07FFE05463069002800D08047FE
:102BA0000EA113486268FFF733F9A0688047706987
:102BB000002800D080470848816AC06A0E1800F0DB
:102BC00069FE401B0090F31B0AA109486268FFF7E9
:102BD0001FF90020F8BD00004876002072756E20B5
:102BE0007465737420636173652025730A000000A7
:102BF0001C0600207465737420636173652025735F
:102C00002066696E69736865642025642066616961
:102C10006C6564202564206D730A00004A68002AF0
:102C200006D00A68531C0B6010704868401E48604C
:102C300070470A68531C0B601070704710B50AF09B
:102C4000B3FD10BD70B504460D46164606F0D0FC27
:102C50000146486812E0621C02D08269A2420CD18F
:102C60004269AA4209D10269B24206D101684268AA
:102C70004A60116000F068F970BD40688842EAD18E
:102C800070BD70B5054606F0B3FC0446E068002848
:102C900020D0637D002B1DD0002205E00C21514384
:102CA0004158A94202D0521C9342F7DC934211D002
:102CB000591E91420BD0511C0C25694355439A1A59
:102CC0004118521E0C2340195A43FDF7FEFA607D4D
:102CD000401E607570BD0000FEB51C4C204600F023
:102CE000D1FB1B4D686000280BD02146FDF715FB7A
:102CF0000821184800F0A8F800260446002815D13D
:102D000002E00B20C043FEBD01212120C902009139
:102D100001900023104A11A102A801F0C9FB04464A
:102D200020000BD021460EA000F030F86868002883
:102D300002D000F009F96E602046FEBD68680121EE
:102D40000160466009F048F80020FEBD180F000041
:102D5000B4010020B0E20000D54D0000636C6900B2
:102D60004572726F723A204661696C656420746FB7
:102D70002063726561746520636C69207468726594
:102D800061643A2025640D0A000000000FB430B5DC
:102D9000C1B0FF25013529466846FDF7BEFA00207F
:102DA00010490978002906D00F496846FDF70DFB48
:102DB0000D48FDF7E8FA69460C1845AB291A20467C
:102DC000449AFFF777F800214091002805DC0020A5
:102DD00041B030BC08BC04B01847684602F066F841
:102DE0000020F5E7B40100208874002030B51549B3
:102DF0004A68002A0CD0016800290BD0816800299C
:102E000008D0D41DF934A368402B17D200210CE060
:102E1000012030BD1520C04330BD8D00AD18AD6818
:102E2000854201D1002030BD491C8B42F5D8591C88
:102E3000A160990089188860002030BD0B20C04334
:102E400030BD0000B401002070B505460E460948AB
:102E50004068002801D0002408E0012070BD284609
:102E60000C35FFF7C3FF0028F8D1641CB442F6DB31
:102E7000002070BDB401002070B506F0D3FB0446FD
:102E8000200012D02168087C032811D0086841680E
:102E9000002901D0204688470021C9430C4800F092
:102EA00019FB051E0BD0284670BD0120C04370BD24
:102EB000086841680029EFD020468847ECE72046A3
:102EC00005F050FF024800F04FFC284670BD00009E
:102ED000AC00002010B50446002204492046FFF74C
:102EE000D0FE2046FFF7C8FF10BD0000BF940000D1
:102EF00010B5002109A000F0D1FC04460A48416841
:102F0000002900DA446000220849204600F064FDF0
:102F1000204600F0B1FA002010BD00002F64657655
:102F20002F6576656E74000090000020BF9400004D
:102F3000002802DA0420C0437047402802DA01204A
:102F4000C04370470020704710B5002801D007F03B
:102F50009DFF10BD6420704710B507F007FE10BD3F
:102F600070B50D4616462524E443002801DAE0102A
:102F700070BD06F057FB00280DD001680A7C032ABB
:102F80000CD009680B69002B03D0324629469847BC
:102F90000446204670BD0120C04370BD09684B6BDC
:102FA000002BF6D03246294698470446F1E710B583
:102FB00004460AF047FF0AF029FF204601F085FF8A
:102FC00000F0D2F800F084F903CC01F025FE0020D7
:102FD00010BD000070B5044610480021C9430546E5
:102FE00000F078FA002811D1204608F0B5FD04461B
:102FF000002C0CD00021204608F026FD0646204675
:1030000008F09CFD284600F0AFFB304670BD284616
:1030100000F0AAFB0120C04370BD0000CC6F00206F
:10302000F8B500262F48711E009000F053FA0028D2
:1030300046D12C490C398F88C878002840D000250B
:10304000A8004018807CEE280AD06D1CEDB2022D3D
:10305000F6D3022D34D0380B441C022C04D004E0EB
:103060002803001D8880F4E700241E49A2000C39C3
:103070005118897C442904D0A0421CD0641CE4B2BD
:10308000EBE700222146184808F0EAFD0126204619
:1030900008F0F0FB002813D1124CCC210C3CA08886
:1030A000000B000308F090FECC20A90009198874D9
:1030B000E078401EE070002E02D10A480C3887806C
:1030C000084C00200C3C6070009800F04DFBA0788C
:1030D000002803D02046083001F063F8002001F0FA
:1030E00025F9F8BDCC6F0020911F0000F8B504460B
:1030F0000E461546002C06D0002E04D0002D02D01E
:103100002868002802DC1520C043F8BD15480021BE
:10311000C943074600F0DEF90028F6D1204608F042
:103120001BFD0446384600F01FFB002C0AD0A28885
:103130002868904209DA2A60204608F0FFFC1B202C
:10314000C043F8BD0120C043F8BDE178A068411834
:103150003046FDF7BAF8A0882860204608F0EEFC5B
:103160000020F8BDCC6F002010B5184C2078002846
:1031700001D0002010BD18211448FDF7CEF81348E7
:103180000C3000F04FFA0028F4D11148FFF72EFE62
:1031900008F0A0FB0028EDD10C480021083000F019
:1031A00055FF0028E6D101202070A088000B800088
:1031B0000019008A5121C900884204D2E07802280F
:1031C00001D20AF0B7FD002010BD0000C06F002042
:1031D00084000020F8B506460F461546002E0CD098
:1031E000002F0AD0002D08DD3046FDF7CCF88028EE
:1031F00003D801204002854202DD1520C043F8BDFE
:10320000184800244178E443002906D08178491CFD
:1032100081702146083000F0CBFF124821460C3067
:10322000009000F057F90028E9D1304608F094FCEE
:103230000446002C0AD02B463A463146204608F078
:10324000A3FD0546204608F079FC06E000232A4647
:103250003946304608F09AFC0546009800F084FA9A
:103260002846F8BDC06F002070B5154D686801F0A4
:1032700062F80446200021D02069FFF72BFE06E00B
:103280006068016842684A601160FFF75DFE204691
:1032900005F0D6FD0028F3D0E068FFF755FEA068E2
:1032A000FFF752FE0021686801F088F9286884421F
:1032B00001D1002028602046FFF746FE70BD0000C7
:1032C000A000002010B506F093F90121C17510BDD2
:1032D00070B5174D686801F02EF80446286800287C
:1032E0000DD0002C0FD013480078800705D500F0D2
:1032F000D1FA014610A001F0F7FE204670BD0C483F
:10330000001D01F025F8182001F074FC044628681F
:10331000002800D12C60246064600020C04320613C
:103320002146686801F04AF9FFF7E2FD204670BDCA
:10333000A0000020A00100205B253036645D3C45E4
:103340003E20796C6F6F7020616C726561647920CA
:10335000696E697465640D0A00000000F8B506F036
:1033600047F904466CE00025ED43667D204605F0F4
:1033700067FD00280CD1656800F08CFA02460B4608
:10338000A868E968151A8B4101DA851A00E0002562
:10339000002001270AE00C21E26841435258A3684B
:1033A000C1005A50A268091D5752401CB042F2DBBE
:1033B0002A463146A06800F0C9FA074638000FD502
:1033C000FEF7B0FD006804280AD024480078800782
:1033D00005D500F05FFA014621A001F085FEF8BD99
:1033E000204605F02DFD002811D1656800F052FA45
:1033F000AA68EB68801A994109DB2868696841600E
:1034000008606969286988472846FFF79DFD002FF5
:1034100016DD002512E0E800A168801D085CC007E9
:103420000BD028460C225043E168021D8B580A58E5
:1034300008300F5819461046B8476D1CB542EADBF4
:10344000E07D002807D1204605F0FAFC00288AD04C
:10345000607D002887D10020E075F8BDA001002024
:103460005B253036645D3C453E20616F735F706F55
:103470006C6C0D0A0000000010B5044606F0B8F8A8
:10348000046110BD10B5002802D007F0E1FC10BDAA
:10349000002010BD10B5C11707F00CFD08F0D2F8E0
:1034A00010BD10B50446002C07D0206807F022FD9F
:1034B0002068FFF749FD0020206010BD002804D0DF
:1034C0000068002803D001207047002070470020CA
:1034D0007047000070B504461526F643002C2AD02C
:1034E0004D4D481C29D00846002107F0E3FC246814
:1034F00002460B46204607F043FD4849884200D16A
:10350000002000281FD0FF2432340A23011B621F31
:10351000DB43A04275D039DC692876D01EDC09284F
:1035200076D012DC801E0300FEF7EDFC07686565AF
:103530006B686B6B6500304670BD2A461346206889
:1035400007F01EFDD9E7002070BD0B285BD0642872
:1035500057D0652855D066284DD14FE00146FF3938
:103560002D3990424DD008DCC82851D0C9284FD001
:10357000CA284DD0CB283ED143E0012948D00229AA
:1035800046D0032944D0042935D141E0FF24F0344A
:10359000081BA14235D017DC214A881A914230D04D
:1035A00009DC012934D0C32932D0FF3928392FD082
:1035B000642920D125E001282AD0022821D003281F
:1035C0001FD0042817D11CE00146FF392D39904245
:1035D00017D008DC01281BD0642819D0C82817D0C0
:1035E000C92808D116E001290BD0022909D00329E6
:1035F00010D004290CD0284670BD06E00D20C04331
:10360000FAE73046F8E71846F6E70B20C043F3E741
:103610002846F1E71846EFE7FFFFFFFF85030000AC
:103620008C010000F8B50746002F29D02820FFF7AD
:1036300029FF06460B25ED43002E24D048A1304635
:1036400007F053FC0446002C77D03046FFF77CFC93
:10365000FF213231601A4B1F6E1C2A118C4271D02F
:1036600034DC692C73D019DC092C72D00DDCA41E5B
:103670002300FEF748FC07646060676467676000CA
:103680001520C043F8BD2846F8BD0B2C5DD0642C36
:1036900058D0652C56D0662C4DD150E02046FF38CE
:1036A0002D389C424ED008DCC82C52D0C92C50D0AA
:1036B000CA2C4ED0CB2C3ED144E0012849D0022860
:1036C00047D0032845D0042835D142E0FF24F03408
:1036D000011BA04236D017DC224BC11A984231D0D0
:1036E00009DC012835D0C32833D0FF38283830D042
:1036F000642820D126E001292BD0022922D00329D9
:1037000020D0042917D11DE00846FF382D389942F2
:1037100018D008DC01291CD064291AD0C82918D077
:10372000C92908D117E001280CD002280AD00328A3
:1037300011D004280DD01046F8BD0EE007E00D2092
:10374000C043F9E71520C043F6E73046F4E72846C2
:10375000F2E71046F0E73046EEE73E600020EBE788
:10376000414F53008C01000070B51524E44300283C
:1037700021D0006807F08CFC4449884200D1002029
:1037800000281AD0FF2632360A25ED43811B731F0D
:103790002A11B0426ED033DC692870D018DC0928B9
:1037A00070D00CDC801E0300FEF7ADFB07615F5F8D
:1037B000646164645F00204670BD002070BD0B280A
:1037C0005AD0642856D0652854D066284DD14EE092
:1037D0000146FF392D3998424CD008DCC82851D019
:1037E000C9284FD0CA284DD0CB283ED142E001296C
:1037F00048D0022946D0032944D0042935D141E0DC
:10380000FF26F036881BB14234D017DC204BC81A93
:1038100099422FD009DC012934D0C32932D0FF3995
:1038200028392FD0642920D124E001282AD0022869
:1038300020D003281ED0042817D11BE00146FF39F1
:103840002D39984216D008DC01281BD0642819D0E5
:10385000C82817D0C92808D116E001290AD00229A2
:1038600008D0032910D004290CD0104670BD0D20BB
:10387000C04370BD204670BD284670BDFFE70B20D9
:10388000C043FAE71046F8E72846F6E7850300004C
:103890008C01000010B507F051FD10BDF3B581B0EB
:1038A0000746002F09D03846FCF76DFD012189023B
:1038B000884205D92320C043FEBD0420C043FEBD7D
:1038C0000021C9432048FFF705FE051E01D0284608
:1038D000FEBD384606F006FD044620001CD00298C6
:1038E000E060204608F082FB06461748FFF73CFFE1
:1038F000002E17D0207C032817D020680268002AE9
:1039000003D03146204690470546002D17D030465B
:1039100005F028FA2846FEBD0B48FFF725FF0120D9
:10392000C043FEBD1620C043FEBD20680368002BC7
:10393000EBD039463046029A98470546E5E73046CF
:1039400005F066FEFEBD0000AC000020F7B582B0B9
:1039500016460025684606F0A5FC002802DA681E17
:1039600005B0F0BD002001906B4601AA03990298B2
:1039700008F010FD0446200020D433466A4601A911
:103980000AF07BFA0446002C18DB0021012711E025
:103990000298CA001218106843099E0001AB9B5997
:1039A000C606F60E3846B040034202D0D0883843EF
:1039B000D080491C03988142EADB2D1903990298B3
:1039C00008F0C2FC4519684605F0C8F9002C01DA78
:1039D0000020C5E72846C3E7F7B582B0064605F0E4
:1039E00007FE0446002E03DA1520C04305B0F0BDE3
:1039F000657D6D1C0C206843FFF744FD0746E80019
:103A0000FFF740FD0090002F36D00098002833D0FB
:103A1000002203213046FFF78BFA0121C902084337
:103A2000024604213046FFF783FA607D401C607532
:103A30006A1E01920C20424315463846E168FCF7A5
:103A400044FCE068FFF780FAE760019AA168D200C1
:103A50000098FCF73AFCA068FFF776FA0098A0609F
:103A6000E81906600499416003998160207DB042A5
:103A700000DA26750020B9E709480078800705D5E7
:103A8000FFF708FF014607A001F02EFB3846FFF7BD
:103A90005BFA0098FFF758FA0B20C043A6E7000036
:103AA000A00100205B253036645D3C453E206F75EB
:103AB00074206F66206D656D6F72790D0A000000CD
:103AC000F7B505460E46300016D005F091FD0746C5
:103AD0002020FFF7D7FC0446200010D0FFF7DAFEC5
:103AE000EB1742195941A2600B46E1600298206130
:103AF0006661A56179680CE01520C043FEBD0B200E
:103B0000C043FEBD8D68CE681846551BB04102DB30
:103B10004968B942F6D108686160206044600C6071
:103B20000020FEBD1FB500230093019303936B4655
:103B30009880D980029203486946406806F05AFC92
:103B400004B010BD9000002010B50446002C07D032
:103B5000206806F025FF2068FFF7F6F900202060B6
:103B600010BD002804D00068002803D00120704751
:103B70000020704700207047FFB581B007460C4613
:103B8000002F2FD0002C2DD04C20FFF77BFC0646B9
:103B90000B25ED43002E29D00498009022464AA11F
:103BA0003046039B06F0F3FE0446002C78D03046E6
:103BB000FFF7CAF9FF213231601A4B1F6E1C2A1120
:103BC0008C4272D035DC692C74D01ADC092C73D08D
:103BD0000EDCA41E2300FEF796F907656161686597
:103BE000686861001520C04305B0F0BD2846FBE7BA
:103BF0000B2C5DD0642C58D0652C56D0662C4DD142
:103C000050E02046FF382D389C424ED008DCC82CAE
:103C100052D0C92C50D0CA2C4ED0CB2C3ED144E02F
:103C2000012849D0022847D0032845D0042835D19F
:103C300042E0FF24F034011BA04236D017DC234BB6
:103C4000C11A984231D009DC012835D0C32833D0BD
:103C5000FF38283830D0642820D126E001292BD025
:103C6000022922D0032920D0042917D11DE00846BB
:103C7000FF382D38994218D008DC01291CD064295E
:103C80001AD0C82918D0C92908D117E001280CD0AA
:103C900002280AD0032811D004280DD01046A3E72B
:103CA0000EE007E00D20C0439EE71520C0439BE7D0
:103CB000304699E7284697E7104695E7304693E760
:103CC0003E60002090E70000414F53008C0100004F
:103CD000FEB50446084617461E461525ED43002C42
:103CE00024D0002107F0E6F80097019624680246E8
:103CF0000B46204606F098FE002819D0FF263236E3
:103D00006C10811B731F2211B0426ED033DC692806
:103D100070D018DC092870D00CDC801E0300FEF780
:103D2000F2F807615F5F646164645F002846FEBD6E
:103D30000020FEBD0B285AD0642856D0652854D0E8
:103D400066284DD14EE00146FF392D3998424CD0BE
:103D500008DCC82851D0C9284FD0CA284DD0CB285C
:103D60003ED142E0012948D0022946D0032944D05F
:103D7000042935D141E0FF26F036881BB14234D00A
:103D800017DC204BC81A99422FD009DC012934D006
:103D9000C32932D0FF3928392FD0642920D124E01B
:103DA00001282AD0022820D003281ED0042817D1A9
:103DB0001BE00146FF392D39984216D008DC012856
:103DC0001BD0642819D0C82817D0C92808D116E0FC
:103DD00001290AD0022908D0032910D004290CD0C7
:103DE0001046FEBD0D20C043FEBD2846FEBD204648
:103DF000FEBDFFE70B20C043FAE71046F8E7204678
:103E0000F6E700008C01000070B51524E44300289B
:103E10001ED000291CD0006806F084FE002819D0AE
:103E2000FF263236811B731F65106211B0426ED0BF
:103E300033DC692870D018DC092870D00CDC801EB7
:103E40000300FEF760F807615F5F646164645F0010
:103E5000204670BD002070BD0B285AD0642856D073
:103E6000652854D066284DD14EE00146FF392D39E2
:103E700098424CD008DCC82851D0C9284FD0CA2855
:103E80004DD0CB283ED142E0012948D0022946D06E
:103E9000032944D0042935D141E0FF26F036881BA0
:103EA000B14234D017DC204BC81A99422FD009DC1C
:103EB000012934D0C32932D0FF3928392FD06429C1
:103EC00020D124E001282AD0022820D003281ED0A7
:103ED000042817D11BE00146FF392D39984216D02E
:103EE00008DC01281BD0642819D0C82817D0C9289D
:103EF00008D116E001290AD0022908D0032910D0E0
:103F000004290CD0104670BD0D20C04370BD204662
:103F100070BD284670BDFFE70B20C043FAE710468E
:103F2000F8E72846F6E700008C01000070B50D4662
:103F300016460024E44305F075FB00280DD0016807
:103F40000A7C032A0CD009688B68002B03D0324608
:103F5000294698470446204670BD0120C04370BDE5
:103F600009688B68002BF6D03246294698470446EC
:103F7000F1E710B506F094FF10BD0000F8B5044657
:103F80000D46164600200090411E1448FFF7A2FA85
:103F9000002820D16946204606F0E6F90446002CA8
:103FA00008D1009801210174056046601430FFF7C4
:103FB00039FB04460948FFF7D7FB0546002D0BD017
:103FC00000988068002801D0FEF7BEFF18210098F5
:103FD000FCF7A3F92846F8BD2046F8BDAC00002048
:103FE00070B505460C461646002C0FD01420FFF77E
:103FF00049FA00280DD084600582C66006490A6827
:104000004160026050600860002070BD1520C04310
:1040100070BD0B20C04370BD9800002010B5044651
:10402000002C07D0206807F099F82068FEF78CFF75
:104030000020206010BD002804D00068002803D0B4
:10404000012070470020704700207047F8B50746F0
:104050000C46002F2AD02420FFF714FA06460B2521
:10406000ED43002E25D0224648A1304607F070F8D7
:104070000446002C77D03046FEF766FFFF21323130
:10408000601A4B1F6E1C2A118C4271D034DC692CD3
:1040900073D019DC092C72D00DDCA41E2300FDF7AF
:1040A00032FF076460606764676760001520C04383
:1040B000F8BD2846F8BD0B2C5DD0642C58D0652C7B
:1040C00056D0662C4DD150E02046FF382D389C420A
:1040D0004ED008DCC82C52D0C92C50D0CA2C4ED09F
:1040E000CB2C3ED144E0012849D0022847D00328F8
:1040F00045D0042835D142E0FF24F034011BA04212
:1041000036D017DC224BC11A984231D009DC012885
:1041100035D0C32833D0FF38283830D0642820D198
:1041200026E001292BD0022922D0032920D00429FE
:1041300017D11DE00846FF382D38994218D008DC09
:1041400001291CD064291AD0C82918D0C92908D13E
:1041500017E001280CD002280AD0032811D0042827
:104160000DD01046F8BD0EE007E00D20C043F9E782
:104170001520C043F6E73046F4E72846F2E710463C
:10418000F0E73046EEE73E600020EBE7414F53009A
:104190008C01000010B5002802D0006807F01EF85E
:1041A00010BD10B5002802D0006807F020F810BD3F
:1041B00070B504461526F643002C26D04B4D481CFE
:1041C00025D00846002106F075FE246802460B46FD
:1041D000204607F015F800281FD0FF2432340A23A8
:1041E000011B621FDB43A04275D039DC692876D001
:1041F0001EDC092876D012DC801E0300FDF783FE4A
:10420000076865656B686B6B6500304670BD2A4654
:104210001346206806F0F4FFDDE7002070BD0B2890
:104220005BD0642857D0652855D066284DD14FE023
:104230000146FF392D3990424DD008DCC82851D0B5
:10424000C9284FD0CA284DD0CB283ED143E0012900
:1042500048D0022946D0032944D0042935D141E071
:10426000FF24F034081BA14235D017DC204A881AFD
:10427000914230D009DC012934D0C32932D0FF3932
:1042800028392FD0642920D125E001282AD00228FE
:1042900021D003281FD0042817D11CE00146FF3984
:1042A0002D39904217D008DC01281BD0642819D082
:1042B000C82817D0C92808D116E001290BD0022937
:1042C00009D0032910D004290CD0284670BD06E07F
:1042D0000D20C043FAE73046F8E71846F6E70B2012
:1042E000C043F3E72846F1E71846EFE7FFFFFFFF7B
:1042F0008C01000000B500210300FDF704FE060D4F
:104300000B090705040D1021082001430420014377
:1043100002200143012001430148016000BD00006B
:10432000A001002010B506F0DDFF10BD10B5002083
:1043300007F0C4F810BD38B504460020009006F020
:10434000FDFB6A46214607F055F9009838BD00008C
:1043500030B50121094C012522682B468B401342C0
:1043600005D18D40154325600160002030BD491EF8
:104370000029F2DA1520C04330BD0000B40000204F
:10438000022805D201218140024802688A43026066
:1043900070470000B400002010B506F0CFFB406865
:1043A00010BD000030B587B0002406949B0802932E
:1043B00000230391012400930193014604942023D8
:1043C00006A807F063F80146080018D0FF2532352B
:1043D0000A24E4434A1B6B1F2011A9425ED028DC4B
:1043E000692960D019DC09290AD00BDC891E0B0071
:1043F000FDF789FD071006065410545406000020EE
:1044000007B030BD0B294CD0642947D0652945D071
:104410006629F5D10D20C043F2E799423ED0EFDC8A
:10442000C829EDD0C929EBD0CA29E9D0CB29E7D1D9
:1044300034E0FF25F035511BAA422FD017DC1B4B6F
:10444000D11A9A422AD009DC012AD9D0C32AD7D05E
:10445000FF3A283AD4D0642AD2D11FE00129CFD024
:1044600002291BD0032919D00429C9D116E00A4614
:10447000FF3A2D3A994211D008DC0129C0D06429B5
:10448000BED0C829BCD0C929BAD105E0012A05D0BF
:10449000022A03D0032AB3D12046B1E71520C04336
:1044A000AEE72046ACE70B20C043A9E78C01000033
:1044B00070B586B01C460B9E0A9B01259B08029393
:1044C00000230392009301930495F3B2224606F071
:1044D000DDFF0146080018D0FF2532350A24E443E9
:1044E0004A1B6B1F2011A9425ED028DC692960D0CD
:1044F00019DC09290AD00BDC891E0B00FDF703FD2E
:1045000007100606541054540600002006B070BD73
:104510000B294CD0642947D0652945D06629F5D1AF
:104520000D20C043F2E799423ED0EFDCC829EDD020
:10453000C929EBD0CA29E9D0CB29E7D134E0FF253E
:10454000F035511BAA422FD017DC1B4BD11A9A42CF
:104550002AD009DC012AD9D0C32AD7D0FF3A283A79
:10456000D4D0642AD2D11FE00129CFD002291BD098
:10457000032919D00429C9D116E00A46FF3A2D3A79
:10458000994211D008DC0129C0D06429BED0C829C5
:10459000BCD0C929BAD105E0012A05D0022A03D02E
:1045A000032AB3D12046B1E71520C043AEE7204629
:1045B000ACE70B20C043A9E78C01000070B50546AD
:1045C0000C4606F0BBFA2246294607F025F80146BC
:1045D000080018D0FF2532350A24E4434A1B6B1F1C
:1045E0002011A9425DD027DC69295FD018DC092998
:1045F0000AD00ADC891E0B00FDF785FC070F0606B2
:10460000530F53530600002070BD0B294CD0642972
:1046100047D0652945D06629F6D10D20C04370BD2D
:1046200099423ED0FBDCC829F9D0C929F7D0CA2964
:10463000F5D0CB29F3D134E0FF25F035511BAA4248
:104640002FD017DC1B4BD11A9A422AD009DC012A41
:10465000E5D0C32AE3D0FF3A283AE0D0642ADED17D
:104660001FE00129DBD002291BD0032919D004291E
:10467000D5D116E00A46FF3A2D3A994211D008DC0E
:104680000129CCD06429CAD0C829C8D0C929C6D12B
:1046900005E0012A05D0022A03D0032ABFD1204613
:1046A00070BD1520C04370BD204670BD0B20C043B7
:1046B00070BD00008C010000FEB506460F46002EBE
:1046C0002ED0F9173846029106F0F4FB04460D4649
:1046D0003846029906F0EEFB0195009434680246D4
:1046E0000B46204606F0F8FF014608001BD0FF25C8
:1046F00032350A24E4434A1B6B1F2011A94260D0C3
:104700002ADC692962D01BDC09290BD00DDC891E4B
:104710000B00FDF7F8FB0712070756125656070065
:104720001520C043FEBD0020FEBD0B294CD06429DE
:1047300047D0652945D06629F6D10D20C043FEBD7E
:1047400099423ED0FBDCC829F9D0C929F7D0CA2943
:10475000F5D0CB29F3D134E0FF25F035511BAA4227
:104760002FD017DC1B4BD11A9A422AD009DC012A20
:10477000E5D0C32AE3D0FF3A283AE0D0642ADED15C
:104780001FE00129DBD002291BD0032919D00429FD
:10479000D5D116E00A46FF3A2D3A994211D008DCED
:1047A0000129CCD06429CAD0C829C8D0C929C6D10A
:1047B00005E0012A05D0022A03D0032ABFD12046F2
:1047C000FEBD1520C043FEBD2046FEBD0B20C043EC
:1047D000FEBD00008C01000010B50446002C04D082
:1047E000206806F0D7FF0020206010BDFFB587B01D
:1047F00010981E460799002933D0F717002834D0A7
:104800003046394606F056FB04460D4630463946DA
:1048100006F050FB099B6E4633C6012205920493B5
:1048200048A1089A079806F085FF0146002974D030
:10483000FF2532350A24E4434A1B6B1F2011A9428D
:1048400075D03DDC692977D02EDC09290BD020DC1E
:10485000891E0B00FDF757FB072507076B256B6BC0
:1048600007001520C0430BB0F0BD3046394606F0B6
:1048700021FB099B049301220023059202930393D9
:10488000019100902FA1089A079806F053FF014666
:10489000CCE70B294ED0642949D0652947D0662939
:1048A000E1D10D20C043DEE7994240D0DBDCC829CE
:1048B000D9D0C929D7D0CA29D5D0CB29D3D136E070
:1048C000FF25F035511BAA4231D017DC1E4BD11AFF
:1048D0009A422CD009DC012AC5D0C32AC3D0FF3AA2
:1048E000283AC0D0642ABED121E00129BBD00229D8
:1048F0001DD003291BD00429B5D118E00A46FF3A80
:104900002D3A994213D00ADC0129ACD06429AAD0EF
:10491000C829A8D0C929A6D107E010E00CE0012AD7
:1049200005D0022A03D0032A9DD120469BE71520FB
:10493000C04398E7204696E70B20C04393E700204A
:1049400091E70000414F53008C01000070B5152421
:10495000E44300281CD0006806F02EFF002819D080
:10496000FF263236811B731F65106211B0426ED074
:1049700033DC692870D018DC092870D00CDC801E6C
:104980000300FDF7C0FA07615F5F646164645F0064
:10499000204670BD002070BD0B285AD0642856D028
:1049A000652854D066284DD14EE00146FF392D3997
:1049B00098424CD008DCC82851D0C9284FD0CA280A
:1049C0004DD0CB283ED142E0012948D0022946D023
:1049D000032944D0042935D141E0FF26F036881B55
:1049E000B14234D017DC204BC81A99422FD009DCD1
:1049F000012934D0C32932D0FF3928392FD0642976
:104A000020D124E001282AD0022820D003281ED05B
:104A1000042817D11BE00146FF392D39984216D0E2
:104A200008DC01281BD0642819D0C82817D0C92851
:104A300008D116E001290AD0022908D0032910D094
:104A400004290CD0104670BD0D20C04370BD204617
:104A500070BD284670BDFFE70B20C043FAE7104643
:104A6000F8E72846F6E700008C01000070B5152431
:104A7000E44300281CD0006806F0B0FE002819D0DE
:104A8000FF263236811B731F65106211B0426ED053
:104A900033DC692870D018DC092870D00CDC801E4B
:104AA0000300FDF730FA07615F5F646164645F00D3
:104AB000204670BD002070BD0B285AD0642856D007
:104AC000652854D066284DD14EE00146FF392D3976
:104AD00098424CD008DCC82851D0C9284FD0CA28E9
:104AE0004DD0CB283ED142E0012948D0022946D002
:104AF000032944D0042935D141E0FF26F036881B34
:104B0000B14234D017DC204BC81A99422FD009DCAF
:104B1000012934D0C32932D0FF3928392FD0642954
:104B200020D124E001282AD0022820D003281ED03A
:104B3000042817D11BE00146FF392D39984216D0C1
:104B400008DC01281BD0642819D0C82817D0C92830
:104B500008D116E001290AD0022908D0032910D073
:104B600004290CD0104670BD0D20C04370BD2046F6
:104B700070BD284670BDFFE70B20C043FAE7104622
:104B8000F8E72846F6E700008C01000008B500931E
:104B900013460A460146024805F098F808BD000091
:104BA000B408002010B513460A460146014805F036
:104BB000D0F810BDB408002070B504460C4B5868FE
:104BC00011E0058AA5420DD185688D420AD1C568DC
:104BD000954207D1016842684A601160FEF7B4F956
:104BE000002070BD40689842EBD11520C04370BDD5
:104BF0009800002070B50546002D0BD0284606F021
:104C000027F90446002C03D029462046FBF785FBF4
:104C1000204670BD002070BD10B50648FEF7E6F8CE
:104C2000FEF738FE014604A000F05EFAFEF796FBA0
:104C3000002010BDB80000205B253036645D3C5676
:104C40003E20506C6561736520656E7465722063EB
:104C50006F6D6D616E642076696120434C493A2026
:104C60000D0A0D0A0000000010B507F07FFF10BD0F
:104C7000FFB581B004460A9E0B981546002C31D032
:104C8000002D31D0002931D0002E31D0049A002AD5
:104C900030D024606460256100226263A2632663D1
:104CA000A1602273274640373872FBF713FA024699
:104CB000114938464B68436001604B681860486092
:104CC0001046FBF70BFA0420607320460096294635
:104CD00014300C9B049A07F03FFD606AE0630020EB
:104CE00005B0F0BD0620FBE70620F9E70620F7E750
:104CF0000520F5E70148F3E7F0630020BD0200005E
:104D0000F8B504460F461646FBF7E4F90546607B06
:104D1000042804D02846FBF7E1F90820F8BD206BF1
:104D2000B04204D22846FBF7D9F92248F8BD002E3C
:104D300013D0204605F070FB002828D020463246CC
:104D40003946143007F0BDFD0646002E0ED0284629
:104D5000FBF7C4F96A2E05D006E02846FBF7BEF93A
:104D60000520F8BD134E761E3046F8BD606B401C22
:104D70006063A16B814200D2A063E16B606A8142F3
:104D800000D9E0632846FBF7A9F90020F8BD2468A4
:104D9000183C32463946E06CFBF797FA2665204608
:104DA00007F058FA2846FBF799F900F01FF90020A0
:104DB000F8BD0000BF02000010B50023DB43002255
:104DC0000121FFF7E3FE002801D0002010BD0120E3
:104DD00010BD0000F8B50026284C40E06168084688
:104DE000FF31FF300D31113004F030FC002836D097
:104DF0006768FF3711373846FBF7C5FA002816D029
:104E0000052561686D02481940691D4A0002401875
:104E10008018FF22FF3101321131FBF79DFA6068E3
:104E2000052145196869401CFBF7CEF969613846D0
:104E300004F0E8FF012802D0022804D006E038463A
:104E400007F0F8FA02E00FA0FDF7A0FF10A0FDF7B1
:104E50009DFF1048067026700FA0FDF797FFA06811
:104E60000028BBD00DA0FDF791FF6068FEF76CF83D
:104E700066600020FFF75AFAF8BD0000B401002078
:104E8000180A000073796E746178206572726F720F
:104E90000D0A00008874002023200000434C4920A4
:104EA0006578697465640D0A0000000010B5044659
:104EB0002078002807D02046FBF765FA014600223B
:104EC0002046FFF76FFE002010BD10B5007A0028C5
:104ED00001D0FDF701FF10BD70B50546286800241C
:104EE0000B00FDF710F8086B052431456B505C6B27
:104EF000014620310A7F0C46052A17D1497F012936
:104F000014D03049836A0D68C26A49685B194A4106
:104F10008361C261C26A816A426201622A49816018
:104F20000146294808F084FE0120607770BD0146E3
:104F300020310A7F0D46052AF8D1497F0029F5D096
:104F400008F096FE6C7770BDA968EA680B461343BB
:104F5000F9D0034620331C7F052CF4D15B7F002B56
:104F6000F1D1C26281626A6929694263016370BDDD
:104F7000014620310A7F052AF9D1497F0029F6D15F
:104F80002969416170BD2030017F0529FAD1417F37
:104F90000029F7D1817F0129F4D1047770BD014642
:104FA00020310A7F052AF9D14A7F002AF6D18A7F6B
:104FB000022AF3D10C7705F069FF70BD012005F0DE
:104FC0004DFA70BD700000206800002008B506484A
:104FD000009004E00098401E0090FBF7D7FF009877
:104FE0000028F7D108BD00008038010010B5FBF79C
:104FF00071F80446002111480078002803D02046AB
:10500000FBF76CF810BD0E480078002803D020464E
:10501000FBF764F810BD0B4807F000FA0A480B498B
:1050200000680968884203D12046FBF757F810BD95
:10503000FBF757F82046FBF751F810BD4000002061
:105040003F000020D46000204400002048000020E1
:1050500089000818C008C00001210906001F01606E
:10506000001F0360001F14490160001F1349016005
:10507000001F13490160001F12490160001F491001
:105080000160001F0260001F0F490160001F0F49EF
:105090000160001F0E490160001F0E490160001FE2
:1050A0000D490160001F0D490160001F0C4901609E
:1050B000001F0C49016070478DB3000012121212DC
:1050C0000303030302020202111111111010101048
:1050D0000909090908080808070707070606060658
:1050E00005050505040404040FB438B50021C943BF
:1050F0000B48FEF7EFF90446002C09D105A90498E6
:10510000FCF7CEFE04460020009006480020C04672
:105110000348FEF729FB204638BC08BC04B01847FA
:10512000A401002018060020F3B583B00546002036
:105130000026354906C902920191344F0022BA6017
:10514000FA603A61012306E08100C9194C69A26145
:105150004969CB61401C79688142F5DC2846049995
:1051600006F06EFF00280BD001A9022006F068FFB0
:105170002846049904F0BAF90025244C80343AE01A
:10518000002005B0F0BDA800C019406960618269C7
:10519000002A2FD1426800923A6903688A1A711C6A
:1051A0000E461BA0FCF742FE60690169002901D090
:1051B0008068884761698868C9688847606941690B
:1051C000002901D0806888476069C069002806D03E
:1051D00018A0FCF72BFEB868401CB8600AE0F8681D
:1051E0008000C0198030816917A0FCF71FFEF868A5
:1051F000401CF8606D1C7968A942C4DC034800F0CB
:1052000031F8F868BDE7000010E30000C476002024
:105210001B5B313B33336D54455354205B25642F66
:1052200025645D2025732E25732E2E2E1B5B306D7D
:105230000D0A00001B5B313B33326D5B4F4B5D1B36
:105240005B306D0D0A0D0A001B5B313B33316D5B2A
:105250004641494C5D3A2025731B5B306D0D0A0DAC
:105260000A0000007CB5054600241548FCF7DEFD69
:10527000E868002815DD13A0FCF7D8FD0BE0A000BE
:1052800046198036611C13A0B269FCF7CFFDB069E6
:1052900004F0AAF9641CE868A042F0DC1148FCF7AD
:1052A000C5FDE968A868019100902A6969680E48FF
:1052B0008B1AFCF7BBFD0248FCF7B8FD7CBD000073
:1052C00088E400004641494C204C4953543A0D0AA9
:1052D0000000000020205B253032645D2025730D26
:1052E0000A00000038E40000D8E40000F0B58FB0F8
:1052F0006EA00E9070A00D900D98FBF744F8054637
:10530000202105A8FBF709F82020049001232A4654
:105310000D990E98FDF75EFF6B4F00263C468034DA
:1053200000282CD0FD68402006F0F5FDA900CD191D
:105330008035A861654F00281CD04021FAF7EDFFA9
:10534000606963A1436865A201920391029700938B
:10535000036870A23F21A869FCF778FD402805DBAF
:10536000A86973A23C300421FCF770FD6069C66136
:105370000FB0F0BD3A4659A16EA0FCF7D1FD04AACA
:1053800005A90E98FDF7B2FE00282CD0FD6840203C
:1053900006F0C1FDA900CD198035A8614B4FFF1C57
:1053A00000281BD04021FAF7B8FF606948A1436884
:1053B0004AA20192039102970093036855A23F21EC
:1053C000A869FCF743FD402805DBA86958A23C30DA
:1053D0000421FCF73BFD6069C661C9E73A463FA17D
:1053E00054A0FCF79DFD0498A8422CD0FD684020F5
:1053F00006F091FDA900CD198035A861334F3F1DFE
:1054000000281BD04021FAF788FF60694FA143684C
:1054100032A2019203910297009303683DA23F21BB
:10542000A869FCF713FD402805DBA86940A23C30C1
:105430000421FCF70BFD6069C66199E73A4627A194
:105440003CA0FCF76DFD05A80D99FAF7A3FF002815
:105450008ED0FD68402006F05EFDA900CD19803594
:10546000A861CF27BF0000281BD04021FAF755FFC5
:1054700060693CA1436819A20192039102970093CD
:10548000036824A23F21A869FCF7E0FC402805DB63
:10549000A86927A23C300421FCF7D8FC6069C661EA
:1054A00066E73A460DA123A0FCF73AFD74657374D4
:1054B0005F6B765F6B657900746573745F6B765FA5
:1054C00076616C7565000000C4760020370300002B
:1054D0005B726574203D3D20305D00002E2E5C2EF9
:1054E0002E5C2E2E5C2E2E5C746573745C7465735A
:1054F00074636173655C6365727469666963617422
:10550000655F746573745C616F735F746573742E2B
:105510006300000025732E257320696E20257328F3
:10552000256429206578706563746564202573009F
:105530002E2E2E006375742E636572726D73675B19
:10554000695D20213D204E554C4C00005B67657421
:105550005F6C656E203D3D207365745F6C656E5DAC
:10556000000000005B6765745F76616C7565203DC7
:105570003D207365745F76616C75655D00000000A9
:10558000F0B58DB056A559A42046FAF7FCFE0646A4
:10559000202105A8FAF7C1FE202004902846FDF737
:1055A00019FD0123324621462846FDF713FE534FCD
:1055B00000263C46803400282CD0FD68402006F0B0
:1055C000AAFCA900CD198035A8614D4F00281CD038
:1055D0004021FAF7A2FE60694AA143684CA20192F9
:1055E000039102970093036857A23F21A869FCF733
:1055F0002DFC402805DBA8695AA23C300421FCF7A9
:1056000025FC6069C6610DB0F0BD3A4640A156A0C8
:10561000FCF786FC2846FDF7DDFC00282CD0FD6851
:10562000402006F078FCA900CD198035A861344FE0
:10563000FF1C00281BD04021FAF76FFE606931A1E2
:10564000436833A2019203910297009303683EA23C
:105650003F21A869FCF7FAFB402805DBA86941A2B5
:105660003C300421FCF7F2FB6069C661CBE73A46A7
:1056700027A13DA0FCF754FC04AA05A92846FDF784
:1056800035FD0028BFD1FD68402006F044FCA9008C
:10569000CD198035A8611A4FBF1D00281BD04021AD
:1056A000FAF73BFE606936A1436819A201920391A3
:1056B00002970093036824A23F21A869FCF7C6FB68
:1056C000402805DBA86927A23C300421FCF7BEFB7B
:1056D0006069C66197E73A460DA123A0FCF720FC5C
:1056E000746573745F6B765F6B6579007465737452
:1056F0005F6B765F76616C7565000000C476002094
:105700004B0300005B726574203D3D20305D00005E
:105710002E2E5C2E2E5C2E2E5C2E2E5C74657374E9
:105720005C74657374636173655C636572746966E8
:1057300069636174655F746573745C616F735F74D2
:105740006573742E6300000025732E257320696E27
:105750002025732825642920657870656374656445
:10576000202573002E2E2E006375742E63657272D1
:105770006D73675B695D20213D204E554C4C0000E8
:105780005B72657420213D20305D0000F0B5B7B03C
:10579000402127A8FAF7C1FD402117A8FAF7BDFD5F
:1057A000402106A8FAF7B9FD0027059700259A4E73
:1057B0003446803429E1402127A8FAF7AEFD402184
:1057C00017A8FAF7AAFD402106A8FAF7A6FD2A466F
:1057D00092A127A8FCF750FB2A4694A117A8FCF732
:1057E0004BFB17A8FAF7CFFD1690012317A927A89E
:1057F000169AFDF7EFFC00282DD0F568402006F042
:105800008AFBA9008D198035A8616D26F600002855
:105810001CD04021FAF781FD606989A143688BA201
:105820000192039102960093036896A23F21A86912
:10583000FCF70CFB402805DBA86999A23C30042149
:10584000FCF704FB6069C76137B0F0BD32467FA149
:1058500094A0FCF765FB4020059005AA06A927A89F
:10586000FDF744FC00282CD0F568402006F053FBDF
:10587000A9008D198035A861DB26B60000281BD051
:105880004021FAF74AFD60696DA143686FA2019259
:1058900003910296009303687AA23F21A869FCF75E
:1058A000D5FA402805DBA8697DA23C300421FCF72D
:1058B000CDFA6069C761C7E7324664A179A0FCF7F9
:1058C0002FFB0599169881422BD0F568402006F0F1
:1058D00022FBA9008D198035A861784E00281BD0C5
:1058E0004021FAF71AFD606975A1436857A2019239
:1058F000039102960093036862A23F21A869FCF716
:10590000A5FA402805DBA86965A23C300421FCF714
:105910009DFA6069C76197E732464CA161A0FCF728
:10592000FFFA17A906A8169AFAF742FD00282CD00C
:10593000F568402006F0EFFAA9008D198035A861BE
:105940005E4E761C00281BD04021FAF7E6FC606909
:1059500061A143683DA201920391029600930368FE
:1059600048A23F21A869FCF771FA402805DBA86925
:105970004BA23C300421FCF769FA6069C76163E718
:10598000324632A147A0FCF7CBFA27A8FDF722FB4D
:1059900000282CD0F568402006F0BDFAA9008D192A
:1059A0008035A861454E361D00281BD04021FAF7EE
:1059B000B4FC606922A1436824A20192039102967B
:1059C000009303682FA23F21A869FCF73FFA402803
:1059D00005DBA86932A23C300421FCF737FA606984
:1059E000C76131E7324619A12EA0FCF799FA64216C
:1059F0002846FAF7E9FB002904D1394A294639A09B
:105A0000FCF714FA0120FDF745FD284634496D1CCA
:105A1000884200DACFE617E7C4760020746869731D
:105A20005F69735F6B65795F2564000074686973F3
:105A30005F69735F76616C75655F256400000000C7
:105A40005B726574203D3D20305D00002E2E5C2E83
:105A50002E5C2E2E5C2E2E5C746573745C746573E4
:105A600074636173655C63657274696669636174AC
:105A7000655F746573745C616F735F746573742EB6
:105A80006300000025732E257320696E202573287E
:105A9000256429206578706563746564202573002A
:105AA0002E2E2E006375742E636572726D73675BA4
:105AB000695D20213D204E554C4C00006D030000D7
:105AC0005B6765745F6C656E203D3D207365745F38
:105AD0006C656E5D000000005B547275655D0000D2
