:1000000000800020955D0000E15D0000E15D0000E2
:1000100000000000000000000000000000000000E0
:10002000000000000000000000000000E15D000092
:10003000000000000000000005010000715D0000EC
:10004000E15D0000E15D0000E15D0000E15D0000B8
:10005000E15D0000E15D0000E15D0000E15D0000A8
:10006000E15D0000795200008952000099520000C1
:10007000A9520000B9520000C9520000E15D000021
:10008000E15D0000E15D0000E15D0000E15D000078
:10009000E15D0000E15D0000E15D0000E15D000068
:1000A000E15D0000E15D0000E15D0000E15D000058
:1000B000E15D0000E15D0000E15D00000000000086
:1000C000EFF3108072B6704780F3108870472148B4
:1000D0002149016070471F481F49016070471F4850
:1000E00002681F490A430260002080F30988EFF389
:1000F0000880C008C00080F30888164816490160CF
:1001000062B6FEE772B6EFF3098000280ED0203801
:10011000F0C044464D4656465F46F0C0203811496F
:1001200009680860744606F07BFFA6460D480E4934
:100130000A6802601068F0C80CC8904699460CC85E
:1001400092469B4680F30988704604210843864600
:1001500062B6704704ED00E00000001020ED00E002
:100160000000C0C0CC070020640E002002B471461D
:1001700049084900095C49008E4402BC7047C046EA
:10018000002243088B4274D303098B425FD3030AD6
:100190008B4244D3030B8B4228D3030C8B420DD3E9
:1001A000FF22090212BA030C8B4202D31212090277
:1001B00065D0030B8B4219D300E0090AC30B8B42B5
:1001C00001D3CB03C01A5241830B8B4201D38B0363
:1001D000C01A5241430B8B4201D34B03C01A524108
:1001E000030B8B4201D30B03C01A5241C30A8B424B
:1001F00001D3CB02C01A5241830A8B4201D38B0236
:10020000C01A5241430A8B4201D34B02C01A5241D9
:10021000030A8B4201D30B02C01A5241CDD2C3094B
:100220008B4201D3CB01C01A524183098B4201D3C7
:100230008B01C01A524143098B4201D34B01C01AB2
:10024000524103098B4201D30B01C01A5241C3082A
:100250008B4201D3CB00C01A524183088B4201D399
:100260008B00C01A524143088B4201D34B00C01A85
:100270005241411A00D20146524110467047FFE7F1
:1002800001B5002000F0F0F802BDC0460029F7D00B
:1002900076E7704703460B437FD4002243088B4226
:1002A00074D303098B425FD3030A8B4244D3030BFD
:1002B0008B4228D3030C8B420DD3FF22090212BAC2
:1002C000030C8B4202D31212090265D0030B8B423E
:1002D00019D300E0090AC30B8B4201D3CB03C01A28
:1002E0005241830B8B4201D38B03C01A5241430B03
:1002F0008B4201D34B03C01A5241030B8B4201D3F3
:100300000B03C01A5241C30A8B4201D3CB02C01A5D
:100310005241830A8B4201D38B02C01A5241430AD5
:100320008B4201D34B02C01A5241030A8B4201D3C4
:100330000B02C01A5241CDD2C3098B4201D3CB016B
:10034000C01A524183098B4201D38B01C01A52411A
:1003500043098B4201D34B01C01A524103098B421E
:1003600001D30B01C01A5241C3088B4201D3CB0009
:10037000C01A524183088B4201D38B00C01A5241EC
:1003800043088B4201D34B00C01A5241411A00D29C
:1003900001465241104670475DE0CA0F00D0494205
:1003A000031000D34042534000229C4603098B4275
:1003B0002DD3030A8B4212D3FC22890112BA030AFD
:1003C0008B420CD3890192118B4208D3890192117F
:1003D0008B4204D389013AD0921100E08909C30904
:1003E0008B4201D3CB01C01A524183098B4201D306
:1003F0008B01C01A524143098B4201D34B01C01AF1
:10040000524103098B4201D30B01C01A5241C30868
:100410008B4201D3CB00C01A524183088B4201D3D7
:100420008B00C01A5241D9D243088B4201D34B00F2
:10043000C01A5241411A00D20146634652415B1034
:10044000104601D34042002B00D549427047634615
:100450005B1000D3404201B5002000F005F802BD5A
:100460000029F8D016E770477047C0468446081C3C
:100470006146FFE71FB500F0E5FA002801D400212E
:10048000C8421FBD10B500F067FA4042013010BDF0
:1004900010B500F0D7FA002801DB002010BD0120C4
:1004A00010BDC04610B500F0CDFA002801DD0020D7
:1004B00010BD012010BDC04610B500F075FA00282F
:1004C00001DC002010BD012010BDC04610B500F0B9
:1004D0006BFA002801DA002010BD012010BDC046D3
:1004E000002B11D1002A0FD1002900D1002802D001
:1004F0000021C943081C07B4024802A14018029019
:1005000003BDC04665FFFFFF03B4684601B502980E
:1005100000F04EF8019B9E4602B00CBC7047C046EE
:10052000F0B5CE46474615042D0C2E0080B50704C5
:10053000140C3F0C9946030C7E435D4367436343B1
:100540007F19340CE4199C46A54203D980235B0231
:100550009846C4444B4643435143250C36046544F6
:10056000360C2404A4195B19591820000CBC9046C1
:100570009946F0BD70B500220C4B04000D0001F04F
:10058000BFFF002804D12000290001F0C3FE70BD88
:10059000064B00222000290001F074FB01F0BAFE96
:1005A00080231B069C466044F1E7C0460000E04102
:1005B000F0B54F464646D646C0B5040082B00D00A1
:1005C000914698468B422FD82CD04146484601F0A0
:1005D000BFFF29000600200001F0BAFF331A9C4635
:1005E000203B9A4600D576E04B46524693401F008A
:1005F0004B46624693401E00AF4228D825D0534652
:10060000A41BBD41002B00DA7BE0002200230092F6
:100610000193012352469340019301236246934084
:10062000009318E08242D0D9002200230092019367
:100630000A9B002B01D01C605D600098019902B0FC
:100640001CBC90469946A246F0BDA342D7D90022D1
:100650000023009201936346002BE9D0FB079846E4
:10066000414672080A437B0866460EE0AB4201D160
:10067000A2420CD8A41A9D41012024196D410021E9
:10068000013E24184D41002E06D0AB42EED9013E6A
:1006900024196D41002EF8D1009801995346001994
:1006A0006941002B23DB2B005246D3402A006446CD
:1006B000E2401C0053461500002B2DDB2600574658
:1006C000BE40330026006746BE403200801A994182
:1006D00000900191ACE7624620239B1A4A46DA401B
:1006E0006146130042468A4017001F4380E7624676
:1006F00020239B1A2A0066469A402300F3401343A6
:10070000D4E76246202300219B1A00220091019227
:100710000122DA40019280E72023624626009B1ADC
:10072000DE402F00B0466646B74046463B003343A6
:10073000C8E7C046F8B557464E464546DE46440231
:10074000E0B546008846640A360EC70F002E63D017
:10075000FF2E24D08023E400DB041C4300239946B1
:100760009B467F3E434642465D02D20F5B006D0AC8
:100770001B0E9046924665D0FF2B55D0802200215B
:10078000ED00D2047F3B1543F61A43464A467B40B0
:100790000F2A00D98DE06D48920082589746002CB0
:1007A00054D108239946063BFF269B46DAE70025ED
:1007B000534602291BD0032900D1BFE0012928D0CC
:1007C00030007F30002820DD6A0704D00F222A4045
:1007D000042A00D004352A0103D530005C4A803059
:1007E0001540FE2803DCAC01640AC2B201E0FF221E
:1007F00000246402D205600ADB07104318433CBCA6
:1008000090469946A246AB46F8BD0122101A1B2815
:100810007CDD00220024ECE7002C1DD10423994646
:10082000033B00269B469DE7FF3E002D20D1022181
:1008300043464A467B400A430F2AD8D8454892008F
:1008400082589746002D19D10121F1E70C239946D2
:10085000093BFF269B4685E7200001F05BFE7626DC
:10086000431F9C4000237642361A99469B4679E7FF
:100870004A4603231A439146032186E7280001F0E4
:1008800049FE431F36189D40763600217DE78024BF
:100890000023E403FF22ACE700258023DB031C4296
:1008A00028D01D4226D12B435C02640A4346FF2216
:1008B0009FE762016C01A24224D21B210025013E68
:1008C000012710006D005200002801DB944201D87E
:1008D000121B3D4301390029F3D11400621E9441DB
:1008E00025436DE7BA46594625005346022900D0F4
:1008F00061E77CE78023DB031C436402640A3B005E
:10090000FF2276E7121B1A210125D9E79E362A001D
:10091000B5402C00C240651EAC411443620704D0B0
:100920000F222240042A00D00434620103D4A4011F
:10093000640A00225DE7012200245AE78024E403D0
:100940002C436402640AFF2253E7C04650C00000F3
:10095000FFFFFFF790C0000070B542004E024C0050
:1009600045026D0A120EC30F760A240EC90FFF2A24
:100970000FD0FF2C11D00120A24200D070BDB54293
:10098000FCD18B420DD0002AF8D12800451EA84189
:10099000F4E70120002DF1D1EBE70120002EEDD18D
:1009A000E9E70020EAE7C04670B54A004E0245027A
:1009B00044006D0A240EC30F760A120EC90FFF2CD5
:1009C00015D0FF2A0ED0002C15D1002A01D1002EFF
:1009D0001CD0002D14D08B4227D00220013B1840A0
:1009E000013870BD002EEED002204042F9E7002D04
:1009F000FAD1FF2A0ED0002A0ED1002EEDD00BE046
:100A000001230139994308000130EAE70020002D55
:100A1000E7D0E2E7002EE7D18B42DED1944205DD3C
:100A20000221581E08400138DBE70024A24204DC02
:100A3000B542D2D80020B542D3D2581E01239843E4
:100A40000130CEE730B5420044024D02C30F4800EA
:100A5000640A120E6D0A000EC90FFF2A12D0FF2879
:100A60000CD0002A12D1002819D1002D17D1002C4A
:100A70002BD00220013B1840013826E0002DF0D099
:100A8000022022E0002CFBD1FF281FD000281FD11C
:100A9000002D1DD10220013B1840013815E0002C2B
:100AA0000ED08B42E5D10022904204DCAC42E0D86B
:100AB0000020AC4209D2581E01239843013004E0C3
:100AC0000123013999430800013030BD002DD7D1F1
:100AD0008B42CED18242E7DD0221581E0840013808
:100AE000F3E7C04670B5041E34D001F013FD9E221A
:100AF000121A962A07DCD2B208282EDD0838844064
:100B00006002400A21E0992A09DD030021001B331D
:100B100099404B1E994105231B1ADC400C430528C4
:100B200001DD431F9C4023000D490B40650709D0A0
:100B30000F252C40042C05D004335C0102D59F22E4
:100B40000B40121A9B01580AD2B24002D205400A49
:100B5000104370BD00220020F7E76002400AF4E76E
:100B6000FFFFFFFBF0B54F464646D6460C00090393
:100B7000C0B5490A470F5E0039431F03DB0F9C468F
:100B800065007B0A570F1F436D0DE40F760DA146DC
:100B9000C000B846D200AB1B64457BD0002B5FDDA4
:100BA000002E00D0A4E03E00164300D112E15E1EEC
:100BB000002E00D09EE1871A4346B84280410125AD
:100BC000C91A4042091A0B0200D431E149024E0A07
:100BD000002E00D16EE1300001F09CFC0300083BC8
:100BE0001F2B00DD61E120223900D21A9E40D14046
:100BF0009F400E439D4200DD51E15D1B6B1C1F2B8E
:100C000000DD7CE12021C91A3D0030008F40884082
:100C1000DD40791E8F41310007222843D94000254D
:100C200007433A40002A09D00F233B40042B05D04C
:100C30003B1DBB42BF417F42C9191F000B0200D4BC
:100C400026E26A1CC64B55056D0D9A4200D106E19D
:100C5000C44AFF080A40530752023B43120B8EE07E
:100C6000002B00D0B8E06B1C5B055B0D012B00DC9A
:100C700030E1871A4346B842B641CB1A76429E1BF2
:100C8000330200D54CE13B003343A1D100220024C4
:100C9000002570E0002B00DCE5E0002E00D183E0B1
:100CA000AF4EB54260D0802636043743B846382B65
:100CB00000DC3EE1434613431F007A1E97413F1874
:100CC00087428041404209180B0200D4B0E0A44B97
:100CD00001359D4200D1C3E0A24A7B080A400121B0
:100CE0000F401F435108D30707221F433A4099E79B
:100CF0009B4EB54238D0802636043743B846382B51
:100D000000DDDCE01F2B00DC30E11E004746203E0A
:100D1000F740BC46202B04D04026F31A46469E409E
:100D20003243170063467A1E97411F43CCE0002BE5
:100D300000D104E24346134300D159E14B07C008F8
:100D400018438023C9081B03194208D04546ED0803
:100D50001D4204D14346D008590708432900420FD9
:100D6000C9007F4D1143C0004B07CA087C49C00829
:100D700003438D4268D012036D05120B6D0D0021E7
:100D800012031800130B0A0D12051A43764B2D059A
:100D900013402B435B00E4075B08234319001CBC92
:100DA00090469946A246F0BD3E00164312D05E1E04
:100DB000002E00D000E18718874280414144404224
:100DC000091801250B0233D5022585E76446330057
:100DD000414610001D00C7E7002D00D0DAE00C00EE
:100DE0000443F3D05C1C00D19FE15D4CA64200D1CE
:100DF0002FE1DB43382B00DD66E11F2B00DD83E1B3
:100E000020240500E41A0F00DD40D940A0404346ED
:100E1000A7405B1A441EA04198462F433843171A37
:100E2000BA42924143465242991A64463500CAE694
:100E300007223A40002A00D0F6E64B07CA08484984
:100E4000FF083B438D4296D11900114300D19EE12A
:100E5000802109030A431203120B414D8FE715004D
:100E6000002200238BE7002B00D0C7E06B1C5F053E
:100E70007F0D012F00DCF1E0394DAB4200D1B9E02C
:100E800085180A0085428941424449425118072287
:100E9000CF076D082F4349083A401D00C2E60722DC
:100EA0003049ED1A31403A40BCE63E0028388640D1
:100EB00000279FE6380001F02DFB20308EE64346E8
:100EC00013431F007A1E9741C71BB842804140421E
:100ED000091A78E60E003B0006431343002D61D14A
:100EE000002E00D0F4E0002B00D11BE16446390055
:100EF000100039E71A4FBB427AD03300FFE63000CA
:100F00001F3DE840202B03D04021CB1A9E403743A1
:100F10007B1E9F41072207433A400021002589E7B5
:100F2000171A4346BA42B641591A76428E1B644696
:100F30004EE61F2B00DDADE020264746F61AB740EF
:100F4000B9461700B246DF404E463E43370056468C
:100F5000B240561EB24117434246DA408918AEE607
:100F6000FF070000FFFF7FFFFFFF0F80202647469F
:100F7000F61AB740B9461700B246DF404E463E4328
:100F800037005646B240561EB24117434246DA4039
:100F9000891A99E77F4CA6425BD0802424045B42E7
:100FA000214327E7002E0CD1002B00D1CBE0644673
:100FB00039001000774DD7E6764FBB4218D033008A
:100FC00075E6002B14D04B07C00818438023C908CE
:100FD0001B03194207D0FC081C4204D17907D00832
:100FE0000843E14621004C46420FC9001143C000AE
:100FF000684DB9E61D0000220023C0E6002D5BD13C
:101000000D00054300D1E2E65D1C00D1B0E0614D6A
:10101000AE421FD0DB43382B71DC1F2B00DD96E086
:1010200020250F00ED1AAF40B9460700AA46DF4061
:101030004D463D432F005546A840D940451EA84186
:1010400088440743BF1897429241514241443500BA
:101050003AE6644635004146100085E60B0003433E
:10106000002D00D063E6002BF5D04346134300D19A
:101070007AE6871887428041072241444042091896
:101080003A400B0200D4D5E6434B01351940C9E57F
:10109000380069E61E004746203EF740BC46202B3C
:1010A00004D04026F31A46469E403243170063465A
:1010B0007A1E97411F4302E6364DAE42CAD08025C4
:1010C0002D045B422943A6E70843411E8841A6E65A
:1010D000002B00D148E6871A4346B842B641CB1AE6
:1010E00076429E1B33024BD5171A4346BA429241B1
:1010F000591A5242891A072264463A4092E501433E
:101100000F00791E8F419DE71C000F00203CE74037
:10111000202B03D04024E31A99400843411E884104
:1011200038437CE60022002425E6171A4346BA42DB
:101130009241591A5242891A6446350043E54146A4
:101140001000144D10E680220024120380E61D00DA
:101150000F00203DEF40BC46202B03D04025EB1A6A
:101160009940084307006346781E87411F4369E79B
:10117000871897429B4141445B42C9183500A3E55B
:101180003B003343CED0072231003A4052E60023E1
:101190001A00F4E5FF070000FFFF7FFFF0B5574698
:1011A000DE464E464546E0B5834607000E0348003E
:1011B00085B092461C00360B400DCD0F002800D1A3
:1011C0009DE0954B984239D08023F6001B041E43C6
:1011D000924A7B0F3343994694460300634400933D
:1011E00000230026FF00029323031B0B9846630095
:1011F000E40F52465B0D019400D1B3E086498B4267
:1012000000D19EE04246D100802212040A4351469A
:10121000490F11438B46814952468C4600996344DD
:10122000CB1A0021D20000932B0063409A460F2E68
:1012300000D905E17A4BB6009B599F465B46334384
:10124000994600D0B8E002230826002700900293B8
:10125000CAE7CB463A0002990195019B9A460229BA
:1012600027D0032900D180E2012944D06D49009B99
:101270008C4663441C00002C38DD530700D013E279
:10128000D2085B46DB0109D55946674B19408B46AE
:101290008021C9008C46009B63441C00634B9C4228
:1012A00007DC5B4664055F075B0217431B0B620D9F
:1012B00002E000230027584A00211B031C0B0B0DE2
:1012C0001B05234314055A4A380013401C43534658
:1012D0006400DB0764081C43210005B03CBC904659
:1012E0009946A246AB46F0BD0122524201231B1B88
:1012F000382B00DCADE1002200230027DCE75B4651
:10130000334399465ED0002E00D18AE1300001F0CF
:1013100001F903000B3B1C2B00DD7BE11D22D31ADE
:101320005A460100DA4008398E4013005F463343C5
:1013300099468F403F4B00261B1A009300230293CF
:1013400052E7414653460B433B499B468C46009B24
:10135000634400935B46002B3BD1022300221E43D3
:10136000022161E7434613439B4637D04346002B97
:1013700000D162E1404601F0CDF803000B3B1C2B8D
:1013800000DD53E102004146083A914088461D21A4
:10139000CB1A5146D9400B0041460B439B4653465E
:1013A00093401A00009B25499C46604403008C46EC
:1013B00063440093002137E70323B14600900C26D5
:1013C000029311E7002300930133042600270293C0
:1013D0000AE70323C3461E43032125E701331E43C7
:1013E0000022012120E700239A46802300271B03C7
:1013F000094A61E7802349461B03194200D1E2E014
:101400005946194200D0DEE00B431B0317001B0BAB
:10141000A246014A50E7C046FF07000001FCFFFF5B
:10142000D0C00000FF030000FFFFFFFEFE0700002A
:10143000FFFF0F800DFCFFFF01F8FFFFF30300002B
:10144000D94500D9CBE000D1C6E03C004846002792
:10145000009B013B00935B46160E1B021E431302CA
:10146000984633041B0C9946310C0191FEF70EFF90
:101470004A4642430B04210C050019438A4207D90E
:101480008919013D8E4203D88A4201D9851E8919E6
:10149000881A0199FEF7FAFE09048C464A4621048F
:1014A00064464243090C030021438A4204D9891946
:1014B000013B8E4200D8F1E02D041D43AB4643466C
:1014C000891A4246280C12041D0C5B46140C22009B
:1014D0001B041B0C5A4303946B434443029568431B
:1014E0001B19150CEB189C4203D980246402A446F6
:1014F00060441C0C15041B042D0C20185D1981423E
:1015000077D373D00C1AA24A7D1BAF42BF419446D9
:10151000009B7F426344E01B1C00864200D1DBE05D
:101520000199FEF7B3FE4A4642430B04290C07001B
:1015300019438A4207D98919013F8E4203D88A424A
:1015400001D9871E8919881A0199FEF79FFE09049F
:101550004A46894629044D464243090C0300294363
:101560008A4207D98919013B8E4203D88A4201D9A0
:10157000831E89193F04891A3A00039F1A433800D1
:1015800013041B0C584381460298150C6F434343C8
:1015900045434846000C8446DB1963449F4203D907
:1015A000802040028446654448461F0C00041B040A
:1015B000000C7D191818A94200D284E000D17FE008
:1015C00001231A4357E680234A461B0313431B0398
:1015D0001B0BAA466F4A6FE6BA4200D935E74B4665
:1015E000DC0758087B081C43FF0734E70024AF42A0
:1015F00089D247444745A4415B466442A419641814
:10160000013BA6421ED2A0426DD800D1B6E0241AFA
:101610009B4678E703005A46283B9A4000279146AC
:1016200088E6584600F076FF203072E60300524606
:10163000283B9A4093460022B4E6504600F06AFFE9
:1016400020309AE6A642E2D1B845DCD9341A9B464E
:1016500059E71F2B65DC504C0099A4465C46614459
:1016600008008C4011008240D940501E82410C433A
:1016700014435A46DA401300620709D00F22224071
:10168000042A05D02200141D9442894149425B1866
:101690001A0262D50122002300270DE68A4200D8F3
:1016A0000AE7831E891907E70F231340042B00D193
:1016B000E6E5171D9742924153429B44FA08E0E544
:1016C000002800D1D7E57118531EB14227D3A94293
:1016D00015D358D01A0073E7002B00DC04E6012371
:1016E00000229B44CDE502234744474589415B42A4
:1016F0009C46494289190C19E344241A03E74346DE
:101700005F0047459B41B8465B429E19023A8919E2
:10171000A94200D054E7404500D051E7ABE51A009C
:10172000F6E71F215F4649420C1BE740202B07D0FC
:101730001A49009B8C46634418005B4683401A4359
:10174000501E82413A4307270023174009D00F213A
:10175000002311401400042995D122005F075B0289
:101760001B0BD20817430022A6E5802359461B0312
:101770000B431B0317001B0B064A9DE5BD42B2D865
:101780009B460024BFE68045B9D31A00C3E7C04694
:10179000FF030000FF0700001E0400003E040000DD
:1017A000F0B55746DE464E464546E0B58346060050
:1017B0000F03480087B092461D003F0B400DCC0F31
:1017C000002800D16FE0DE4B984238D08023FF0024
:1017D0001B041F43730F3B430193DA4B00279946C9
:1017E00000239B46F60081442B0369001B0B5246E5
:1017F0009846490DED0F002900D185E0D04B994264
:1018000000D173E04346DA0080231B0413435246A1
:10181000CC48520F84461343524600206144D20004
:1018200089442100694000918C46012149448A463F
:101830000F2F00D990E0C449BF00CF59BF465B4687
:101840003B43019300D06AE102230827002681462A
:101850009B46C9E732005846019B61460091022829
:1018600000D175E0032800D1FEE1012800D02CE171
:1018700000230027002600253F032A0D3F0BB34815
:1018800012053A4302401B051343009A5B00D1073F
:101890005B080B433000190007B03CBC90469946EA
:1018A000A246AB46F0BD5B463B43019300D12FE11E
:1018B000002F00D1A5E1380000F02CFE03000B3B07
:1018C0001C2B00DD96E11D22D31A5A460100DA4096
:1018D0005E4608398F4013008E403B4301939C4B7A
:1018E00000271B1A994600239B467DE74146534635
:1018F0000B4393498C46E144002B00D01AE10222AD
:101900000220174300228CE7134300D10DE1434628
:10191000002B00D181E1404600F0FCFD02000B3AB3
:101920001C2A00DD72E10100434608398B409846CD
:101930001D239A1A5346D3401A0043461343524676
:101940008A404946081A824989468144002068E74E
:101950007B4B002700268EE7140C1204120C11009A
:10196000370C3604350C794328008C462E00604332
:101970006044834656432100300C804658467943E4
:1019800040440291844506D98846802149028C460C
:10199000E044414602913604010C360C00048B46AB
:1019A00081191E0C1B041B0C0391190079438C46F2
:1019B000280075436544A8465843050C45447743C1
:1019C000A94203D9802149028C466744290C8C46E0
:1019D00039000004000C2D042D186144AB4405911E
:1019E0005946049101990F043F0C080C39005143EA
:1019F0004243904602008C46090C8B4662437C436E
:101A000044445C44A04503D98021490288464244AD
:101A1000210C884661460904090C8C46390059435B
:101A2000434370437E430F0CF6182404BE196444EC
:101A300042448C46B34203D980235B02984640441B
:101A4000029B61469846049B370443449B46AB4542
:101A5000AD416B420D0405992D0C8C467F196744EE
:101A6000FD18A8465D462D19A542A441934664423F
:101A7000A446C344DC448F42BF4198459B419345F3
:101A80009241A445A4415B427F421F43360C52421F
:101A90006442BF192243BF18624638184302D20D70
:101AA000039913436A020A43501E82416146ED0DB9
:101AB0002A434E023243D90100D4B3E00126500834
:101AC00032400243DE0732435B08224C5444002C70
:101AD00062DD510709D00F201040042805D0101DE9
:101AE0009042924152429B180200D90104D58024B1
:101AF0001948E400034054441848844200DD27E7B5
:101B00005E075B02D2081F0B630516435B0DB2E64E
:101B1000002399460133042700269B4664E60323ED
:101B2000019781460C279B465EE601220120174360
:101B3000002276E6032303201F43434671E6C04696
:101B4000FF07000001FCFFFF10C10000FFFF0F8036
:101B50000DFCFFFFFF030000FFFFFFFEFE0700007C
:101B60000023802700933F030026434B83E6019B1D
:101B70003200A446584670E6AC466EE680270199CE
:101B80003F0339422DD03B422BD11F433F033F0B34
:101B900000951600384B6EE601252D1B382D00DD13
:101BA00066E61F2D40DC35481C005044160082407C
:101BB0008440EE40501E824134431443EB406207A0
:101BC00009D00F222240042A05D02200141D94427D
:101BD000804140421B181A023ED5012300270026EF
:101BE00049E68027019B3F031F433F033F0B0094BF
:101BF000214B40E603005A46283B9A4000260192BA
:101C00006DE6584600F086FC203057E60300524649
:101C1000283B9A401300002293E6504600F07AFCDD
:101C200020307BE6CA4650E71F201E004042041BBE
:101C3000E640202D03D0124C5444A3401A43501EBA
:101C40008241324307260027164009D00F20002387
:101C5000104014000428B9D122005E075B021F0B5C
:101C6000D2081643002306E680273F031F433F03A5
:101C70003F0B1600004BFEE5FF0700001E040000AE
:101C80003E040000F8B557464E464546DE460C0079
:101C90000903E0B5490A460F5F0031431E03DB0F1D
:101CA000760A9B46530F3343C84E6500C000E40FCD
:101CB000D2006D0DA24681467F0D9C469046B742EC
:101CC00000D1B9E05B46012673409B46EE1BA3455D
:101CD00000D183E0002E63DD002F00D0B1E0634629
:101CE000134300D123E1731E002B00D0BAE1861A02
:101CF0006346B04280410125C91A4042091A0B02CD
:101D000000D447E149024B0A98464346002B00D1D4
:101D100089E1404600F0FEFB0300083B1F2B00DD7D
:101D20007CE120223000D21A4146D0409940020086
:101D30009E400A439D4200DD6AE15D1B6B1C1F2B28
:101D400000DD94E1202110003500C91A8E40DA40F0
:101D50008840DD40711E8E41110007222843002576
:101D600006433240002A09D00F233340042B05D00C
:101D7000331DB342B641764289191E000B0200D4CE
:101D80003DE26A1C914B55056D0D9A4200D119E157
:101D90008F4AF6080A40570752023743120B9BE05E
:101DA000002E00D0C5E06E1C7605760D012E00DCFD
:101DB00048E16746861ACB1BB042BF417F42B84616
:101DC0001F004346FF1A3B00B8461B0200D55FE1E7
:101DD00037439AD100220024002579E0002E00DC50
:101DE000FAE0002F00D18DE0784B9D4267D0802330
:101DF00067461B041F43BC46382E00DC52E1634695
:101E000013435A1E93411E188642804140420918CE
:101E10000B0200D4BEE06D4B01359D4200D1D2E0F3
:101E20006B4A73080A4001210E401E435108D30734
:101E300007221E43324095E71E00164300D045E7B7
:101E400040E7624B9D423AD0802367461B041F4304
:101E5000BC46382E00DDEBE01F2E00DC3AE13300FB
:101E60006746203BDF403B00202E05D04027BF1BAC
:101E70006646BE40324390464646721E9641334304
:101E8000DAE0002B00D114E26346134300D168E18D
:101E900080234E07C008C9081B030643194208D017
:101EA0006046C008184204D163460100D2085E07AC
:101EB0001643F3009946C900720F444D11434B4637
:101EC000DE08424B4F073743CA089D4200D16EE0FF
:101ED00012036D05120B6D0D00211203130B0A0D79
:101EE00012051A433B4B2D0513402B435B00E407BF
:101EF0005B082343380019003CBC90469946A24633
:101F0000AB46F8BD6346134311D0731E002B00D0BF
:101F100007E1861886428041614440420918012544
:101F20000B0237D502257BE73E006146914635001E
:101F3000C5E75C46002D00D0E1E00B000343F3D081
:101F4000731C00D1ACE1214B9F4200D13AE1F34335
:101F5000382B00DD6FE11F2B00DD8CE120250E000A
:101F6000ED1AAE40B0460600AA46DE40454635436F
:101F70002E005546D940A8406346451EA8415B1A2D
:101F80009C463043161AB242924163465242991A15
:101F90003D00B4E607223240002A00D0E4E60B4BB5
:101FA000F6084F073743CA089D4200D090E73B0030
:101FB000134300D1A6E180231B031A431203120B23
:101FC000024D89E715000022002785E7FF07000082
:101FD000FFFF7FFFFFFF0F80002E00D0C7E06B1CCC
:101FE0005E05760D012E00DCF0E0C84DAB4200D15D
:101FF000B9E085180A008542894162444942511876
:102000000722CE076D082E43490832401D00A9E67D
:10201000BF49ED1A114007223240A3E632002838AA
:102020008240002686E6300000F074FA203073E625
:10203000634613435A1E9341C61AB0428041404240
:10204000091A5CE60E00674606431743002D5ED171
:10205000002E00D0F3E0002F00D11EE15C46614667
:1020600091462CE7A94FBE427BD01E00F1E610003E
:102070001F3DE840202B03D04021CB1A9A40164345
:10208000731E9E410722064332400021002583E74C
:10209000161A6346B2428041591A40420B1A9846BA
:1020A0005C4632E61F2E00DDABE02027BB1B9A46C4
:1020B00063465746BB40994613004F46F3401F43C3
:1020C0003B005746BA40571EBA4113436246F2409E
:1020D000891898E62027BB1B9A4663465746BB40A3
:1020E000994613004F46F3401F433B005746BA4002
:1020F000571EBA4113436246F240891A9CE7834B4C
:102100009F425FD080252D047342294320E7002E93
:102110000CD1002F00D1D0E05C46614691467B4D4A
:10212000CDE67A4FBE421CD01E0065E6002F18D0C7
:10213000C0084E0706438020C9080003014208D0AA
:102140006346DC08044204D12100DA46D2085E0767
:102150001643F300994601245346C900720F1143F8
:102160001C406A4DABE61D0000220027B4E6002D9E
:1021700059D10B00034300D1D6E6731C00D1B2E065
:10218000624B9F421ED0F343382B6FDC1F2B00DDC8
:1021900097E020250E00ED1AAE40B0460600AA4694
:1021A000DE40454635432E005546A840D940451EE1
:1021B000A8418C440643B61896429241514261446C
:1021C0003D0025E63D006146914678E60B0003435D
:1021D000002D00D055E6002BF5D06346134300D107
:1021E0006DE686188642804161444042091800220B
:1021F0000B0200D4D0E6464B01351940B2E5B1469A
:102200005DE633006746203BDF403B00202E05D0D3
:102210004027BF1B6646BE40324390464646721E6C
:1022200096413343EFE5394B9F42CBD080252D04B7
:1022300073422943A8E70843411E8841A2E6002FC4
:1022400000D13CE66346861ACF1AB0429B415B42FE
:10225000FB1A98461B024ED5161A6346B2429241AB
:10226000591A5242891A5C4600227BE501430E004E
:10227000711E8E419FE71D000E00203DEE40B046CE
:10228000202B04D04025EB1A99400843814648464C
:102290004346411E8841184374E60022002417E695
:1022A000161A6346B2429241591A5242891A3D00A7
:1022B00025E561469146154D01E680220024120372
:1022C00079E61D000E00203DEE40B046202B04D0E4
:1022D0004025EB1A9940084381464E464346711EFD
:1022E0008E411E4367E7861896429B4161445B42DC
:1022F000C9183D008CE547463743CED007224146FA
:10230000324049E600273A00E6E5C046FF070000F4
:10231000FFFF7FFF30B5144D0A034B00120B5B0D1E
:10232000C90F0024AB4211DD104CA34210DC802405
:10233000640322430E4CE41A1F2C0CDD0D48C31A13
:10234000DA4013005C42002900D11C00200030BD9F
:10235000094BCC18FAE7094DE040AC4663449A407B
:1023600013000343EEE7C046FE0300001D04000017
:102370003304000013040000FFFFFF7FEDFBFFFFAD
:1023800070B500282DD0C317C5185D40C40F2800B4
:1023900000F0C0F8154B1B1A5B055B0D0A2815DD14
:1023A0000B38854000222D032D0B002110002D033A
:1023B0000A0D2D0B12052A430D4D1B052A40134310
:1023C0005B00E4075B082343190070BD020029008D
:1023D000153291400A000B21081AC5402D032D0B20
:1023E000E3E70024002300250022DEE71E040000AE
:1023F000FFFF0F804100090E4B1C70B5DBB2460297
:10240000750AC40F012B14DDE0239B006D07360B0A
:10241000CB1800210A0D280012051C4D32435B0524
:102420002A405B0813435B00E4075B082343190061
:1024300070BD002914D1002D1ED0280000F06AF8CC
:102440000A281CDC0B232A001B1ADA400300153370
:102450009D400F4B12031B1A5B05160B5B0DD8E753
:10246000002D06D0320B802636036D071643094B2C
:10247000CFE7084B0026CCE700230026C9E703007E
:102480002A000B3B9A400025E3E7C046FFFF0F8080
:1024900089030000FF0700008446101C62468C463A
:1024A000191C634600E0C0461FB500F0FDF8002887
:1024B00001D40021C8421FBD10B500F055F84042BC
:1024C000013010BD10B500F0EFF8002801DB00204E
:1024D00010BD012010BDC04610B500F0E5F8002881
:1024E00001DD002010BD012010BDC04610B500F078
:1024F00077F8002801DC002010BD012010BDC04687
:1025000010B500F06DF8002801DA002010BD0120A0
:1025100010BDC0461C2101231B04984201D3000CAE
:1025200010391B0A984201D3000A08391B09984246
:1025300001D30009043902A2105C40187047C0465C
:10254000040302020101010100000000000000007C
:1025500010B5002903D1FFF7DDFF203002E0081C91
:10256000FFF7D8FF10BDC046F0B54F464646D646E9
:102570008446C0B58046194E18030F034D00000B6A
:102580005C0082463F0B6D0DC90F9146640DDB0F59
:102590000120B5420AD0B44203D0A54201D157452B
:1025A0000CD01CBC90469946A246F0BD66463E4300
:1025B000F7D1AC42F5D154461443F2D10120C845BD
:1025C000EFD1994207D0002DEBD163461F4338006D
:1025D000471EB841E5E70020E3E7C046FF070000DB
:1025E000F0B54F464646D6464D00C0B50E03C90F5E
:1025F0008A462C491F035C008046360B6D0D9146C0
:102600003F0B640DDB0F8D421ED08C4216D0002D87
:102610001ED130438446002C01D13A4323D0624678
:10262000002A1AD09A4529D0514602200139084083
:1026300001381CBC90469946A246F0BD39001143B2
:10264000E5D002204042F4E73043FAD1AC420FD04B
:10265000002C0FD13A43E7D00CE00122013B934319
:1026600018000130E5E763460020002BE1D0DBE7EE
:102670003A43E6D19A45D7D1A542D5DCA54205DB40
:10268000BE42D1D808D00020BE42D2D2504601234B
:10269000013898430130CCE7C845C5D80020C8456B
:1026A000F4D3C6E7FF070000F0B54F464646D646CE
:1026B0004D00C0B50E03C90F8A462E491F035C00AA
:1026C0008046360B6D0D91463F0B640DDB0F8D423E
:1026D00018D08C4211D0002D18D130438446002CE4
:1026E0001ED13A431CD163460020002B30D0514606
:1026F00002200139084001382AE039001143EAD0AC
:10270000022025E03043FBD1AC4226D0002C26D15C
:102710003A4324D15146022001390840013817E0DC
:102720006246002A0FD09A45E1D1A54205DBBE42A0
:10273000DDD819D00020BE420AD25046012301380C
:102740009843013004E00122013B9343180001301B
:102750001CBC90469946A246F0BD3A43D0D19A455A
:10276000C5D1A542C3DCE0E7C845C0D80020C845B4
:10277000E3D3EDE7FF07000002780B78002A03D0CF
:10278000013001319A42F7D0D01A70470023C25C61
:102790000133002AFBD1581E7047000070B50C4E63
:1027A0000D031C0349005B002D0B490D240B5B0D31
:1027B000B14208D0064900208B4203D114432000C7
:1027C000441EA04170BD05430120002DFAD1F1E760
:1027D000FF07000010B5041E25D0FFF79BFE144B29
:1027E0001B1A5B055B0D0A2812DD0B3884400022A2
:1027F0002403240B0021100024030A0D240B1205CE
:1028000022430C4C1B05224013435B00590810BDAA
:1028100002002100153291400A000B21081AC44021
:102820002403240BE6E7002300240022E2E7C0464D
:102830001E040000FFFF0F80704700000122014BC3
:102840001A607047B404002010B5002005F0A0FB0A
:1028500010BD0000802310B55B010022024903482F
:1028600005F0C2FA10BDC046492800007AC3000036
:10287000144B70B51968012300291FD00368002B81
:102880001AD08368002B17D00D00FC35EB683F2B66
:1028900016D80A009C0008321419A24205D15A1C0D
:1028A00002339B00EA60585004E00432161F366879
:1028B0008642F2D1002301E016235B42180070BD6E
:1028C0000C23FAE7B0040020F8B50B4B06001B6898
:1028D0000D000120002B07D000240C273800604396
:1028E0003018A54201DC0020F8BDFFF7C1FF002829
:1028F000FAD10134F2E7C046B0040020002310B53D
:10290000C3560400002B06D0FFF740FF0022010051
:10291000200006F045F8002010BD00000FB4802212
:1029200010B5C2B05200002102A806F0EDFD002053
:10293000104B1B78834207D00F4C02A8210007F0F0
:1029400071FD2000FFF722FF802102AA490045AB5C
:10295000091A1018449A019307F0E6FD002802DDD9
:1029600002A8FFF7CBFF002042B010BC08BC04B0A7
:102970001847C046F8040020B804002030B51B48B2
:1029800085B005F0E5FC1A4D286000282AD0174ACA
:10299000002106F0B9FD08211648FFF795FF041E37
:1029A00010D12123019380231B010093124A0300BD
:1029B000124903A805F082FA041E0BD0010010484A
:1029C000FFF7ACFF2868002809D005F0C7FC0023FA
:1029D0002B6004E001222B6814C301F031F82000C1
:1029E00005B030BD0C246442F9E7C046180F000062
:1029F000B004002080C100004D2B000050C1000039
:102A000054C1000010B505F09DFD01000148FFF71D
:102A100085FF10BDEDC3000010B50348FFF77EFF32
:102A200002F0D8FE10BDC04684C3000010B504F00B
:102A3000A5FB01000148FFF771FF10BDFEC30000B8
:102A400010B502490248FFF769FF10BD88C20000B7
:102A50009BC2000070B5012A0AD1134B13491B68B1
:102A60005B68002B00D112491248FFF757FF70BD79
:102A70005C6811492000FFF77FFE051E06D10F4854
:102A8000FFF74CFF084B1B685D60F0E70C49200026
:102A9000FFF772FE0028EAD10A48FFF73FFF012244
:102AA000014B1B685A60E2E7B0040020ADC2000091
:102AB000B6C20000BEC20000E9C20000ECC20000C5
:102AC000FAC20000FEC2000070B500241348FFF7F0
:102AD00025FF1348FFF722FF2500124B1A68130049
:102AE000FC33DB68A34218D9AB1C9B009B581968C8
:102AF00000290FD05A68002A00D10B4A0B48013434
:102B0000FFF70CFF082C05D10948FFF707FF09481C
:102B1000FFF704FF0135402DDFD170BD0DC300006C
:102B200029C30000B004002040CB000059C30000BE
:102B30003DCA000062C30000012310B55B420022C1
:102B4000012105F037FF4342584110BDF0B593B065
:102B5000C34B1C68002C0DD0C248FFF7DFFEC24BF0
:102B6000186805F0FBFB0020BF4B186005F010FA59
:102B700013B0F0BDBC4BBD481B681F001137FF37B9
:102B80000193002F00D155E2B94A019B05219B58C2
:102B9000181D0093FDF764FCA122019B12019950BE
:102BA000012300945B4203930293BCE01B2B00D1F2
:102BB000F1E1009A002A00D130E1029A002A1ADAE3
:102BC00002935B2B00D1AEE01B22019BA948FC3392
:102BD00019697A541A69029901321A61B9541A6949
:102BE00001321A61A04B1B685B680093002B00D177
:102BF0000CE100234CE0039A9F4C002A1CDA03935B
:102C00001A00742B18D10221593A2270029A62706C
:102C10009A4A1170994E32783F2A00D8E3E0002595
:102C200097482570357000F085FE964B1B689868B4
:102C300006F046FB009576E0039A413A012A29D92D
:102C4000039A742AE6D01B22019BFC3319697A543B
:102C50001A69029901321A61B9541A690399013249
:102C60001A61B9541A6901321A617F4B1B685B689B
:102C7000002B09D10A008448029900F05BFE814BC9
:102C80001B68986806F01CFB002323707B4A1370B6
:102C9000009348E0039B412B20D1A126724B3601C3
:102CA0001D680521AC59201DFDF7DAFB8022774B0A
:102CB000A9512102C91852006918380007F0CBFB4E
:102CC0003900734800F036FE3800FFF75FFD019BC6
:102CD000694AFC33186100231370D7E7A126624BC1
:102CE00036011D680521AC59601CFDF7B9FB802237
:102CF000664BA9512102C91852006918380007F023
:102D0000AAFB3900624800F015FE3800FFF73EFDCF
:102D1000019B594AFC33186100231370574A0093F2
:102D20001370423303930CAC2000FFF705FF0490AF
:102D3000012800D00CE70023E3560A2B02D00D2B0C
:102D400000D033E70022019BFC3319697A541A61E1
:102D5000454B1D682B001133FF330093113B5B7C07
:102D60005BB2934212D08022414E5200AB5900997F
:102D700001931802454BC018281807F06CFBAB599B
:102D80000521581C0193FDF76BFBA951C0220021BE
:102D90005200404806F0B8FB18220021200006F03F
:102DA000B3FB00220B9201920020009B0BA99D18FF
:102DB00028560B78202800D17CE100DDEFE00028C8
:102DC00000D115E10120034200D016E10B78034346
:102DD0000B7021680B182360019B1B015B182D49A8
:102DE0009B005D5009E1501C2349C0B230708B54E8
:102DF0006D2B98D10023023232701B4A0B5412689B
:102E0000526800929A4200D042E7234800F092FDB7
:102E10001C4B1B68986806F053FA84E70021019D5B
:102E2000FC352A69BB546156082901D07F2937D166
:102E30002B69002B00D176E7013B2B610A4B1B6805
:102E40005C68002C00D06EE708221448110000F0E6
:102E500071FD0C4B1B68986806F032FA009462E72B
:102E6000B40400207BC20000B0040020E0C10000D8
:102E7000140A0000EDC10000B8040020F80400208E
:102E8000FEC1000060010020F1C10000180A00002E
:102E9000F7C1000030030020FBC100001FC200008A
:102EA00009295CD12B69009ABD48FA54FFF736FD19
:102EB000009B1D001C0005930493BA4B05991A68EA
:102EC0001300FC33DB688B4221D9049B02339B0047
:102ED0009B581E68002E15D0019B3100FC331A69E7
:102EE000380007F0A7FA002809D10135012D34D0A8
:102EF000022D2DD132002100AB48FFF70FFD059BBD
:102F000001330593049B01330493402BD5D1012D4C
:102F100018D1002C16D02000FFF738FCFF2811D85C
:102F2000019EFC363169451A2A007818611806F0AE
:102F3000CFFA33690022ED186B1C336120237B55D7
:102F40003369FA543A0099499948FFF7E7FCEAE6F1
:102F500031009848FFF7E2FCD1E73400CFE7914B0E
:102F60001B685B68002B07D1934800F0E3FC934B90
:102F70001B68986806F0A4F92B6901332B61FF2BBD
:102F800000D8D0E68E48FFF7C9FC8848FFF7C6FC9A
:102F900000232B61DCE501230093023B03E622289A
:102FA0004BD03B2800D00DE7002A09D00099561ECF
:102FB0008F19002179565C2902D15B390B4248D127
:102FC000022119402AD103261E40012E15D10BA83B
:102FD00003782970B34303702368002B0DD0019B45
:102FE00001330193052B08DC9C000CAB1C1904E099
:102FF000980713D4042003430B700BAB1B785907BD
:1030000009D40132FF2A06DC0199052903DC216875
:103010000F2900DCC8E6022213405ED06948FFF7A2
:103020007DFC5F48FFF77AFC0023674A5F48137016
:10303000664A1370FFF772FC8AE5002A13D00098E5
:10304000561E8719002038565C280CD15B38034285
:1030500009D02800FFF79AFB2900421C380006F02F
:1030600037FA3200C9E703200340012BC5D0022BF9
:10307000D4D0002B12D10878013318430133034315
:103080000B70216800984B1C2360019B1B015B188F
:10309000511C41184E489B001950AEE7032BACD190
:1030A00001200BA90B788343001883430B70002386
:1030B0002B70A2E7002A09D00099561E8F19002113
:1030C00079565C2902D15B390B42C2D103201840EA
:1030D000012892D10BA90B78E7E71E0002930CAAF6
:1030E000B3009B5807930023079A9A423EDD2D4B6D
:1030F0001B685B68002B07D1294800F01BFC2F4B95
:103100001B68986806F0DCF8314BB201D3181D68D3
:103110002E212800089307F077F90590002801D0A8
:10312000431B05931F4B01241B680693FC33DB688C
:10313000099300230393099B039A934215D9069A96
:10314000A300D3185F68386800280BD0059B002BBC
:1031500022D01A00290007F06DF900283CD0039B0B
:10316000013303930134412CE5D1049B029A0136CB
:103170001A43019B0292B34201DB062EAFD1029BA0
:10318000012B00D04DE7009B002B00D149E719002F
:103190001048FFF7C3FB44E72900FFF7EDFADCE72F
:1031A0003DCA0000B004002025C200002CC200006F
:1031B0002FC2000028C20000EEC100006001002004
:1031C00034C2000053C20000B8040020F8040020FC
:1031D0003003002062C200008422920094468022C4
:1031E000069B12016344002118001C0006F08CF9B4
:1031F0008021089B079A09012000BD68A847044B5D
:10320000186884239B00C018FFF778FB0023ADE704
:10321000B0040020F0B5DBB012A900250A008D4BE8
:103220000C9513CB13C213CB13C203CB03C2802262
:10323000290052001AA806F067F98020000105F065
:1032400087F804006920AC4200D199E0802229006F
:103250001201200006F058F903F0E4FC29007E4832
:1032600003F0BEFD7D4B7E4A1B68FF210B931AA81D
:103270007C4B07F02BF81AA8FFF788FA7A4B984294
:1032800003D92100794800F055FB1AA8FFF77EFA10
:10329000764E411C1AAB3200200007F017F81AA82E
:1032A000FFF774FA6F4B0500714AFF211AA807F067
:1032B0000DF81AA8FFF76AFA80231B015B1B8342F3
:1032C00004D82100300000F035FB00251AA8FFF7D4
:1032D0005DFA664E411C1AAB3200601906F0F6FF2B
:1032E0001AA8FFF753FA5F4B2D185D4AFF211AA861
:1032F00006F0ECFF1AA8FFF749FA80231B015B1BBD
:10330000834204D82100300000F014FB00251AA8E5
:10331000FFF73CFA1AAB411C544A601906F0D6FF7D
:103320001AA8FFF733FA534B2F181E68514B9E42D1
:1033300028D14C4B4A4AFF211AA806F0C7FF1AA809
:10334000FFF724FA80231B01DB1B484D834204D87E
:103350002100280000F0EEFA00271AA8FFF716FA5D
:103360001AAB411C2A00E01906F0B0FF03F0A2FCE2
:103370002100280000F0DEFA200004F0EFFF00201A
:103380005BB0F0BD3300283B0CA91800099304F092
:1033900071F8002801D000230C93099B5D68002D73
:1033A00000D1354D5923099A0A930B9B934201D0C2
:1033B0004E230A9333002C331B780993072B01D932
:1033C000002309932800FFF7E1F912280CD91322F2
:1033D00000210DA806F098F83300283B5968122206
:1033E0000DA806F075F80DAD0A9B12AA06930023EE
:1033F00005930C9BFF2104933300283B5B691AA8BB
:103400000393330035331B780293099B9B009B5831
:103410001A4A01930095134B06F058FF1AA8FFF7BC
:10342000B5F980231B01DB1B834204D821000F4820
:1034300000F080FA00271AA8FFF7A8F91AAB411C80
:103440000A4AE01906F042FF1AA8FFF79FF936680A
:103450003F186BE730C00000680E0020640E0020AB
:10346000B6C50000B8040020FF070000FBC1000043
:1034700003C60000340E0020AFC5000050C6000097
:10348000002110B501220800FFF7C4FE10BD0000A6
:10349000F0B55E4C8022A5440024520021000600B5
:1034A00004A8039406F030F880222100520044A8BA
:1034B00006F02AF88020000104F04AFF0500692088
:1034C000A54258D0802221001201280006F01CF8E5
:1034D00003F0A8FB03A930003469776903F0E4FF27
:1034E00000283FD17369039A36699B1A9B00BF007D
:1034F000F618E319040007000193019B444A9E4219
:103500003DD31300FF21434A44A806F0DFFE44A840
:10351000FFF73CF98023039A1B019B1A3E4C834220
:1035200005D82900200000F005FA0023039344A8E1
:10353000FFF72CF9039B411C2200E81844AB06F06E
:10354000C5FE44A8FFF722F9039B1818039003F067
:10355000B1FB2900200000F0EDF9280004F0FEFE88
:10356000002008E0022002F05DFD280004F0F6FED5
:1035700003F0A0FB012085239B009D44F0BD0323A5
:103580003B4000931ED13300244904A806F0D0FE2E
:1035900004A8FFF7FBF880231B011B1B984204D3F0
:1035A00029001D4800F0C6F9009C04A8FFF7EEF8BA
:1035B00004AB411C184A281906F088FE04A8FFF73E
:1035C000E5F824183368124A154904A806F0B0FE3D
:1035D00004A8FFF7DBF880231B011B1B834204D8E0
:1035E00029000D4800F0A6F9002404A8FFF7CEF842
:1035F00004AB411C084A281906F068FE04A8FFF72E
:10360000C5F801372418043677E7C046ECFDFFFF04
:10361000B804002025C40000FBC1000013C4000052
:103620001DC40000F7B511490600FFF7A5F8104DBD
:1036300001902C68AC4201D10020FEBD2700283F3C
:103640007B680093019B002B05D000993000FFF7A9
:1036500093F8002807D1009A0649074800F06AF954
:103660003800FFF715FF2468E4E7C04652C40000A5
:10367000340E0020B804002056C40000F7B507003F
:103680000C0015001E00012A4EDD5B68354918004C
:103690000193FFF771F800280ED1032D06D13249AE
:1036A000B068FFF769F80122002800D0002221004D
:1036B0003800FFF7AFFDFEBD2C490198FFF75CF81D
:1036C000002809D1032D03D1B068FFF7ABFFF2E763
:1036D00003F0C4FE4068F8E7022D25D12449019883
:1036E000FFF74AF8051E1FD1224C2349220038005B
:1036F00006F01EFE060000B22B0022001F493818FB
:1037000006F016FE3618B6B230B222001C49381840
:103710002B0006F00DFE301800B2381822001649B2
:1037200006F006FE0020C6E7124D21002B00154AC8
:10373000380006F0CBFD2B00211A0600124A38187B
:1037400006F0C4FD3618A11B2B00B8190F4A06F06D
:10375000BDFD3018211A2B0038180D4A06F0B6FDB1
:10376000E0E7C046E9C8000074C400007BC4000064
:10377000BAC60000B804002086C40000B8C4000027
:10378000DBC40000FEC4000010C5000040C50000FE
:1037900076C5000010B5FFF771FF10BD10B502210E
:1037A0000148FFF791F810BD0000002010B502F0AD
:1037B000C1FA10BD024B5868984200D100207047F2
:1037C000F400002010B50C00002803D1FFF7F2FF31
:1037D000002806D0C369002B03D0210098470020A1
:1037E00010BD01204042FBE710B50C00002803D1BA
:1037F000FFF7E0FF002806D0036A002B03D021006A
:103800009847002010BD01204042FBE710B500287A
:1038100001D1FFF7CFFF036F002B00D0984710BDF9
:10382000C3B218003038C0B2092805D91A00613A6D
:10383000192A02D8573BD8B270471A00413A0020E3
:10384000192AF9D8373BF6E710B50020FFF7DEFF5D
:1038500010BD0000F0B587B0012A12D104AC2100E0
:103860000020FFF7AFFF6079A3786278217802909B
:1038700020790190E07800901748FFF74FF807B0E3
:10388000F0BD022A24D100265F6804AC002038561F
:1038900000280ED0FFF7C4FF0001C5B20120A555D6
:1038A0003856FFF7BDFF0543A55501360237062EF2
:1038B000ECD121000020FFF797FF6079A3786278B0
:1038C0002178029020790190E07800900348D4E7B5
:1038D0000348FFF723F8D2E7E7C60000E3C600007D
:1038E00014C7000010B502210148FEF7EDFF10BD1E
:1038F000FC00002010B5037A002B05D0FFF73EF83E
:10390000FFF74CFFFFF7EEFF10BD10B5040004F009
:10391000CFFF04F01DFF2000FFF7ECFF00F030FDAB
:1039200005F0ACF902F02EFA03CC05F0CBFA00203A
:1039300010BD00000FB437B501210D4D49422800DC
:1039400004F0AEFB041E0AD107A90698019106F007
:10395000A9FD084B04001B68986805F0B1FC28001D
:1039600004F00EFC20003EBC08BC04B01847C04662
:10397000FC04002060010020013800B50023042869
:103980000DD8FCF7F3FB1513110F030010230822C9
:10399000134304221A4302231A4301231343054A03
:1039A000136000BD0023F2E70023F2E70022F2E7F4
:1039B0000022F2E71401002070B500241E00174B0E
:1039C00086B00193164B00940293164B0393164B4B
:1039D0000493164B0593012A06DC154B154819680C
:1039E000FEF79CFF06B070BD6A46A300D5582800BC
:1039F000FEF7CCFE7168421C280006F01BFD002873
:103A000004D00134062CEFD10B4803E0E0B2FFF7FD
:103A1000B3FF0A48FEF782FFE4E7C04649C700004B
:103A20004FC7000055C70000BAC6000027C70000F6
:103A3000140100205AC7000085C700006DC70000B0
:103A40001F2210B5044B012104481A60FEF73CFF09
:103A5000034804F089FC10BD140100201801002067
:103A6000FC040020F0B503000826002031270139AE
:103A70000B4A89B2914200D1F0BD1A785040320011
:103A800044B2A44665464400E0B2002D01DA7C4011
:103A9000E0B2013AD2B2002AF2D10133E7E7C046E0
:103AA000FFFF000010B5041E07D08068002801D079
:103AB00004F054FC200004F051FC10BD07B51300C5
:103AC00001900A00062001A901F098FA0EBD70B518
:103AD0000400C67808000D00FEF758FE864217D194
:103AE000A088801904F034FC011EA06013D0E08986
:103AF000A2890830FFF7E2FF00280ED12800FEF768
:103B000045FE29000200A06805F0D3FC002801D082
:103B10000B20404270BD0C20FBE70520F9E70000B8
:103B200070B50400C078013004F012FC051E13D0FB
:103B3000E2780021013205F0E7FCE089E278290013
:103B40000830FFF7BBFFA088013004F001FC061E1F
:103B500004D1280004F002FC0C2018E0A288002107
:103B6000013205F0D1FCE089E3780830C018A28862
:103B70003100FFF7A3FF320029000648FEF7CEFE12
:103B8000280004F0EBFB300004F0E8FB0B2040427F
:103B900070BDC046B1C7000010B5074B5A78002A67
:103BA00008D101219A70597080230449DB00044830
:103BB00004F01AF910BDC04600050020E13F0000E6
:103BC00056C80000F0B589B0059102920393060033
:103BD000FEF7DCFDC3B204936B4603221F89C3B218
:103BE000FB189BB201930B3393439BB20400180064
:103BF000009304F0ADFB051E59D0009A002105F09A
:103C000083FC3100FF202E000440083622003000E3
:103C100005F05EFC6B4630191A89059905F058FCD1
:103C200030000199FFF71EFF49232B70A5336B70FD
:103C3000049B204EEB703B0A6B71039BA870AB7129
:103C40001B0A2F71EB71B388009A1B0B04339B0086
:103C50009B5B9A4213D29B1A174A934204DCF37877
:103C6000012B01D8FFF798FFB488002C0AD11C273C
:103C70007F42280004F072FB380009B0F0BDFFF766
:103C80008BFFF4E7009B2A0007A90620079401F0A8
:103C900065F9071EEDD1009B009A1C19A4B2B480EF
:103CA000240B0434A400335B9B1A3353E1E70C2745
:103CB0007F42E1E700050020870200001FB56B4648
:103CC0000130DA1D11700390012303A9062001F0D1
:103CD00045F905B000BD0000F0B587B0059280221F
:103CE0000E000B039BB252011D1D01939B189BB24A
:103CF0000490ADB20293102004F02AFB041E0ED0F3
:103D00001022002105F000FC082221002800FFF706
:103D1000D5FE002806D02000FFF7C4FE00242000B6
:103D200007B0F0BD2378492B15D0FF2B10D1637855
:103D3000FF2B0DD12000FFF7B5FE029A0823954214
:103D400001D2551BABB204362A4AB600B352E5E79E
:103D5000FF2323716371637922791B0213435A1E77
:103D6000254992B28A4203D8E278511E090617D536
:103D70002000FFF797FE341D1E4BA4001C19A378EA
:103D80000835ADB2CC2B05D144210198FFF796FF41
:103D90004423A3702B00029A08339A42ABDCCCE791
:103DA0009B189BB21A0003210B328A4392B20392F2
:103DB0006278EE2A10D1A381E58105992000049B49
:103DC00098470028ABD00B30A5D12000FFF76AFE42
:103DD000039BED18ADB2DDE7064B371DBF00DF19C1
:103DE000BB78CC2BF1D144210198FFF767FF442326
:103DF000BB70EAE700050020FF01000070B50B4D25
:103E00000400AB7CEE2B09D1AB7D0020EE2B0CD057
:103E1000220001210648FFF75FFF06E002000021B3
:103E20000348FFF759FF0028EED070BD00050020C1
:103E3000CF3A0000F0B585B00190002917D1C789AD
:103E400000213800FFF73AFF041E23D1380B334B13
:103E5000051DAD005D19AB78CC2B1AD100034421B0
:103E6000FFF72CFF041E15D14423AB7012E0019B19
:103E70000822DF88002102A805F046FB082202A9DB
:103E80003800FFF71BFE041E45D102AB1B78492BFF
:103E900003D00024200005B0F0BD02AB5B78EE2B10
:103EA000F7D1019A02ABDB78D0789842F1D104F0D7
:103EB0004FFA051E08D002ABD87804F049FA061E66
:103EC00004D1280004F04AFA0C2425E0380002ABA3
:103ED000DA7829000830FFF7F1FD02ABDA78019BB0
:103EE0003100D8890830FFF7E9FD02ABDA783100FC
:103EF000280005F0DEFA002806D0280004F02EFA8B
:103F0000300004F02BFAC5E7280004F027FA30004F
:103F100004F024FA94E705246442BBE7000500207E
:103F200070B50400808904F013FA05000C20002D00
:103F30000BD0E089A28908302900FFF7BFFD061EDB
:103F400005D0280004F00AFA0520404270BDA1897E
:103F50002800FFF787FDA37883420BD1E388002B6D
:103F600003D0E28901219A4205D1280004F0F6F934
:103F70000B20EAE731002000FFF75CFFF5E70000C7
:103F800073B500236A4600934B33137080220603F7
:103F9000B6B2040052013100062001F051F80028A9
:103FA00002D00520404276BD6B46EE256A465D7024
:103FB00001A904230620019600F0D0FF0028F0D1CB
:103FC000054B0434A4001A199570044AE252DA78B9
:103FD0000132DA70E7E7C04600050020FC0F000060
:103FE00070B52A4C0121200049420C3004F058F8E9
:103FF000002809D1E378002B06D0A37CEE2B14D047
:10400000A37D0125EE2B11D0200000230C3063701E
:1040100004F0B6F8A378002B03D02000083004F099
:1040200082F9002003F0B4FF70BD0500A2882B03C5
:104030000433110BA3804E1C022E00D10026331D29
:104040009B00E3189B78442B18D1002231001048C4
:10405000FFF742FE3000FFF793FF0028D4D1A0887D
:10406000CC21000B0003FFF729FECC230435AD0063
:104070006519AB70E378013BE370C5E7B14202D04C
:104080000136F6B2D8E7A280BEE7C04600050020A0
:1040900095400000032373B5848905000B349C43CD
:1040A000A4B2200004F054F9061E24D0E8892200AE
:1040B0003100FFF703FD002806D0052430006442DC
:1040C00004F04CF9200076BD0C4D3200AB8801A9FC
:1040D00001930620230000F041FF0028EDD1A988BC
:1040E000611889B2A980090B043189004B5B1C1B44
:1040F0004C530B24E2E70C246442E3E70005002064
:10410000012170B50F4D06000C354942280003F01F
:10411000C7FF041E08D13000FFF770FE061E05D150
:10412000280004F02DF8023C200070BD2100FFF7AC
:1041300081FE04003000FFF7B5FC280004F020F8F1
:10414000F2E7C04600050020F7B516000090019187
:1041500000284FD000294DD0002A4BDDFEF716FB7A
:10416000802847D880239B009E4243DC234F7B78E6
:10417000002B08D038000121BB78083001334942B8
:10418000BB7004F05FF8380001210C30494203F0A5
:1041900087FF041E24D10098FFF730FE051E21D0B2
:1041A00083889E4208D1AB68C07832001818019904
:1041B00005F07FF9041E0CD0EB89320001990098BC
:1041C000FFF700FD041E04D101002800FFF732FEB6
:1041D00004002800FFF766FC38000C3003F0D0FF25
:1041E0002000FEBD2300320001990098FFF7EAFC91
:1041F0000400F1E716246442F2E7C04600050020FF
:10420000F7B505000191160000282FD000292DD008
:10421000002A2BD01368002B28DD0121164F4942BC
:104220000C37380003F03CFF041E11D12800FFF7C3
:10423000E5FD0500380003F0A3FF002D19D0AA8882
:104240003368934206DA32602800FFF72BFC1C3CEF
:104250002000FEBDAB68E9780198591805F038F9DF
:10426000AB8828003360FFF71DFCF1E71624644299
:10427000EEE70224FBE7C04600050020F0B516007B
:1042800085B01D00334C012A00DD5C68802732496F
:104290007F0120000397FEF76FFA002812D1042E49
:1042A0000ED1EC682000FEF771FA01230200210014
:1042B000A868FFF749FF002802D02848FEF72EFB28
:1042C00005B0F0BD26492000FEF756FA01900028FF
:1042D0001FD1032EF4D1380004F03AF8041E01D1A6
:1042E0002048EBE73A00019905F00EF903AA2100F6
:1042F000A868FFF785FF002806D01B48FEF70EFBD5
:10430000200004F02BF8DBE721001848FEF706FB3D
:10431000F6E717492000FEF72FFA002808D1032EF0
:10432000CED1A868FFF7ECFE0028C9D01148C5E738
:1043300020001149FEF720FA041EC1D10F4D0200E2
:1043400001002800FFF7C8FC220001212800FFF728
:10435000C3FCB5E740CB0000BBC70000BFC70000EF
:10436000D3C70000D7C70000EBC70000FFC700009D
:104370000DC8000011C80000A5C60000213B0000C8
:10438000F0B55F4C85B023780093002B03D0002458
:10439000200005B0F0BD18220099200005F0B4F807
:1043A00020000C3003F0E0FF041EF1D12500554839
:1043B000FEF75EFA02AB1C80002303AF2803042241
:1043C00039000393FFF77AFB3B78EEB24B2B06D113
:1043D0007B78CC2B0AD0EE2B08D0442B06D03000B3
:1043E000FFF7CEFD002817D00400D1E7444FAA0004
:1043F000BA1893740192310000224348FFF76CFC15
:1044000003AB5B78EE2B07D1019A404B128A9A429C
:1044100006D002AB1E550134012D16D00125CBE785
:10442000FB780133FB70F7E7013C02AAA65C002B86
:1044300022D0300380B24421FFF740FC0028D3D1C2
:1044400044230436B600AD19AB702D4DEB78002C2B
:10445000EAD1002B16D0EB78022B19D10423CC2102
:104460000020AB80FFF72AFC00282FD1CC23AB74AF
:10447000EB78013BEB7029E03000FFF781FD00286D
:10448000E3D0B1E72000FFF77BFD0028E3D0ABE7E6
:10449000AB7CCC2B0DD1AA7DEE2A0CD10434009B31
:1044A000A4002A5B1B039B1A802252019B18AB803D
:1044B0000CE0442BEFD0AA7DCC2A05D1EE2B05D100
:1044C000012300931C00E9E7442AF7D028000021CB
:1044D000083003F0BFFF041E00D059E701232B7002
:1044E000AB880B4A1B0B04339B00EB5A934200D959
:1044F0004DE7EB78012B00D949E7FFF74DFB47E784
:104500000005002024010020213F0000FC0F0000D6
:104510008702000089004018072110B580248843D5
:10452000011F64040C6004390B60030014490C3B48
:1045300019601449043B19601349043B196013497D
:10454000043B19601249043B1960043B1A60114A8C
:10455000043B1A60104A043B1A60104A043B1A607C
:104560000F4A043B1A600F4A043B1A600E4A043B90
:104570001A600E4A043B1A600D4B4038036010BDB0
:104580003578000012121212030303030202020222
:10459000010101011111111110101010090909096F
:1045A00008080808070707070606060605050505A3
:1045B00004040404014B024A1A60704730010020D1
:1045C00000127A00054B1A68012802D110431860C6
:1045D000704701218A431A60FAE7C046002801406B
:1045E000054B5A68012802D11043586070470121D9
:1045F0008A435A60FAE7C046002801400321034A73
:10460000084013688B431843106070470010004047
:10461000044A054953690B40C021890008401843EA
:104620005061704700100040FFFCFFFF0221034A69
:10463000084053698B431843506170470010004095
:104640000121034A084053698B4318435061704766
:1046500000100040024B186A8007C00F7047C04628
:1046600000100040024B186A012318407047C046F2
:10467000001000400022034B1A605A605A61DA6150
:104680007047C0460010004010B504000020FFF73E
:10469000BFFF0120FFF7D4FF084B094A9A61094A7E
:1046A0009A61094A22601C00FFF7DCFF012803D150
:1046B00000232062A36110BDC046F5E70010004052
:1046C00096969696EAEAEAEACDAB3412F7B506007A
:1046D00015000220104C0F00FFF7A8FF0F4BA3613D
:1046E0000F4BA361AB1935000193019B9D4202D191
:1046F0000023A361F7BD0220FFF798FFBB1B5B5DA2
:104700002B700135FFF7A6FF002802D00223236299
:10471000EBE7C046F6E7C04600100040A5A5A5A5FA
:10472000F1F1F1F1F0B5002303260C6801229A4063
:1047300017002740BA4222D1D24307681740BC462F
:10474000CF7965469F402F43076047681740BC46B6
:104750008F7965469F402F434760876817404A79A5
:104760009A403A4382605A00944637006546AF400B
:10477000C268BA4317000A79AA403A43C2600133BB
:10478000102BD3D1F0BD30B50023012425009D406E
:1047900029420DD10133102BF8D130BD002414E093
:1047A000002118E0012B1ED0022B1CD01171F4E760
:1047B000046811600C40DC40012C00D00024D4714E
:1047C00044680C40DC40012CE8D19471846821409D
:1047D000D9400129E4D15171C1685B00D9400B0077
:1047E00003210B40DED11371D7E70000054B0422F3
:1047F0005968012802D10A435A60704791435960B1
:10480000FBE7C046001401400321034A08405368F7
:104810008B4318435060704700140140014B024A1B
:104820001A607047001401405A5A3412064A01288F
:1048300005D18023D1681B060B43D3607047D36832
:104840005B005B08F9E7C04600020040064B012808
:1048500005D18022D96892040A43DA607047DA6889
:1048600002490A40F9E7C04600020040FFFFFFFD91
:10487000044A0549D3680B40802149040840184385
:10488000D060704700020040FFFFFFFE044A054968
:10489000D3680B40E021C90208401843D06070473C
:1048A00000020040FFFFF8FF044A0549D3680B40AF
:1048B000E021C90008401843D06070470002004062
:1048C000FFF8FFFF0321034A0840D3688B431843D6
:1048D000D060704700020040044A054913690B404C
:1048E000C02189020840184310617047000200404F
:1048F000FFFFFCFF054B1A69012802D11043186124
:10490000704701218A431A61FAE7C046000200405D
:10491000024B1869012318407047C046000200404E
:10492000044A054993690B400449084018439061C3
:104930007047C04600020040FFFF00FC0000FF037C
:104940000821034A084093698B43184390617047DC
:10495000000200400621034A084093698B43184334
:104960009061704700020040054B9A69012802D10E
:1049700010439861704701218A439A61FAE7C04663
:1049800000020040024B9869012318407047C0465E
:10499000000200400121034A0840536C8B43184336
:1049A0005064704700020040002370B5C36003618B
:1049B0000360436083600400FFF7AAFF2E4D0128C7
:1049C00006D12B692D4A9B039B0F01335343E360B0
:1049D000FFF7D8FF012811D1AB695B079B0F012BB3
:1049E00004D0022B20D080231B0201E0FA23DB013C
:1049F000AA699201920D0132534323610322EB68AD
:104A00001340022B16D0934217D0012B0FD0E3682E
:104A10002360E86823684005400F043803280FD856
:104A2000FBF7A4FB0D1A1C1EE3681B0AE0E7FA2340
:104A3000DB01EDE780231B02EAE72369E8E75B0877
:104A40006360E86863684003400F043803280AD8AD
:104A5000FBF78CFB080B0D0F9B08F1E7DB08EFE77A
:104A60001B09EDE75B08A36070BD9B08FBE7DB0853
:104A7000F9E71B09F7E7C0460002004000127A0080
:104A8000F02380221B0503409204934219D004D8DE
:104A900080225204934216D07047C022920493425F
:104AA0000DD08022D2049342F6D10A4B0122C0B22B
:104AB0008240002909D019680A431A60ECE7064BC6
:104AC000F4E7064BF2E7064BF0E7196891431960EB
:104AD000E2E7C04634020040300200402C020040B1
:104AE0002802004010B504000068FFF7F5FE2079A9
:104AF000FFF700FF10BD10B50004FFF711FF10BD58
:104B000010B504000068FFF7F6FF6068FFF718FFB4
:104B1000A068FFF71FFF207BFFF726FF10BD10B531
:104B200004000068FFF7CEFE6068FFF7BDFEA068D6
:104B3000FFF7ACFEE068FFF79BFE207CFFF786FEE8
:104B4000607CFFF773FE10BD01280BD10C4B1B6876
:104B50000C48DA4392B2190C91420FD17F221340D4
:104B600043617047022801D1074BF0E7032801D1C8
:104B7000064BECE70428E9D1054BE8E74023EFE7D3
:104B800040FDFF1F000200403CFDFF1F38FDFF1FDE
:104B900034FDFF1F8023DB05012805D180225968E1
:104BA00092010A435A6070475A6801490A40F9E77E
:104BB000FFDFFFFF8023DB05012805D18022596834
:104BC00052010A435A6070475A6801490A40F9E79E
:104BD000FFEFFFFF8023DB05012805D18022596804
:104BE00012010A435A6070475A6801490A40F9E7BE
:104BF000FFF7FFFF8023DB05012805D180225968DC
:104C0000D2000A435A6070475A6801490A40F9E7DE
:104C1000FFFBFFFF8023DB05012805D180225968B7
:104C200092000A435A6070475A6801490A40F9E7FE
:104C3000FFFDFFFF8023DB05012805D18022596895
:104C400052000A435A6070475A6801490A40F9E71E
:104C5000FFFEFFFF8023DB0502225968012802D1F5
:104C60000A435A60704791435960FBE78023DB0594
:104C70005A68012802D110435860704701218A43C5
:104C80005A60FAE7C0220368114093431943016058
:104C9000704720230268012902D113430360704743
:104CA0009A430260FBE710230268012902D11343F3
:104CB000036070479A430260FBE74022436811405B
:104CC0009343194341607047202243681140934346
:104CD00019434160704710234268012902D11343F0
:104CE000436070479A434260FBE70823426801290A
:104CF00002D11343436070479A434260FBE78068E8
:104D0000C0B27047C9B2C16070470C2243691140FC
:104D100093431943416170470423C269012902D1B9
:104D20001343C36170479A43C261FBE70223C26920
:104D3000012902D11343C36170479A43C261FBE763
:104D4000C369012902D11943C1617047012293430C
:104D5000C361FAE7094BC0184B42594101230009CE
:104D6000401883400649012A03D10A6813430B60A7
:104D700070470A689A430A60FAE7C046F4DFFEBF4C
:104D800000200140074B4A425141074AC01803091D
:104D9000106801225B189A401040431E9841C0B22F
:104DA0007047C046F4DFFEBF00200140074B4A4277
:104DB0005141074AC0180309506801225B189A4004
:104DC0001040431E9841C0B27047C046F4DFFEBF9A
:104DD0000020014070B50D0004004B6889689BB24B
:104DE0000361FFF74FFF6B1CD97F2000FFF794FF93
:104DF00029692000FFF761FF297B2000FFF749FFA9
:104E000069692000FFF760FFE9692000FFF77DFF77
:104E10002A7820000021FFF79DFF6A7820000121F9
:104E2000FFF798FFAB1CD97F2000FFF77FFFEB1C3B
:104E3000D97F2000FFF784FF697B2000FFF733FF55
:104E4000297E2000FFF747FF697E2000FFF74DFF16
:104E500070BD000070B505000800FBF743FE041CA0
:104E60002800FBF73FFE011C201CFBF763FCFE2122
:104E70008905041CFBF720FB00280CD0201CFDF743
:104E8000B9FA0022044BFCF7FDFE0022034BFBF7AE
:104E900069FEFBF76FFB70BD0000F03F0000E03FD4
:104EA000F8B51423434318481400C0188268C36837
:104EB0000D00D3188B4202D801204042F8BD8A422F
:104EC000FAD82F0001211148FFF7DAFD104BE61840
:104ED000760A76027619B7420AD100210B48FFF70D
:104EE000CFFDA408A4006419A54208D10020E5E77D
:104EF0003800FFF7C9FB80239B00FF18EBE708CDC4
:104F00000133F1D0D8E7C0461800002005000002A8
:104F1000FF01000070B5012104000E48FFF7B0FD4D
:104F200080220D4D920029002000FFF7CFFB802347
:104F30009B00E11823008B4201D1002070BD18783E
:104F400001331A1B013AAA5C8242F4D0012040428C
:104F5000F4E7C0460500000218050020F0B587B050
:104F6000039214221D000E004243224B05909B1811
:104F70009F680B680295FF187B0A5B020193FB1A7E
:104F800004938023049A9B009C1AAC4200D92C0005
:104F9000802200219200184804F0B6FA802201997C
:104FA0009200154804F094FA134A049B9446634413
:104FB00022000399180004F08BFA802201999200D4
:104FC0000598FFF76DFF00280DD10198FFF7A2FFAC
:104FD000002808D1039B3F191B190393029B1B1B3D
:104FE0000293002BC8DC002033685B19336007B0E4
:104FF000F0BDC046180000201805002070B50C0058
:1050000016001D00002915D0002A13D00968CA18FF
:1050100014235843094B1B18D86882420AD89B684E
:105020002A00C918300004F053FA002023685D19E3
:10503000256070BD01204042FBE7C04618000020FB
:10504000F8B51500541814224243154B9B18DA6822
:10505000944220D89C682A000C19640A640221003A
:10506000FFF71EFF802206009200FF210D4804F08A
:105070004BFA2700002E09D03000F8BD3800FFF7AA
:1050800049FF00280AD180239B00FF182B19DB1B46
:10509000002BF3DCF0E701267642EDE70600EBE7B4
:1050A0001800002018050020F8B50D0006000121A9
:1050B0002800FFF77BFE00281DD0304BB200D058EF
:1050C000182373432E49CB18DA8A002A38D05C8A19
:1050D0001A8A944201D300225A82182474430C196C
:1050E000638AE268D15CFFF70DFEE38A013BE3824D
:1050F000638A0133638200212800FFF757FE0028EE
:105100001DD0182777431E4D1C4BB200EC19D05808
:105110006289A3889A4217D2FFF7F1FD23897A5951
:10512000591C2181D0542289A3889A4201D300239B
:10513000238118235E43AD196B8901336B81F8BD60
:105140000121FFF707FED6E7FFF7D9FD23897A593A
:10515000591C2181D054A2882389934201D3002372
:10516000238118235E43AD19EB8801339BB29A4229
:1051700001D9EB80E3E70023FBE7C04664C80000E9
:10518000180700201823F0B543433A4E85B0F318B2
:1051900001911500D9881A8907008A4200D965E073
:1051A0009A885B89521A92B21C1CAB4200D92C1C03
:1051B000A3B2934200D9141C18237B430293F358E3
:1051C000A4B2591822000198039304F081F9029BBC
:1051D000F118CA888888A21892B2CA80182390420F
:1051E00001D80022CA807B431A00224B2D1B9B183A
:1051F0005A89ADB2121B5A81002D32D01A89D98832
:105200008A422ED9182078431A4B521A1B185B89F0
:1052100092B2181CAB4200D9281C83B2934200D929
:10522000101C019B85B2181918237B430193F35876
:105230002A005918029304F04BF9019BF618F288E2
:10524000B188AA1892B2F2801823914201D80022A4
:10525000F2805F43074B2C19DF197B89A4B25B1BDB
:105260007B8120B205B0F0BD0024CBE7002DFBD13F
:105270002C00F6E71807002010B502490020FFF7C0
:1052800013FF10BD0C20014010B502490120FFF7AB
:105290000BFF10BD2C20014010B502490220FFF782
:1052A00003FF10BD4C20014010B502490320FFF759
:1052B000FBFE10BD6C20014010B502490420FFF731
:1052C000F3FE10BD8C20014010B502490520FFF708
:1052D000EBFE10BDAC200140F0B5037804000520C2
:1052E00091B0834200D99CE0237A023B022B00D983
:1052F00097E0637A022B00D993E0A37A012B00D9BF
:105300008FE0E37A032B00D98BE0237B022B00D9BB
:1053100087E085480121FFF7B3FB207800250528A9
:1053200017D8824D0121FAF721FF037E90A2B6C85B
:105330007F48FFF7A5FB002208217E4800F00AFB0A
:10534000002210217B4800F005FB80239B00EB67C7
:10535000794D2778052F1AD8402002F0F9FF18233D
:105360007B430193754E019A754F9851D7199E1939
:1053700000224023736018003A6002F0E9FF4023E6
:105380000022F0600199BB606E4BCB185A6002A8F6
:1053900007AEFFF709FB24220021300004F0B4F827
:1053A000237B0127002B00D0777304996068377046
:1053B000FFF750FD7060227A0023032A00D093E0AB
:1053C000627A022A00D08AE04033B360A37A012BCC
:1053D00000D093E03F33310028003361FFF7FAFC3F
:1053E0002378594AD25C53B2002B00DB88E00F23AC
:1053F0001340083B55499B089B005B180321FF2481
:105400001140C9008C40D869A04340248C40210041
:105410000143D9611F231A401E3B934000204C4A90
:10542000136011B0F0BD4B48FFF72AFB00220121A9
:10543000494800F08FFA00220221474800F08AFA1A
:105440008023DB00EB67454D83E74548FFF718FBFA
:1054500000220421404800F07DFA002208213E4845
:1054600000F078FA80231B01EB673E4D71E73E4860
:10547000FFF706FB80210022C9003C4800F06AFAD1
:10548000802100220901394800F064FA80235B0181
:10549000EB67374D5DE73748FFF7F2FA002201214D
:1054A000354800F057FA00220221334800F052FA42
:1054B00080239B01EB67314D4BE73148FFF7E0FA62
:1054C00000221021294800F045FA00222021274817
:1054D00000F040FA8023DB01EB672A4D39E7012A0F
:1054E00000D072E7802370E7042A01D1C0236CE763
:1054F000B360152302AA9B18DF7767E700236AE7EA
:1055000013499B089B005B180321FF25C024114011
:10551000C9008D40A4001859A84340258D4029009A
:105520000143195176E7C0460E00000304E100E094
:1055300008000003A00C00400C20014018070020C8
:1055400020070020280700205CC8000000ED00E0D4
:1055500000E100E009000003200C00402C20014085
:105560000A0000034C2001400B000003400C0040E7
:105570006C2001400C000003600C00408C200140B6
:105580000D000003AC200140F0B58BB00993037807
:10559000039005910492052B02D905200BB0F0BDB4
:1055A00002F026FA040002F01DFC0100FA2080003F
:1055B000FAF770FE231A089300230293029B049AC1
:1055C000934200D3ABE0FFF729F901F09FFD6B4652
:1055D0001D8A039B00241B7801931823019A5343CF
:1055E000504AD318988A5A8A82422AD81A8ADB8A61
:1055F000111A89B2D21A2B1C8D4200D90B1C9BB2F6
:105600009A4200DD1A001826019B464F5E43BE19E0
:10561000F36894B218182200059903F059FFB38A71
:10562000328AE3189BB2B3829A4201D80023B38234
:105630001823019A2D1B5343FF18FB8AADB2E318C0
:10564000FB82002D32D01823019A36495343C918E2
:10565000888A4B8A0A8A1B1AC98A9BB2521A291C49
:105660009D4200D9191C89B28A4200DD0A00182522
:10567000019B2C4F5D437D19EB6896B21818059B72
:105680003200191903F024FFAB8A2A8AF3189BB25F
:10569000AB829A4201D80023AB821823019A3419B5
:1056A0005343FF18FB8AA4B2F318FB82019B1E4AE6
:1056B0009B009D5801212800FFF764FB002808D1BA
:1056C00001212800FFF707FB012228001100FFF746
:1056D00041FB029B24B21B19029301F025FD02F04D
:1056E00087F9089B069300230793069B079CC01A23
:1056F000A141002900D050E7099B984200D94CE70E
:10570000039B1A7818235A43064B9B18DB8A002BFD
:1057100000D053E7049B029A934200D94EE7002041
:105720003CE7C0461807002064C80000F0B585B00B
:1057300006000F0002921D00002802D1052005B0CE
:10574000F0BD0029FAD00378052BF7D802F050F904
:10575000040002F047FB0100FA208000FAF79AFDEE
:10576000231A00240393029B9C4204D3281EE6D0F4
:105770002C600020E3E7FFF751F801F0C7FC029B23
:1057800039001A1B92B23078FFF7FCFC241801F0A4
:10579000CBFC02F02DF9039B009300230193009AA8
:1057A000019B801A9941002902D10A9B9842DAD9BB
:1057B000002DC3D02C60C1E710B5FDF7F7FF002323
:1057C00003480360436001330372FEF79EF810BD87
:1057D000AC07002010B50A2002F0B8FEBFF34F8FCF
:1057E000034B044ADA60BFF34F8FC046FDE7C04663
:1057F00000ED00E00400FA057FB50C4A0C4B9A60FE
:1058000002F0ABFE012304930A4B00220393802392
:105810001B010293002308490092019307482023AB
:1058200001F0C6FD02F09DFE07B000BD00000000C3
:1058300000ED00E0B95700007CC80000A807002078
:10584000F8B501F00BFE056901F008FE43699B0005
:10585000ED186C4600260327A54208D80A4804F034
:1058600019FD0A4B0A4A44210A4803F04FFC3E4204
:1058700003D12100084804F093FC02CC074804F04F
:105880008FFC0136E8E7C046DAC8000092C8000085
:1058900085C8000094C8000015C400001FC40000A3
:1058A00068467047010010B50B48FAF769FC0B4BCE
:1058B00001380B4A98420CD8C021506009480906AB
:1058C000036A1B021B0A0B43036200239360073326
:1058D00013600723136010BD00127A00FFFFFF0062
:1058E00010E000E000ED00E0F0B585B002AE14007D
:1058F000320005000F00FEF746FF029BBB4213D1AA
:10590000F379002B10D1002C09D17379002B0BD126
:1059100073680F4A1340012B06D105B0F0BD012C6E
:10592000F6D17379012BF3D000236A460097D37127
:105930009C4209D153716A4693710123694628003C
:105940001371FEF7EFFEE8E7012269464A71F2E7BC
:10595000FF00FF00F0B585B002AD14002A0006007C
:105960000F00FEF710FF0123029A2340BA4213D121
:10597000EA79002A10D16A79002B0BD1002A0BD1C9
:10598000AA79A1071CD4002A06D12A79022A03D1B8
:1059900005B0F0BD012AF3D0002269460097CA7114
:1059A000934210D16A46537102231C400DD1947169
:1059B00002236A46694630001371FEF7B3FEE7E73B
:1059C000012AE9D1E1E70123ECE701236A4693715B
:1059D000EEE7000010B501215148FFF751F8012111
:1059E0005048FFF74DF801214F48FFF749F80121D2
:1059F0004E48FFF745F801214D48FFF741F80121D6
:105A00004C48FFF73DF801214B48FFF739F80121D9
:105A10004A48FFF735F801214948FFF731F80121DD
:105A20004848FFF72DF801214748FFF729F8802063
:105A300001214004FFF724F801214448FFF720F832
:105A400001214348FFF71CF800214248FFF718F8EE
:105A500000214148FFF714F801214048FFF710F8F2
:105A600001213F48FFF70CF801213E48FFF708F8F5
:105A700001213D48FFF704F8802001218004FEF752
:105A8000FFFF01213948FEF7FBFF01213848FEF7EF
:105A9000F7FF01213748FEF7F3FF01213648FEF7F3
:105AA000EFFF01213548FEF7EBFF01213448FEF7F7
:105AB000E7FF01213348FEF7E3FF01213248FEF7FB
:105AC000DFFF01213148FEF7DBFF01213048FEF7FF
:105AD000D7FF01212F48FEF7D3FF01212E48FEF703
